{
  "_format": "hh-sol-artifact-1",
  "contractName": "Marketplace",
  "sourceName": "contracts/Marketplace.sol",
  "abi": [
    {
      "inputs": [],
      "stateMutability": "nonpayable",
      "type": "constructor"
    },
    {
      "inputs": [
        {
          "internalType": "address",
          "name": "owner",
          "type": "address"
        }
      ],
      "name": "OwnableInvalidOwner",
      "type": "error"
    },
    {
      "inputs": [
        {
          "internalType": "address",
          "name": "account",
          "type": "address"
        }
      ],
      "name": "OwnableUnauthorizedAccount",
      "type": "error"
    },
    {
      "anonymous": false,
      "inputs": [
        {
          "indexed": true,
          "internalType": "uint256",
          "name": "serviceId",
          "type": "uint256"
        },
        {
          "indexed": true,
          "internalType": "address",
          "name": "provider",
          "type": "address"
        },
        {
          "indexed": false,
          "internalType": "uint256",
          "name": "price",
          "type": "uint256"
        }
      ],
      "name": "ApplicationAccepted",
      "type": "event"
    },
    {
      "anonymous": false,
      "inputs": [
        {
          "indexed": true,
          "internalType": "uint256",
          "name": "serviceId",
          "type": "uint256"
        },
        {
          "indexed": true,
          "internalType": "address",
          "name": "provider",
          "type": "address"
        },
        {
          "indexed": false,
          "internalType": "string",
          "name": "proposal",
          "type": "string"
        },
        {
          "indexed": false,
          "internalType": "uint256",
          "name": "price",
          "type": "uint256"
        }
      ],
      "name": "ApplicationCreated",
      "type": "event"
    },
    {
      "anonymous": false,
      "inputs": [
        {
          "indexed": true,
          "internalType": "address",
          "name": "previousOwner",
          "type": "address"
        },
        {
          "indexed": true,
          "internalType": "address",
          "name": "newOwner",
          "type": "address"
        }
      ],
      "name": "OwnershipTransferred",
      "type": "event"
    },
    {
      "anonymous": false,
      "inputs": [
        {
          "indexed": true,
          "internalType": "uint256",
          "name": "serviceId",
          "type": "uint256"
        },
        {
          "indexed": true,
          "internalType": "address",
          "name": "provider",
          "type": "address"
        },
        {
          "indexed": false,
          "internalType": "uint256",
          "name": "price",
          "type": "uint256"
        }
      ],
      "name": "ProviderAssigned",
      "type": "event"
    },
    {
      "anonymous": false,
      "inputs": [
        {
          "indexed": true,
          "internalType": "uint256",
          "name": "serviceId",
          "type": "uint256"
        }
      ],
      "name": "ServiceApproved",
      "type": "event"
    },
    {
      "anonymous": false,
      "inputs": [
        {
          "indexed": true,
          "internalType": "uint256",
          "name": "serviceId",
          "type": "uint256"
        },
        {
          "indexed": true,
          "internalType": "address",
          "name": "client",
          "type": "address"
        },
        {
          "indexed": false,
          "internalType": "string",
          "name": "description",
          "type": "string"
        }
      ],
      "name": "ServiceCreated",
      "type": "event"
    },
    {
      "anonymous": false,
      "inputs": [
        {
          "indexed": true,
          "internalType": "uint256",
          "name": "serviceId",
          "type": "uint256"
        }
      ],
      "name": "ServiceDelivered",
      "type": "event"
    },
    {
      "anonymous": false,
      "inputs": [
        {
          "indexed": true,
          "internalType": "uint256",
          "name": "serviceId",
          "type": "uint256"
        }
      ],
      "name": "ServiceDisputed",
      "type": "event"
    },
    {
      "anonymous": false,
      "inputs": [
        {
          "indexed": true,
          "internalType": "uint256",
          "name": "serviceId",
          "type": "uint256"
        },
        {
          "indexed": false,
          "internalType": "uint256",
          "name": "amount",
          "type": "uint256"
        }
      ],
      "name": "ServiceFunded",
      "type": "event"
    },
    {
      "anonymous": false,
      "inputs": [
        {
          "indexed": true,
          "internalType": "uint256",
          "name": "serviceId",
          "type": "uint256"
        },
        {
          "indexed": false,
          "internalType": "address",
          "name": "resolver",
          "type": "address"
        },
        {
          "indexed": false,
          "internalType": "bool",
          "name": "approved",
          "type": "bool"
        }
      ],
      "name": "ServiceResolved",
      "type": "event"
    },
    {
      "inputs": [
        {
          "internalType": "uint256",
          "name": "_serviceId",
          "type": "uint256"
        },
        {
          "internalType": "uint256",
          "name": "_applicationIndex",
          "type": "uint256"
        }
      ],
      "name": "acceptApplication",
      "outputs": [],
      "stateMutability": "nonpayable",
      "type": "function"
    },
    {
      "inputs": [
        {
          "internalType": "uint256",
          "name": "",
          "type": "uint256"
        },
        {
          "internalType": "uint256",
          "name": "",
          "type": "uint256"
        }
      ],
      "name": "applications",
      "outputs": [
        {
          "internalType": "address",
          "name": "provider",
          "type": "address"
        },
        {
          "internalType": "uint256",
          "name": "serviceId",
          "type": "uint256"
        },
        {
          "internalType": "string",
          "name": "proposal",
          "type": "string"
        },
        {
          "internalType": "uint256",
          "name": "price",
          "type": "uint256"
        },
        {
          "internalType": "bool",
          "name": "accepted",
          "type": "bool"
        }
      ],
      "stateMutability": "view",
      "type": "function"
    },
    {
      "inputs": [
        {
          "internalType": "uint256",
          "name": "_serviceId",
          "type": "uint256"
        },
        {
          "internalType": "string",
          "name": "_proposal",
          "type": "string"
        },
        {
          "internalType": "uint256",
          "name": "_price",
          "type": "uint256"
        }
      ],
      "name": "applyForService",
      "outputs": [],
      "stateMutability": "nonpayable",
      "type": "function"
    },
    {
      "inputs": [
        {
          "internalType": "uint256",
          "name": "_serviceId",
          "type": "uint256"
        }
      ],
      "name": "approveService",
      "outputs": [],
      "stateMutability": "nonpayable",
      "type": "function"
    },
    {
      "inputs": [
        {
          "internalType": "string",
          "name": "_description",
          "type": "string"
        }
      ],
      "name": "createService",
      "outputs": [],
      "stateMutability": "nonpayable",
      "type": "function"
    },
    {
      "inputs": [
        {
          "internalType": "uint256",
          "name": "_serviceId",
          "type": "uint256"
        }
      ],
      "name": "deliverService",
      "outputs": [],
      "stateMutability": "nonpayable",
      "type": "function"
    },
    {
      "inputs": [
        {
          "internalType": "uint256",
          "name": "_serviceId",
          "type": "uint256"
        }
      ],
      "name": "disputeService",
      "outputs": [],
      "stateMutability": "nonpayable",
      "type": "function"
    },
    {
      "inputs": [
        {
          "internalType": "uint256",
          "name": "_serviceId",
          "type": "uint256"
        }
      ],
      "name": "fundService",
      "outputs": [],
      "stateMutability": "payable",
      "type": "function"
    },
    {
      "inputs": [
        {
          "internalType": "uint256",
          "name": "_serviceId",
          "type": "uint256"
        },
        {
          "internalType": "uint256",
          "name": "_index",
          "type": "uint256"
        }
      ],
      "name": "getApplication",
      "outputs": [
        {
          "components": [
            {
              "internalType": "address",
              "name": "provider",
              "type": "address"
            },
            {
              "internalType": "uint256",
              "name": "serviceId",
              "type": "uint256"
            },
            {
              "internalType": "string",
              "name": "proposal",
              "type": "string"
            },
            {
              "internalType": "uint256",
              "name": "price",
              "type": "uint256"
            },
            {
              "internalType": "bool",
              "name": "accepted",
              "type": "bool"
            }
          ],
          "internalType": "struct Marketplace.Application",
          "name": "",
          "type": "tuple"
        }
      ],
      "stateMutability": "view",
      "type": "function"
    },
    {
      "inputs": [
        {
          "internalType": "uint256",
          "name": "_serviceId",
          "type": "uint256"
        }
      ],
      "name": "getApplicationCount",
      "outputs": [
        {
          "internalType": "uint256",
          "name": "",
          "type": "uint256"
        }
      ],
      "stateMutability": "view",
      "type": "function"
    },
    {
      "inputs": [],
      "name": "getFundedServices",
      "outputs": [
        {
          "components": [
            {
              "internalType": "uint256",
              "name": "id",
              "type": "uint256"
            },
            {
              "internalType": "address",
              "name": "client",
              "type": "address"
            },
            {
              "internalType": "address",
              "name": "provider",
              "type": "address"
            },
            {
              "internalType": "uint256",
              "name": "price",
              "type": "uint256"
            },
            {
              "internalType": "enum Marketplace.ServiceState",
              "name": "state",
              "type": "uint8"
            },
            {
              "internalType": "string",
              "name": "description",
              "type": "string"
            }
          ],
          "internalType": "struct Marketplace.Service[]",
          "name": "",
          "type": "tuple[]"
        }
      ],
      "stateMutability": "view",
      "type": "function"
    },
    {
      "inputs": [],
      "name": "getOpenServices",
      "outputs": [
        {
          "components": [
            {
              "internalType": "uint256",
              "name": "id",
              "type": "uint256"
            },
            {
              "internalType": "address",
              "name": "client",
              "type": "address"
            },
            {
              "internalType": "address",
              "name": "provider",
              "type": "address"
            },
            {
              "internalType": "uint256",
              "name": "price",
              "type": "uint256"
            },
            {
              "internalType": "enum Marketplace.ServiceState",
              "name": "state",
              "type": "uint8"
            },
            {
              "internalType": "string",
              "name": "description",
              "type": "string"
            }
          ],
          "internalType": "struct Marketplace.Service[]",
          "name": "",
          "type": "tuple[]"
        }
      ],
      "stateMutability": "view",
      "type": "function"
    },
    {
      "inputs": [
        {
          "internalType": "address",
          "name": "_provider",
          "type": "address"
        }
      ],
      "name": "getProviderApplications",
      "outputs": [
        {
          "internalType": "uint256[]",
          "name": "",
          "type": "uint256[]"
        }
      ],
      "stateMutability": "view",
      "type": "function"
    },
    {
      "inputs": [
        {
          "internalType": "uint256",
          "name": "_serviceId",
          "type": "uint256"
        }
      ],
      "name": "getService",
      "outputs": [
        {
          "components": [
            {
              "internalType": "uint256",
              "name": "id",
              "type": "uint256"
            },
            {
              "internalType": "address",
              "name": "client",
              "type": "address"
            },
            {
              "internalType": "address",
              "name": "provider",
              "type": "address"
            },
            {
              "internalType": "uint256",
              "name": "price",
              "type": "uint256"
            },
            {
              "internalType": "enum Marketplace.ServiceState",
              "name": "state",
              "type": "uint8"
            },
            {
              "internalType": "string",
              "name": "description",
              "type": "string"
            }
          ],
          "internalType": "struct Marketplace.Service",
          "name": "",
          "type": "tuple"
        }
      ],
      "stateMutability": "view",
      "type": "function"
    },
    {
      "inputs": [],
      "name": "nextServiceId",
      "outputs": [
        {
          "internalType": "uint256",
          "name": "",
          "type": "uint256"
        }
      ],
      "stateMutability": "view",
      "type": "function"
    },
    {
      "inputs": [],
      "name": "owner",
      "outputs": [
        {
          "internalType": "address",
          "name": "",
          "type": "address"
        }
      ],
      "stateMutability": "view",
      "type": "function"
    },
    {
      "inputs": [
        {
          "internalType": "address",
          "name": "",
          "type": "address"
        },
        {
          "internalType": "uint256",
          "name": "",
          "type": "uint256"
        }
      ],
      "name": "providerApplications",
      "outputs": [
        {
          "internalType": "uint256",
          "name": "",
          "type": "uint256"
        }
      ],
      "stateMutability": "view",
      "type": "function"
    },
    {
      "inputs": [],
      "name": "renounceOwnership",
      "outputs": [],
      "stateMutability": "nonpayable",
      "type": "function"
    },
    {
      "inputs": [
        {
          "internalType": "uint256",
          "name": "_serviceId",
          "type": "uint256"
        },
        {
          "internalType": "bool",
          "name": "_approve",
          "type": "bool"
        }
      ],
      "name": "resolveDispute",
      "outputs": [],
      "stateMutability": "nonpayable",
      "type": "function"
    },
    {
      "inputs": [
        {
          "internalType": "address",
          "name": "",
          "type": "address"
        }
      ],
      "name": "roles",
      "outputs": [
        {
          "internalType": "enum Marketplace.Role",
          "name": "",
          "type": "uint8"
        }
      ],
      "stateMutability": "view",
      "type": "function"
    },
    {
      "inputs": [
        {
          "internalType": "uint256",
          "name": "",
          "type": "uint256"
        }
      ],
      "name": "services",
      "outputs": [
        {
          "internalType": "uint256",
          "name": "id",
          "type": "uint256"
        },
        {
          "internalType": "address",
          "name": "client",
          "type": "address"
        },
        {
          "internalType": "address",
          "name": "provider",
          "type": "address"
        },
        {
          "internalType": "uint256",
          "name": "price",
          "type": "uint256"
        },
        {
          "internalType": "enum Marketplace.ServiceState",
          "name": "state",
          "type": "uint8"
        },
        {
          "internalType": "string",
          "name": "description",
          "type": "string"
        }
      ],
      "stateMutability": "view",
      "type": "function"
    },
    {
      "inputs": [
        {
          "internalType": "address",
          "name": "user",
          "type": "address"
        },
        {
          "internalType": "enum Marketplace.Role",
          "name": "role",
          "type": "uint8"
        }
      ],
      "name": "setRole",
      "outputs": [],
      "stateMutability": "nonpayable",
      "type": "function"
    },
    {
      "inputs": [
        {
          "internalType": "address",
          "name": "newOwner",
          "type": "address"
        }
      ],
      "name": "transferOwnership",
      "outputs": [],
      "stateMutability": "nonpayable",
      "type": "function"
    }
  ],
  "bytecode": "0x608060405234801561001057600080fd5b5033600073ffffffffffffffffffffffffffffffffffffffff168173ffffffffffffffffffffffffffffffffffffffff16036100845760006040517f1e4fbdf700000000000000000000000000000000000000000000000000000000815260040161007b919061019e565b60405180910390fd5b6100938161009960201b60201c565b506101b9565b60008060009054906101000a900473ffffffffffffffffffffffffffffffffffffffff169050816000806101000a81548173ffffffffffffffffffffffffffffffffffffffff021916908373ffffffffffffffffffffffffffffffffffffffff1602179055508173ffffffffffffffffffffffffffffffffffffffff168173ffffffffffffffffffffffffffffffffffffffff167f8be0079c531659141344cd1fd0a4f28419497f9722a3daafe3b4186f6b6457e060405160405180910390a35050565b600073ffffffffffffffffffffffffffffffffffffffff82169050919050565b60006101888261015d565b9050919050565b6101988161017d565b82525050565b60006020820190506101b3600083018461018f565b92915050565b6140d4806101c86000396000f3fe6080604052600436106101405760003560e01c806383f67f6e116100b6578063de43790f1161006f578063de43790f14610473578063ef0e239b1461049c578063f2fde38b146104d9578063f5673c8c14610502578063f6c53d9b1461051e578063fadd2b691461054957610140565b806383f67f6e146103265780638af9f5b91461034f5780638da5cb5b1461038c57806399374642146103b7578063acc16db5146103f4578063c22c4f431461043157610140565b8063571c3e6011610108578063571c3e6014610214578063715018a61461023d5780637602578d146102545780637a870b631461027f5780637c7ca621146102c0578063832a05b7146102e957610140565b80630cc41e871461014557806321c8bafe1461016e57806334b25ee2146101975780633b4b8bad146101c057806352578012146101eb575b600080fd5b34801561015157600080fd5b5061016c60048036038101906101679190612da9565b610586565b005b34801561017a57600080fd5b5061019560048036038101906101909190612da9565b6107db565b005b3480156101a357600080fd5b506101be60048036038101906101b99190612e0e565b610ac4565b005b3480156101cc57600080fd5b506101d5610df5565b6040516101e291906130f0565b60405180910390f35b3480156101f757600080fd5b50610212600480360381019061020d9190613247565b61109f565b005b34801561022057600080fd5b5061023b600480360381019061023691906132e1565b611330565b005b34801561024957600080fd5b506102526113a3565b005b34801561026057600080fd5b506102696113b7565b60405161027691906130f0565b60405180910390f35b34801561028b57600080fd5b506102a660048036038101906102a19190613321565b611661565b6040516102b79594939291906133d8565b60405180910390f35b3480156102cc57600080fd5b506102e760048036038101906102e29190613432565b611769565b005b3480156102f557600080fd5b50610310600480360381019061030b9190613321565b611a77565b60405161031d9190613526565b60405180910390f35b34801561033257600080fd5b5061034d60048036038101906103489190613321565b611c34565b005b34801561035b57600080fd5b5061037660048036038101906103719190613548565b6121ba565b6040516103839190613624565b60405180910390f35b34801561039857600080fd5b506103a1612251565b6040516103ae9190613646565b60405180910390f35b3480156103c357600080fd5b506103de60048036038101906103d99190613548565b61227a565b6040516103eb91906136a9565b60405180910390f35b34801561040057600080fd5b5061041b600480360381019061041691906136c4565b61229a565b6040516104289190613704565b60405180910390f35b34801561043d57600080fd5b5061045860048036038101906104539190612da9565b6122cb565b60405161046a9695949392919061372e565b60405180910390f35b34801561047f57600080fd5b5061049a60048036038101906104959190612da9565b6123dc565b005b3480156104a857600080fd5b506104c360048036038101906104be9190612da9565b612632565b6040516104d0919061381f565b60405180910390f35b3480156104e557600080fd5b5061050060048036038101906104fb9190613548565b6127ec565b005b61051c60048036038101906105179190612da9565b612872565b005b34801561052a57600080fd5b50610533612b2b565b6040516105409190613704565b60405180910390f35b34801561055557600080fd5b50610570600480360381019061056b9190612da9565b612b31565b60405161057d9190613704565b60405180910390f35b600280600381111561059b5761059a612eca565b5b600160003373ffffffffffffffffffffffffffffffffffffffff1673ffffffffffffffffffffffffffffffffffffffff16815260200190815260200160002060009054906101000a900460ff1660038111156105fa576105f9612eca565b5b1461063a576040517f08c379a00000000000000000000000000000000000000000000000000000000081526004016106319061388d565b60405180910390fd5b8160028060068111156106505761064f612eca565b5b6003600084815260200190815260200160002060040160009054906101000a900460ff16600681111561068657610685612eca565b5b146106c6576040517f08c379a00000000000000000000000000000000000000000000000000000000081526004016106bd906138f9565b60405180910390fd5b3373ffffffffffffffffffffffffffffffffffffffff166003600086815260200190815260200160002060020160009054906101000a900473ffffffffffffffffffffffffffffffffffffffff1673ffffffffffffffffffffffffffffffffffffffff161461076a576040517f08c379a00000000000000000000000000000000000000000000000000000000081526004016107619061398b565b60405180910390fd5b600380600086815260200190815260200160002060040160006101000a81548160ff021916908360068111156107a3576107a2612eca565b5b0217905550837fd29ce5f095d5f3c26a962bb3d1fb4fde5340fa5cae3da360236dd700ca46ce8a60405160405180910390a250505050565b60018060038111156107f0576107ef612eca565b5b600160003373ffffffffffffffffffffffffffffffffffffffff1673ffffffffffffffffffffffffffffffffffffffff16815260200190815260200160002060009054906101000a900460ff16600381111561084f5761084e612eca565b5b1461088f576040517f08c379a00000000000000000000000000000000000000000000000000000000081526004016108869061388d565b60405180910390fd5b8160038060068111156108a5576108a4612eca565b5b6003600084815260200190815260200160002060040160009054906101000a900460ff1660068111156108db576108da612eca565b5b1461091b576040517f08c379a0000000000000000000000000000000000000000000000000000000008152600401610912906138f9565b60405180910390fd5b3373ffffffffffffffffffffffffffffffffffffffff166003600086815260200190815260200160002060010160009054906101000a900473ffffffffffffffffffffffffffffffffffffffff1673ffffffffffffffffffffffffffffffffffffffff16146109bf576040517f08c379a00000000000000000000000000000000000000000000000000000000081526004016109b6906139f7565b60405180910390fd5b60046003600086815260200190815260200160002060040160006101000a81548160ff021916908360068111156109f9576109f8612eca565b5b02179055506003600085815260200190815260200160002060020160009054906101000a900473ffffffffffffffffffffffffffffffffffffffff1673ffffffffffffffffffffffffffffffffffffffff166108fc60036000878152602001908152602001600020600301549081150290604051600060405180830381858888f19350505050158015610a90573d6000803e3d6000fd5b50837f7095a954dc58d088b11d7fadb23f8a211f4b0fa82210838ea4984cfc76a9286e60405160405180910390a250505050565b6003806003811115610ad957610ad8612eca565b5b600160003373ffffffffffffffffffffffffffffffffffffffff1673ffffffffffffffffffffffffffffffffffffffff16815260200190815260200160002060009054906101000a900460ff166003811115610b3857610b37612eca565b5b14610b78576040517f08c379a0000000000000000000000000000000000000000000000000000000008152600401610b6f9061388d565b60405180910390fd5b826005806006811115610b8e57610b8d612eca565b5b6003600084815260200190815260200160002060040160009054906101000a900460ff166006811115610bc457610bc3612eca565b5b14610c04576040517f08c379a0000000000000000000000000000000000000000000000000000000008152600401610bfb906138f9565b60405180910390fd5b8315610ce15760046003600087815260200190815260200160002060040160006101000a81548160ff02191690836006811115610c4457610c43612eca565b5b02179055506003600086815260200190815260200160002060020160009054906101000a900473ffffffffffffffffffffffffffffffffffffffff1673ffffffffffffffffffffffffffffffffffffffff166108fc60036000888152602001908152602001600020600301549081150290604051600060405180830381858888f19350505050158015610cdb573d6000803e3d6000fd5b50610db4565b60066003600087815260200190815260200160002060040160006101000a81548160ff02191690836006811115610d1b57610d1a612eca565b5b02179055506003600086815260200190815260200160002060010160009054906101000a900473ffffffffffffffffffffffffffffffffffffffff1673ffffffffffffffffffffffffffffffffffffffff166108fc60036000888152602001908152602001600020600301549081150290604051600060405180830381858888f19350505050158015610db2573d6000803e3d6000fd5b505b847ffb43a92744861f817ee428589229c8e92d505379ac1b4af5b7cdbc67be799f123386604051610de6929190613a17565b60405180910390a25050505050565b6060600060025467ffffffffffffffff811115610e1557610e1461311c565b5b604051908082528060200260200182016040528015610e4e57816020015b610e3b612ca4565b815260200190600190039081610e335790505b5090506000805b6002548110156110935760026006811115610e7357610e72612eca565b5b6003600083815260200190815260200160002060040160009054906101000a900460ff166006811115610ea957610ea8612eca565b5b0361108657600360008281526020019081526020016000206040518060c0016040529081600082015481526020016001820160009054906101000a900473ffffffffffffffffffffffffffffffffffffffff1673ffffffffffffffffffffffffffffffffffffffff1673ffffffffffffffffffffffffffffffffffffffff1681526020016002820160009054906101000a900473ffffffffffffffffffffffffffffffffffffffff1673ffffffffffffffffffffffffffffffffffffffff1673ffffffffffffffffffffffffffffffffffffffff168152602001600382015481526020016004820160009054906101000a900460ff166006811115610fb157610fb0612eca565b5b6006811115610fc357610fc2612eca565b5b8152602001600582018054610fd790613a6f565b80601f016020809104026020016040519081016040528092919081815260200182805461100390613a6f565b80156110505780601f1061102557610100808354040283529160200191611050565b820191906000526020600020905b81548152906001019060200180831161103357829003601f168201915b50505050508152505083838151811061106c5761106b613aa0565b5b6020026020010181905250818061108290613afe565b9250505b8080600101915050610e55565b50808252819250505090565b60018060038111156110b4576110b3612eca565b5b600160003373ffffffffffffffffffffffffffffffffffffffff1673ffffffffffffffffffffffffffffffffffffffff16815260200190815260200160002060009054906101000a900460ff16600381111561111357611112612eca565b5b14611153576040517f08c379a000000000000000000000000000000000000000000000000000000000815260040161114a9061388d565b60405180910390fd5b6040518060c0016040528060025481526020013373ffffffffffffffffffffffffffffffffffffffff168152602001600073ffffffffffffffffffffffffffffffffffffffff16815260200160008152602001600060068111156111ba576111b9612eca565b5b8152602001838152506003600060025481526020019081526020016000206000820151816000015560208201518160010160006101000a81548173ffffffffffffffffffffffffffffffffffffffff021916908373ffffffffffffffffffffffffffffffffffffffff16021790555060408201518160020160006101000a81548173ffffffffffffffffffffffffffffffffffffffff021916908373ffffffffffffffffffffffffffffffffffffffff1602179055506060820151816003015560808201518160040160006101000a81548160ff021916908360068111156112a5576112a4612eca565b5b021790555060a08201518160050190816112bf9190613cf2565b509050503373ffffffffffffffffffffffffffffffffffffffff166002547f4f61262ead34b30298acaceb42f0ef8c5d6fa3a7568847ea9ee1cc6d9fd1664f8460405161130c9190613dc4565b60405180910390a36002600081548092919061132790613afe565b91905055505050565b611338612b51565b80600160008473ffffffffffffffffffffffffffffffffffffffff1673ffffffffffffffffffffffffffffffffffffffff16815260200190815260200160002060006101000a81548160ff0219169083600381111561139a57611399612eca565b5b02179055505050565b6113ab612b51565b6113b56000612bd8565b565b6060600060025467ffffffffffffffff8111156113d7576113d661311c565b5b60405190808252806020026020018201604052801561141057816020015b6113fd612ca4565b8152602001906001900390816113f55790505b5090506000805b600254811015611655576000600681111561143557611434612eca565b5b6003600083815260200190815260200160002060040160009054906101000a900460ff16600681111561146b5761146a612eca565b5b0361164857600360008281526020019081526020016000206040518060c0016040529081600082015481526020016001820160009054906101000a900473ffffffffffffffffffffffffffffffffffffffff1673ffffffffffffffffffffffffffffffffffffffff1673ffffffffffffffffffffffffffffffffffffffff1681526020016002820160009054906101000a900473ffffffffffffffffffffffffffffffffffffffff1673ffffffffffffffffffffffffffffffffffffffff1673ffffffffffffffffffffffffffffffffffffffff168152602001600382015481526020016004820160009054906101000a900460ff16600681111561157357611572612eca565b5b600681111561158557611584612eca565b5b815260200160058201805461159990613a6f565b80601f01602080910402602001604051908101604052809291908181526020018280546115c590613a6f565b80156116125780601f106115e757610100808354040283529160200191611612565b820191906000526020600020905b8154815290600101906020018083116115f557829003601f168201915b50505050508152505083838151811061162e5761162d613aa0565b5b6020026020010181905250818061164490613afe565b9250505b8080600101915050611417565b50808252819250505090565b6004602052816000526040600020818154811061167d57600080fd5b9060005260206000209060050201600091509150508060000160009054906101000a900473ffffffffffffffffffffffffffffffffffffffff16908060010154908060020180546116cd90613a6f565b80601f01602080910402602001604051908101604052809291908181526020018280546116f990613a6f565b80156117465780601f1061171b57610100808354040283529160200191611746565b820191906000526020600020905b81548152906001019060200180831161172957829003601f168201915b5050505050908060030154908060040160009054906101000a900460ff16905085565b600280600381111561177e5761177d612eca565b5b600160003373ffffffffffffffffffffffffffffffffffffffff1673ffffffffffffffffffffffffffffffffffffffff16815260200190815260200160002060009054906101000a900460ff1660038111156117dd576117dc612eca565b5b1461181d576040517f08c379a00000000000000000000000000000000000000000000000000000000081526004016118149061388d565b60405180910390fd5b83600080600681111561183357611832612eca565b5b6003600084815260200190815260200160002060040160009054906101000a900460ff16600681111561186957611868612eca565b5b146118a9576040517f08c379a00000000000000000000000000000000000000000000000000000000081526004016118a0906138f9565b60405180910390fd5b600460008781526020019081526020016000206040518060a001604052803373ffffffffffffffffffffffffffffffffffffffff16815260200188815260200187815260200186815260200160001515815250908060018154018082558091505060019003906000526020600020906005020160009091909190915060008201518160000160006101000a81548173ffffffffffffffffffffffffffffffffffffffff021916908373ffffffffffffffffffffffffffffffffffffffff16021790555060208201518160010155604082015181600201908161198b9190613cf2565b506060820151816003015560808201518160040160006101000a81548160ff0219169083151502179055505050600560003373ffffffffffffffffffffffffffffffffffffffff1673ffffffffffffffffffffffffffffffffffffffff1681526020019081526020016000208690806001815401808255809150506001900390600052602060002001600090919091909150553373ffffffffffffffffffffffffffffffffffffffff16867fe6179624bbd7a2bb80c50cd68c9df1503f275824d80100032264b5fab04f08cd8787604051611a67929190613de6565b60405180910390a3505050505050565b611a7f612d18565b60046000848152602001908152602001600020805490508210611ad7576040517f08c379a0000000000000000000000000000000000000000000000000000000008152600401611ace90613e62565b60405180910390fd5b600460008481526020019081526020016000208281548110611afc57611afb613aa0565b5b90600052602060002090600502016040518060a00160405290816000820160009054906101000a900473ffffffffffffffffffffffffffffffffffffffff1673ffffffffffffffffffffffffffffffffffffffff1673ffffffffffffffffffffffffffffffffffffffff16815260200160018201548152602001600282018054611b8590613a6f565b80601f0160208091040260200160405190810160405280929190818152602001828054611bb190613a6f565b8015611bfe5780601f10611bd357610100808354040283529160200191611bfe565b820191906000526020600020905b815481529060010190602001808311611be157829003601f168201915b50505050508152602001600382015481526020016004820160009054906101000a900460ff161515151581525050905092915050565b6001806003811115611c4957611c48612eca565b5b600160003373ffffffffffffffffffffffffffffffffffffffff1673ffffffffffffffffffffffffffffffffffffffff16815260200190815260200160002060009054906101000a900460ff166003811115611ca857611ca7612eca565b5b14611ce8576040517f08c379a0000000000000000000000000000000000000000000000000000000008152600401611cdf9061388d565b60405180910390fd5b826000806006811115611cfe57611cfd612eca565b5b6003600084815260200190815260200160002060040160009054906101000a900460ff166006811115611d3457611d33612eca565b5b14611d74576040517f08c379a0000000000000000000000000000000000000000000000000000000008152600401611d6b906138f9565b60405180910390fd5b3373ffffffffffffffffffffffffffffffffffffffff166003600087815260200190815260200160002060010160009054906101000a900473ffffffffffffffffffffffffffffffffffffffff1673ffffffffffffffffffffffffffffffffffffffff1614611e18576040517f08c379a0000000000000000000000000000000000000000000000000000000008152600401611e0f90613ece565b60405180910390fd5b60046000868152602001908152602001600020805490508410611e70576040517f08c379a0000000000000000000000000000000000000000000000000000000008152600401611e6790613f3a565b60405180910390fd5b6000600460008781526020019081526020016000208581548110611e9757611e96613aa0565b5b906000526020600020906005020190508060040160009054906101000a900460ff1615611ef9576040517f08c379a0000000000000000000000000000000000000000000000000000000008152600401611ef090613fa6565b60405180910390fd5b60026003811115611f0d57611f0c612eca565b5b600160008360000160009054906101000a900473ffffffffffffffffffffffffffffffffffffffff1673ffffffffffffffffffffffffffffffffffffffff1673ffffffffffffffffffffffffffffffffffffffff16815260200190815260200160002060009054906101000a900460ff166003811115611f9057611f8f612eca565b5b14611fd0576040517f08c379a0000000000000000000000000000000000000000000000000000000008152600401611fc790614012565b60405180910390fd5b60018160040160006101000a81548160ff0219169083151502179055508060000160009054906101000a900473ffffffffffffffffffffffffffffffffffffffff166003600088815260200190815260200160002060020160006101000a81548173ffffffffffffffffffffffffffffffffffffffff021916908373ffffffffffffffffffffffffffffffffffffffff1602179055508060030154600360008881526020019081526020016000206003018190555060016003600088815260200190815260200160002060040160006101000a81548160ff021916908360068111156120bf576120be612eca565b5b02179055508060000160009054906101000a900473ffffffffffffffffffffffffffffffffffffffff1673ffffffffffffffffffffffffffffffffffffffff16867fe32571039ef324a825426dd5cdeae5b999f541d42d305cff5d7aec821280d82b83600301546040516121339190613704565b60405180910390a38060000160009054906101000a900473ffffffffffffffffffffffffffffffffffffffff1673ffffffffffffffffffffffffffffffffffffffff16867fdf8c2fe8b2695fafbafd0ef6c88254c7a9078aa98dad9a4b927d3d43c87260e983600301546040516121aa9190613704565b60405180910390a3505050505050565b6060600560008373ffffffffffffffffffffffffffffffffffffffff1673ffffffffffffffffffffffffffffffffffffffff16815260200190815260200160002080548060200260200160405190810160405280929190818152602001828054801561224557602002820191906000526020600020905b815481526020019060010190808311612231575b50505050509050919050565b60008060009054906101000a900473ffffffffffffffffffffffffffffffffffffffff16905090565b60016020528060005260406000206000915054906101000a900460ff1681565b600560205281600052604060002081815481106122b657600080fd5b90600052602060002001600091509150505481565b60036020528060005260406000206000915090508060000154908060010160009054906101000a900473ffffffffffffffffffffffffffffffffffffffff16908060020160009054906101000a900473ffffffffffffffffffffffffffffffffffffffff16908060030154908060040160009054906101000a900460ff169080600501805461235990613a6f565b80601f016020809104026020016040519081016040528092919081815260200182805461238590613a6f565b80156123d25780601f106123a7576101008083540402835291602001916123d2565b820191906000526020600020905b8154815290600101906020018083116123b557829003601f168201915b5050505050905086565b60018060038111156123f1576123f0612eca565b5b600160003373ffffffffffffffffffffffffffffffffffffffff1673ffffffffffffffffffffffffffffffffffffffff16815260200190815260200160002060009054906101000a900460ff1660038111156124505761244f612eca565b5b14612490576040517f08c379a00000000000000000000000000000000000000000000000000000000081526004016124879061388d565b60405180910390fd5b8160038060068111156124a6576124a5612eca565b5b6003600084815260200190815260200160002060040160009054906101000a900460ff1660068111156124dc576124db612eca565b5b1461251c576040517f08c379a0000000000000000000000000000000000000000000000000000000008152600401612513906138f9565b60405180910390fd5b3373ffffffffffffffffffffffffffffffffffffffff166003600086815260200190815260200160002060010160009054906101000a900473ffffffffffffffffffffffffffffffffffffffff1673ffffffffffffffffffffffffffffffffffffffff16146125c0576040517f08c379a00000000000000000000000000000000000000000000000000000000081526004016125b7906139f7565b60405180910390fd5b60056003600086815260200190815260200160002060040160006101000a81548160ff021916908360068111156125fa576125f9612eca565b5b0217905550837ff0a617b1186156fdc2fde56d7cb28e70d80ff02648ba33a7690d4ab412cab8cd60405160405180910390a250505050565b61263a612ca4565b600360008381526020019081526020016000206040518060c0016040529081600082015481526020016001820160009054906101000a900473ffffffffffffffffffffffffffffffffffffffff1673ffffffffffffffffffffffffffffffffffffffff1673ffffffffffffffffffffffffffffffffffffffff1681526020016002820160009054906101000a900473ffffffffffffffffffffffffffffffffffffffff1673ffffffffffffffffffffffffffffffffffffffff1673ffffffffffffffffffffffffffffffffffffffff168152602001600382015481526020016004820160009054906101000a900460ff16600681111561273d5761273c612eca565b5b600681111561274f5761274e612eca565b5b815260200160058201805461276390613a6f565b80601f016020809104026020016040519081016040528092919081815260200182805461278f90613a6f565b80156127dc5780601f106127b1576101008083540402835291602001916127dc565b820191906000526020600020905b8154815290600101906020018083116127bf57829003601f168201915b5050505050815250509050919050565b6127f4612b51565b600073ffffffffffffffffffffffffffffffffffffffff168173ffffffffffffffffffffffffffffffffffffffff16036128665760006040517f1e4fbdf700000000000000000000000000000000000000000000000000000000815260040161285d9190613646565b60405180910390fd5b61286f81612bd8565b50565b600180600381111561288757612886612eca565b5b600160003373ffffffffffffffffffffffffffffffffffffffff1673ffffffffffffffffffffffffffffffffffffffff16815260200190815260200160002060009054906101000a900460ff1660038111156128e6576128e5612eca565b5b14612926576040517f08c379a000000000000000000000000000000000000000000000000000000000815260040161291d9061388d565b60405180910390fd5b81600180600681111561293c5761293b612eca565b5b6003600084815260200190815260200160002060040160009054906101000a900460ff16600681111561297257612971612eca565b5b146129b2576040517f08c379a00000000000000000000000000000000000000000000000000000000081526004016129a9906138f9565b60405180910390fd5b60036000858152602001908152602001600020600301543414612a0a576040517f08c379a0000000000000000000000000000000000000000000000000000000008152600401612a019061407e565b60405180910390fd5b3373ffffffffffffffffffffffffffffffffffffffff166003600086815260200190815260200160002060010160009054906101000a900473ffffffffffffffffffffffffffffffffffffffff1673ffffffffffffffffffffffffffffffffffffffff1614612aae576040517f08c379a0000000000000000000000000000000000000000000000000000000008152600401612aa590613ece565b60405180910390fd5b60026003600086815260200190815260200160002060040160006101000a81548160ff02191690836006811115612ae857612ae7612eca565b5b0217905550837f0c438ca092a105cef6f62094945dc7822277b3450b3ec1ab2a6fe1a680df8d8d34604051612b1d9190613704565b60405180910390a250505050565b60025481565b600060046000838152602001908152602001600020805490509050919050565b612b59612c9c565b73ffffffffffffffffffffffffffffffffffffffff16612b77612251565b73ffffffffffffffffffffffffffffffffffffffff1614612bd657612b9a612c9c565b6040517f118cdaa7000000000000000000000000000000000000000000000000000000008152600401612bcd9190613646565b60405180910390fd5b565b60008060009054906101000a900473ffffffffffffffffffffffffffffffffffffffff169050816000806101000a81548173ffffffffffffffffffffffffffffffffffffffff021916908373ffffffffffffffffffffffffffffffffffffffff1602179055508173ffffffffffffffffffffffffffffffffffffffff168173ffffffffffffffffffffffffffffffffffffffff167f8be0079c531659141344cd1fd0a4f28419497f9722a3daafe3b4186f6b6457e060405160405180910390a35050565b600033905090565b6040518060c0016040528060008152602001600073ffffffffffffffffffffffffffffffffffffffff168152602001600073ffffffffffffffffffffffffffffffffffffffff1681526020016000815260200160006006811115612d0b57612d0a612eca565b5b8152602001606081525090565b6040518060a00160405280600073ffffffffffffffffffffffffffffffffffffffff1681526020016000815260200160608152602001600081526020016000151581525090565b6000604051905090565b600080fd5b600080fd5b6000819050919050565b612d8681612d73565b8114612d9157600080fd5b50565b600081359050612da381612d7d565b92915050565b600060208284031215612dbf57612dbe612d69565b5b6000612dcd84828501612d94565b91505092915050565b60008115159050919050565b612deb81612dd6565b8114612df657600080fd5b50565b600081359050612e0881612de2565b92915050565b60008060408385031215612e2557612e24612d69565b5b6000612e3385828601612d94565b9250506020612e4485828601612df9565b9150509250929050565b600081519050919050565b600082825260208201905092915050565b6000819050602082019050919050565b612e8381612d73565b82525050565b600073ffffffffffffffffffffffffffffffffffffffff82169050919050565b6000612eb482612e89565b9050919050565b612ec481612ea9565b82525050565b7f4e487b7100000000000000000000000000000000000000000000000000000000600052602160045260246000fd5b60078110612f0a57612f09612eca565b5b50565b6000819050612f1b82612ef9565b919050565b6000612f2b82612f0d565b9050919050565b612f3b81612f20565b82525050565b600081519050919050565b600082825260208201905092915050565b60005b83811015612f7b578082015181840152602081019050612f60565b60008484015250505050565b6000601f19601f8301169050919050565b6000612fa382612f41565b612fad8185612f4c565b9350612fbd818560208601612f5d565b612fc681612f87565b840191505092915050565b600060c083016000830151612fe96000860182612e7a565b506020830151612ffc6020860182612ebb565b50604083015161300f6040860182612ebb565b5060608301516130226060860182612e7a565b5060808301516130356080860182612f32565b5060a083015184820360a086015261304d8282612f98565b9150508091505092915050565b60006130668383612fd1565b905092915050565b6000602082019050919050565b600061308682612e4e565b6130908185612e59565b9350836020820285016130a285612e6a565b8060005b858110156130de57848403895281516130bf858261305a565b94506130ca8361306e565b925060208a019950506001810190506130a6565b50829750879550505050505092915050565b6000602082019050818103600083015261310a818461307b565b905092915050565b600080fd5b600080fd5b7f4e487b7100000000000000000000000000000000000000000000000000000000600052604160045260246000fd5b61315482612f87565b810181811067ffffffffffffffff821117156131735761317261311c565b5b80604052505050565b6000613186612d5f565b9050613192828261314b565b919050565b600067ffffffffffffffff8211156131b2576131b161311c565b5b6131bb82612f87565b9050602081019050919050565b82818337600083830152505050565b60006131ea6131e584613197565b61317c565b90508281526020810184848401111561320657613205613117565b5b6132118482856131c8565b509392505050565b600082601f83011261322e5761322d613112565b5b813561323e8482602086016131d7565b91505092915050565b60006020828403121561325d5761325c612d69565b5b600082013567ffffffffffffffff81111561327b5761327a612d6e565b5b61328784828501613219565b91505092915050565b61329981612ea9565b81146132a457600080fd5b50565b6000813590506132b681613290565b92915050565b600481106132c957600080fd5b50565b6000813590506132db816132bc565b92915050565b600080604083850312156132f8576132f7612d69565b5b6000613306858286016132a7565b9250506020613317858286016132cc565b9150509250929050565b6000806040838503121561333857613337612d69565b5b600061334685828601612d94565b925050602061335785828601612d94565b9150509250929050565b61336a81612ea9565b82525050565b61337981612d73565b82525050565b600082825260208201905092915050565b600061339b82612f41565b6133a5818561337f565b93506133b5818560208601612f5d565b6133be81612f87565b840191505092915050565b6133d281612dd6565b82525050565b600060a0820190506133ed6000830188613361565b6133fa6020830187613370565b818103604083015261340c8186613390565b905061341b6060830185613370565b61342860808301846133c9565b9695505050505050565b60008060006060848603121561344b5761344a612d69565b5b600061345986828701612d94565b935050602084013567ffffffffffffffff81111561347a57613479612d6e565b5b61348686828701613219565b925050604061349786828701612d94565b9150509250925092565b6134aa81612dd6565b82525050565b600060a0830160008301516134c86000860182612ebb565b5060208301516134db6020860182612e7a565b50604083015184820360408601526134f38282612f98565b91505060608301516135086060860182612e7a565b50608083015161351b60808601826134a1565b508091505092915050565b6000602082019050818103600083015261354081846134b0565b905092915050565b60006020828403121561355e5761355d612d69565b5b600061356c848285016132a7565b91505092915050565b600081519050919050565b600082825260208201905092915050565b6000819050602082019050919050565b60006135ad8383612e7a565b60208301905092915050565b6000602082019050919050565b60006135d182613575565b6135db8185613580565b93506135e683613591565b8060005b838110156136175781516135fe88826135a1565b9750613609836135b9565b9250506001810190506135ea565b5085935050505092915050565b6000602082019050818103600083015261363e81846135c6565b905092915050565b600060208201905061365b6000830184613361565b92915050565b6004811061367257613671612eca565b5b50565b600081905061368382613661565b919050565b600061369382613675565b9050919050565b6136a381613688565b82525050565b60006020820190506136be600083018461369a565b92915050565b600080604083850312156136db576136da612d69565b5b60006136e9858286016132a7565b92505060206136fa85828601612d94565b9150509250929050565b60006020820190506137196000830184613370565b92915050565b61372881612f20565b82525050565b600060c0820190506137436000830189613370565b6137506020830188613361565b61375d6040830187613361565b61376a6060830186613370565b613777608083018561371f565b81810360a08301526137898184613390565b9050979650505050505050565b600060c0830160008301516137ae6000860182612e7a565b5060208301516137c16020860182612ebb565b5060408301516137d46040860182612ebb565b5060608301516137e76060860182612e7a565b5060808301516137fa6080860182612f32565b5060a083015184820360a08601526138128282612f98565b9150508091505092915050565b600060208201905081810360008301526138398184613796565b905092915050565b7f556e617574686f72697a656420726f6c65000000000000000000000000000000600082015250565b600061387760118361337f565b915061388282613841565b602082019050919050565b600060208201905081810360008301526138a68161386a565b9050919050565b7f496e76616c696420737461746520666f72207468697320616374696f6e000000600082015250565b60006138e3601d8361337f565b91506138ee826138ad565b602082019050919050565b60006020820190508181036000830152613912816138d6565b9050919050565b7f596f7520617265206e6f742061737369676e656420746f20746869732073657260008201527f7669636500000000000000000000000000000000000000000000000000000000602082015250565b600061397560248361337f565b915061398082613919565b604082019050919050565b600060208201905081810360008301526139a481613968565b9050919050565b7f596f7520617265206e6f742074686520636c69656e7400000000000000000000600082015250565b60006139e160168361337f565b91506139ec826139ab565b602082019050919050565b60006020820190508181036000830152613a10816139d4565b9050919050565b6000604082019050613a2c6000830185613361565b613a3960208301846133c9565b9392505050565b7f4e487b7100000000000000000000000000000000000000000000000000000000600052602260045260246000fd5b60006002820490506001821680613a8757607f821691505b602082108103613a9a57613a99613a40565b5b50919050565b7f4e487b7100000000000000000000000000000000000000000000000000000000600052603260045260246000fd5b7f4e487b7100000000000000000000000000000000000000000000000000000000600052601160045260246000fd5b6000613b0982612d73565b91507fffffffffffffffffffffffffffffffffffffffffffffffffffffffffffffffff8203613b3b57613b3a613acf565b5b600182019050919050565b60008190508160005260206000209050919050565b60006020601f8301049050919050565b600082821b905092915050565b600060088302613ba87fffffffffffffffffffffffffffffffffffffffffffffffffffffffffffffffff82613b6b565b613bb28683613b6b565b95508019841693508086168417925050509392505050565b6000819050919050565b6000613bef613bea613be584612d73565b613bca565b612d73565b9050919050565b6000819050919050565b613c0983613bd4565b613c1d613c1582613bf6565b848454613b78565b825550505050565b600090565b613c32613c25565b613c3d818484613c00565b505050565b5b81811015613c6157613c56600082613c2a565b600181019050613c43565b5050565b601f821115613ca657613c7781613b46565b613c8084613b5b565b81016020851015613c8f578190505b613ca3613c9b85613b5b565b830182613c42565b50505b505050565b600082821c905092915050565b6000613cc960001984600802613cab565b1980831691505092915050565b6000613ce28383613cb8565b9150826002028217905092915050565b613cfb82612f41565b67ffffffffffffffff811115613d1457613d1361311c565b5b613d1e8254613a6f565b613d29828285613c65565b600060209050601f831160018114613d5c5760008415613d4a578287015190505b613d548582613cd6565b865550613dbc565b601f198416613d6a86613b46565b60005b82811015613d9257848901518255600182019150602085019450602081019050613d6d565b86831015613daf5784890151613dab601f891682613cb8565b8355505b6001600288020188555050505b505050505050565b60006020820190508181036000830152613dde8184613390565b905092915050565b60006040820190508181036000830152613e008185613390565b9050613e0f6020830184613370565b9392505050565b7f496e76616c6964206170706c69636174696f6e20696e64657800000000000000600082015250565b6000613e4c60198361337f565b9150613e5782613e16565b602082019050919050565b60006020820190508181036000830152613e7b81613e3f565b9050919050565b7f4e6f7420746865207365727669636520636c69656e7400000000000000000000600082015250565b6000613eb860168361337f565b9150613ec382613e82565b602082019050919050565b60006020820190508181036000830152613ee781613eab565b9050919050565b7f496e76616c6964206170706c69636174696f6e00000000000000000000000000600082015250565b6000613f2460138361337f565b9150613f2f82613eee565b602082019050919050565b60006020820190508181036000830152613f5381613f17565b9050919050565b7f4170706c69636174696f6e20616c726561647920616363657074656400000000600082015250565b6000613f90601c8361337f565b9150613f9b82613f5a565b602082019050919050565b60006020820190508181036000830152613fbf81613f83565b9050919050565b7f4170706c6963616e74206973206e6f7420612070726f76696465720000000000600082015250565b6000613ffc601b8361337f565b915061400782613fc6565b602082019050919050565b6000602082019050818103600083015261402b81613fef565b9050919050565b7f496e636f72726563742045544820616d6f756e74000000000000000000000000600082015250565b600061406860148361337f565b915061407382614032565b602082019050919050565b600060208201905081810360008301526140978161405b565b905091905056fea26469706673582212206fbd68af0dcbe22b5a86631db22180b09aab6e86e4727cb11a7438fbc7ce95bd64736f6c634300081c0033",
  "linkReferences": {},
  "deployedLinkReferences": {}
}