{
  "_format": "hh-sol-artifact-1",
  "contractName": "Marketplace",
  "sourceName": "contracts/Marketplace.sol",
  "abi": [
    {
      "inputs": [],
      "stateMutability": "nonpayable",
      "type": "constructor"
    },
    {
      "inputs": [
        {
          "internalType": "address",
          "name": "owner",
          "type": "address"
        }
      ],
      "name": "OwnableInvalidOwner",
      "type": "error"
    },
    {
      "inputs": [
        {
          "internalType": "address",
          "name": "account",
          "type": "address"
        }
      ],
      "name": "OwnableUnauthorizedAccount",
      "type": "error"
    },
    {
      "anonymous": false,
      "inputs": [
        {
          "indexed": true,
          "internalType": "uint256",
          "name": "serviceId",
          "type": "uint256"
        },
        {
          "indexed": true,
          "internalType": "address",
          "name": "provider",
          "type": "address"
        },
        {
          "indexed": false,
          "internalType": "uint256",
          "name": "price",
          "type": "uint256"
        }
      ],
      "name": "ApplicationAccepted",
      "type": "event"
    },
    {
      "anonymous": false,
      "inputs": [
        {
          "indexed": true,
          "internalType": "uint256",
          "name": "serviceId",
          "type": "uint256"
        },
        {
          "indexed": true,
          "internalType": "address",
          "name": "provider",
          "type": "address"
        },
        {
          "indexed": false,
          "internalType": "string",
          "name": "proposal",
          "type": "string"
        },
        {
          "indexed": false,
          "internalType": "uint256",
          "name": "price",
          "type": "uint256"
        }
      ],
      "name": "ApplicationCreated",
      "type": "event"
    },
    {
      "anonymous": false,
      "inputs": [
        {
          "indexed": true,
          "internalType": "address",
          "name": "previousOwner",
          "type": "address"
        },
        {
          "indexed": true,
          "internalType": "address",
          "name": "newOwner",
          "type": "address"
        }
      ],
      "name": "OwnershipTransferred",
      "type": "event"
    },
    {
      "anonymous": false,
      "inputs": [
        {
          "indexed": true,
          "internalType": "uint256",
          "name": "serviceId",
          "type": "uint256"
        },
        {
          "indexed": true,
          "internalType": "address",
          "name": "provider",
          "type": "address"
        },
        {
          "indexed": false,
          "internalType": "uint256",
          "name": "price",
          "type": "uint256"
        }
      ],
      "name": "ProviderAssigned",
      "type": "event"
    },
    {
      "anonymous": false,
      "inputs": [
        {
          "indexed": true,
          "internalType": "uint256",
          "name": "serviceId",
          "type": "uint256"
        }
      ],
      "name": "ServiceApproved",
      "type": "event"
    },
    {
      "anonymous": false,
      "inputs": [
        {
          "indexed": true,
          "internalType": "uint256",
          "name": "serviceId",
          "type": "uint256"
        },
        {
          "indexed": true,
          "internalType": "address",
          "name": "client",
          "type": "address"
        },
        {
          "indexed": false,
          "internalType": "string",
          "name": "description",
          "type": "string"
        }
      ],
      "name": "ServiceCreated",
      "type": "event"
    },
    {
      "anonymous": false,
      "inputs": [
        {
          "indexed": true,
          "internalType": "uint256",
          "name": "serviceId",
          "type": "uint256"
        },
        {
          "indexed": false,
          "internalType": "string",
          "name": "deliveryDescription",
          "type": "string"
        }
      ],
      "name": "ServiceDelivered",
      "type": "event"
    },
    {
      "anonymous": false,
      "inputs": [
        {
          "indexed": true,
          "internalType": "uint256",
          "name": "serviceId",
          "type": "uint256"
        }
      ],
      "name": "ServiceDisputed",
      "type": "event"
    },
    {
      "anonymous": false,
      "inputs": [
        {
          "indexed": true,
          "internalType": "uint256",
          "name": "serviceId",
          "type": "uint256"
        },
        {
          "indexed": false,
          "internalType": "uint256",
          "name": "amount",
          "type": "uint256"
        }
      ],
      "name": "ServiceFunded",
      "type": "event"
    },
    {
      "anonymous": false,
      "inputs": [
        {
          "indexed": true,
          "internalType": "uint256",
          "name": "serviceId",
          "type": "uint256"
        },
        {
          "indexed": false,
          "internalType": "address",
          "name": "resolver",
          "type": "address"
        },
        {
          "indexed": false,
          "internalType": "bool",
          "name": "approved",
          "type": "bool"
        }
      ],
      "name": "ServiceResolved",
      "type": "event"
    },
    {
      "inputs": [
        {
          "internalType": "uint256",
          "name": "_serviceId",
          "type": "uint256"
        },
        {
          "internalType": "uint256",
          "name": "_applicationIndex",
          "type": "uint256"
        }
      ],
      "name": "acceptApplication",
      "outputs": [],
      "stateMutability": "nonpayable",
      "type": "function"
    },
    {
      "inputs": [
        {
          "internalType": "uint256",
          "name": "",
          "type": "uint256"
        },
        {
          "internalType": "uint256",
          "name": "",
          "type": "uint256"
        }
      ],
      "name": "applications",
      "outputs": [
        {
          "internalType": "address",
          "name": "provider",
          "type": "address"
        },
        {
          "internalType": "uint256",
          "name": "serviceId",
          "type": "uint256"
        },
        {
          "internalType": "string",
          "name": "proposal",
          "type": "string"
        },
        {
          "internalType": "uint256",
          "name": "price",
          "type": "uint256"
        },
        {
          "internalType": "bool",
          "name": "accepted",
          "type": "bool"
        }
      ],
      "stateMutability": "view",
      "type": "function"
    },
    {
      "inputs": [
        {
          "internalType": "uint256",
          "name": "_serviceId",
          "type": "uint256"
        },
        {
          "internalType": "string",
          "name": "_proposal",
          "type": "string"
        },
        {
          "internalType": "uint256",
          "name": "_price",
          "type": "uint256"
        }
      ],
      "name": "applyForService",
      "outputs": [],
      "stateMutability": "nonpayable",
      "type": "function"
    },
    {
      "inputs": [
        {
          "internalType": "uint256",
          "name": "_serviceId",
          "type": "uint256"
        }
      ],
      "name": "approveService",
      "outputs": [],
      "stateMutability": "nonpayable",
      "type": "function"
    },
    {
      "inputs": [
        {
          "internalType": "string",
          "name": "_description",
          "type": "string"
        }
      ],
      "name": "createService",
      "outputs": [],
      "stateMutability": "nonpayable",
      "type": "function"
    },
    {
      "inputs": [
        {
          "internalType": "uint256",
          "name": "_serviceId",
          "type": "uint256"
        },
        {
          "internalType": "string",
          "name": "_deliveryDescription",
          "type": "string"
        }
      ],
      "name": "deliverService",
      "outputs": [],
      "stateMutability": "nonpayable",
      "type": "function"
    },
    {
      "inputs": [
        {
          "internalType": "uint256",
          "name": "_serviceId",
          "type": "uint256"
        }
      ],
      "name": "disputeService",
      "outputs": [],
      "stateMutability": "nonpayable",
      "type": "function"
    },
    {
      "inputs": [
        {
          "internalType": "uint256",
          "name": "",
          "type": "uint256"
        }
      ],
      "name": "disputedServiceIds",
      "outputs": [
        {
          "internalType": "uint256",
          "name": "",
          "type": "uint256"
        }
      ],
      "stateMutability": "view",
      "type": "function"
    },
    {
      "inputs": [
        {
          "internalType": "uint256",
          "name": "_serviceId",
          "type": "uint256"
        }
      ],
      "name": "fundService",
      "outputs": [],
      "stateMutability": "payable",
      "type": "function"
    },
    {
      "inputs": [
        {
          "internalType": "uint256",
          "name": "_serviceId",
          "type": "uint256"
        },
        {
          "internalType": "uint256",
          "name": "_index",
          "type": "uint256"
        }
      ],
      "name": "getApplication",
      "outputs": [
        {
          "components": [
            {
              "internalType": "address",
              "name": "provider",
              "type": "address"
            },
            {
              "internalType": "uint256",
              "name": "serviceId",
              "type": "uint256"
            },
            {
              "internalType": "string",
              "name": "proposal",
              "type": "string"
            },
            {
              "internalType": "uint256",
              "name": "price",
              "type": "uint256"
            },
            {
              "internalType": "bool",
              "name": "accepted",
              "type": "bool"
            }
          ],
          "internalType": "struct Marketplace.Application",
          "name": "",
          "type": "tuple"
        }
      ],
      "stateMutability": "view",
      "type": "function"
    },
    {
      "inputs": [
        {
          "internalType": "uint256",
          "name": "_serviceId",
          "type": "uint256"
        }
      ],
      "name": "getApplicationCount",
      "outputs": [
        {
          "internalType": "uint256",
          "name": "",
          "type": "uint256"
        }
      ],
      "stateMutability": "view",
      "type": "function"
    },
    {
      "inputs": [],
      "name": "getDisputedServices",
      "outputs": [
        {
          "components": [
            {
              "internalType": "uint256",
              "name": "id",
              "type": "uint256"
            },
            {
              "internalType": "address",
              "name": "client",
              "type": "address"
            },
            {
              "internalType": "address",
              "name": "provider",
              "type": "address"
            },
            {
              "internalType": "uint256",
              "name": "price",
              "type": "uint256"
            },
            {
              "internalType": "enum Marketplace.ServiceState",
              "name": "state",
              "type": "uint8"
            },
            {
              "internalType": "string",
              "name": "description",
              "type": "string"
            },
            {
              "internalType": "string",
              "name": "deliveryDescription",
              "type": "string"
            }
          ],
          "internalType": "struct Marketplace.Service[]",
          "name": "",
          "type": "tuple[]"
        }
      ],
      "stateMutability": "view",
      "type": "function"
    },
    {
      "inputs": [],
      "name": "getFundedServices",
      "outputs": [
        {
          "components": [
            {
              "internalType": "uint256",
              "name": "id",
              "type": "uint256"
            },
            {
              "internalType": "address",
              "name": "client",
              "type": "address"
            },
            {
              "internalType": "address",
              "name": "provider",
              "type": "address"
            },
            {
              "internalType": "uint256",
              "name": "price",
              "type": "uint256"
            },
            {
              "internalType": "enum Marketplace.ServiceState",
              "name": "state",
              "type": "uint8"
            },
            {
              "internalType": "string",
              "name": "description",
              "type": "string"
            },
            {
              "internalType": "string",
              "name": "deliveryDescription",
              "type": "string"
            }
          ],
          "internalType": "struct Marketplace.Service[]",
          "name": "",
          "type": "tuple[]"
        }
      ],
      "stateMutability": "view",
      "type": "function"
    },
    {
      "inputs": [],
      "name": "getOpenServices",
      "outputs": [
        {
          "components": [
            {
              "internalType": "uint256",
              "name": "id",
              "type": "uint256"
            },
            {
              "internalType": "address",
              "name": "client",
              "type": "address"
            },
            {
              "internalType": "address",
              "name": "provider",
              "type": "address"
            },
            {
              "internalType": "uint256",
              "name": "price",
              "type": "uint256"
            },
            {
              "internalType": "enum Marketplace.ServiceState",
              "name": "state",
              "type": "uint8"
            },
            {
              "internalType": "string",
              "name": "description",
              "type": "string"
            },
            {
              "internalType": "string",
              "name": "deliveryDescription",
              "type": "string"
            }
          ],
          "internalType": "struct Marketplace.Service[]",
          "name": "",
          "type": "tuple[]"
        }
      ],
      "stateMutability": "view",
      "type": "function"
    },
    {
      "inputs": [
        {
          "internalType": "address",
          "name": "_provider",
          "type": "address"
        }
      ],
      "name": "getProviderApplications",
      "outputs": [
        {
          "internalType": "uint256[]",
          "name": "",
          "type": "uint256[]"
        }
      ],
      "stateMutability": "view",
      "type": "function"
    },
    {
      "inputs": [
        {
          "internalType": "uint256",
          "name": "_serviceId",
          "type": "uint256"
        }
      ],
      "name": "getService",
      "outputs": [
        {
          "components": [
            {
              "internalType": "uint256",
              "name": "id",
              "type": "uint256"
            },
            {
              "internalType": "address",
              "name": "client",
              "type": "address"
            },
            {
              "internalType": "address",
              "name": "provider",
              "type": "address"
            },
            {
              "internalType": "uint256",
              "name": "price",
              "type": "uint256"
            },
            {
              "internalType": "enum Marketplace.ServiceState",
              "name": "state",
              "type": "uint8"
            },
            {
              "internalType": "string",
              "name": "description",
              "type": "string"
            },
            {
              "internalType": "string",
              "name": "deliveryDescription",
              "type": "string"
            }
          ],
          "internalType": "struct Marketplace.Service",
          "name": "",
          "type": "tuple"
        }
      ],
      "stateMutability": "view",
      "type": "function"
    },
    {
      "inputs": [],
      "name": "nextServiceId",
      "outputs": [
        {
          "internalType": "uint256",
          "name": "",
          "type": "uint256"
        }
      ],
      "stateMutability": "view",
      "type": "function"
    },
    {
      "inputs": [],
      "name": "owner",
      "outputs": [
        {
          "internalType": "address",
          "name": "",
          "type": "address"
        }
      ],
      "stateMutability": "view",
      "type": "function"
    },
    {
      "inputs": [
        {
          "internalType": "address",
          "name": "",
          "type": "address"
        },
        {
          "internalType": "uint256",
          "name": "",
          "type": "uint256"
        }
      ],
      "name": "providerApplications",
      "outputs": [
        {
          "internalType": "uint256",
          "name": "",
          "type": "uint256"
        }
      ],
      "stateMutability": "view",
      "type": "function"
    },
    {
      "inputs": [],
      "name": "renounceOwnership",
      "outputs": [],
      "stateMutability": "nonpayable",
      "type": "function"
    },
    {
      "inputs": [
        {
          "internalType": "uint256",
          "name": "_serviceId",
          "type": "uint256"
        },
        {
          "internalType": "bool",
          "name": "_approve",
          "type": "bool"
        }
      ],
      "name": "resolveDispute",
      "outputs": [],
      "stateMutability": "nonpayable",
      "type": "function"
    },
    {
      "inputs": [
        {
          "internalType": "address",
          "name": "",
          "type": "address"
        }
      ],
      "name": "roles",
      "outputs": [
        {
          "internalType": "enum Marketplace.Role",
          "name": "",
          "type": "uint8"
        }
      ],
      "stateMutability": "view",
      "type": "function"
    },
    {
      "inputs": [
        {
          "internalType": "uint256",
          "name": "",
          "type": "uint256"
        }
      ],
      "name": "services",
      "outputs": [
        {
          "internalType": "uint256",
          "name": "id",
          "type": "uint256"
        },
        {
          "internalType": "address",
          "name": "client",
          "type": "address"
        },
        {
          "internalType": "address",
          "name": "provider",
          "type": "address"
        },
        {
          "internalType": "uint256",
          "name": "price",
          "type": "uint256"
        },
        {
          "internalType": "enum Marketplace.ServiceState",
          "name": "state",
          "type": "uint8"
        },
        {
          "internalType": "string",
          "name": "description",
          "type": "string"
        },
        {
          "internalType": "string",
          "name": "deliveryDescription",
          "type": "string"
        }
      ],
      "stateMutability": "view",
      "type": "function"
    },
    {
      "inputs": [
        {
          "internalType": "address",
          "name": "user",
          "type": "address"
        },
        {
          "internalType": "enum Marketplace.Role",
          "name": "role",
          "type": "uint8"
        }
      ],
      "name": "setRole",
      "outputs": [],
      "stateMutability": "nonpayable",
      "type": "function"
    },
    {
      "inputs": [
        {
          "internalType": "address",
          "name": "newOwner",
          "type": "address"
        }
      ],
      "name": "transferOwnership",
      "outputs": [],
      "stateMutability": "nonpayable",
      "type": "function"
    }
  ],
  "bytecode": "0x608060405234801561001057600080fd5b5033600073ffffffffffffffffffffffffffffffffffffffff168173ffffffffffffffffffffffffffffffffffffffff16036100845760006040517f1e4fbdf700000000000000000000000000000000000000000000000000000000815260040161007b919061019e565b60405180910390fd5b6100938161009960201b60201c565b506101b9565b60008060009054906101000a900473ffffffffffffffffffffffffffffffffffffffff169050816000806101000a81548173ffffffffffffffffffffffffffffffffffffffff021916908373ffffffffffffffffffffffffffffffffffffffff1602179055508173ffffffffffffffffffffffffffffffffffffffff168173ffffffffffffffffffffffffffffffffffffffff167f8be0079c531659141344cd1fd0a4f28419497f9722a3daafe3b4186f6b6457e060405160405180910390a35050565b600073ffffffffffffffffffffffffffffffffffffffff82169050919050565b60006101888261015d565b9050919050565b6101988161017d565b82525050565b60006020820190506101b3600083018461018f565b92915050565b614b4d806101c86000396000f3fe6080604052600436106101665760003560e01c80638af9f5b9116100d1578063de43790f1161008a578063f2fde38b11610064578063f2fde38b14610568578063f5673c8c14610591578063f6c53d9b146105ad578063fadd2b69146105d857610166565b8063de43790f146104c5578063dfa52b66146104ee578063ef0e239b1461052b57610166565b80638af9f5b9146103775780638da5cb5b146103b457806399374642146103df578063a3d2392c1461041c578063acc16db514610445578063c22c4f431461048257610166565b8063715018a611610123578063715018a6146102655780637602578d1461027c5780637a870b63146102a75780637c7ca621146102e8578063832a05b71461031157806383f67f6e1461034e57610166565b806321c8bafe1461016b57806334b25ee21461019457806339d61bd8146101bd5780633b4b8bad146101e85780635257801214610213578063571c3e601461023c575b600080fd5b34801561017757600080fd5b50610192600480360381019061018d919061361c565b610615565b005b3480156101a057600080fd5b506101bb60048036038101906101b69190613681565b6108fe565b005b3480156101c957600080fd5b506101d2610cf1565b6040516101df919061397d565b60405180910390f35b3480156101f457600080fd5b506101fd610fee565b60405161020a919061397d565b60405180910390f35b34801561021f57600080fd5b5061023a60048036038101906102359190613ad4565b61132a565b005b34801561024857600080fd5b50610263600480360381019061025e9190613b6e565b6115e6565b005b34801561027157600080fd5b5061027a611747565b005b34801561028857600080fd5b5061029161175b565b60405161029e919061397d565b60405180910390f35b3480156102b357600080fd5b506102ce60048036038101906102c99190613bae565b611a97565b6040516102df959493929190613c65565b60405180910390f35b3480156102f457600080fd5b5061030f600480360381019061030a9190613cbf565b611b9f565b005b34801561031d57600080fd5b5061033860048036038101906103339190613bae565b611ead565b6040516103459190613db3565b60405180910390f35b34801561035a57600080fd5b5061037560048036038101906103709190613bae565b61206a565b005b34801561038357600080fd5b5061039e60048036038101906103999190613dd5565b6125f0565b6040516103ab9190613eb1565b60405180910390f35b3480156103c057600080fd5b506103c9612687565b6040516103d69190613ed3565b60405180910390f35b3480156103eb57600080fd5b5061040660048036038101906104019190613dd5565b6126b0565b6040516104139190613f36565b60405180910390f35b34801561042857600080fd5b50610443600480360381019061043e9190613f51565b6126d0565b005b34801561045157600080fd5b5061046c60048036038101906104679190613fad565b612999565b6040516104799190613fed565b60405180910390f35b34801561048e57600080fd5b506104a960048036038101906104a4919061361c565b6129ca565b6040516104bc9796959493929190614017565b60405180910390f35b3480156104d157600080fd5b506104ec60048036038101906104e7919061361c565b612b69565b005b3480156104fa57600080fd5b506105156004803603810190610510919061361c565b612de8565b6040516105229190613fed565b60405180910390f35b34801561053757600080fd5b50610552600480360381019061054d919061361c565b612e0c565b60405161055f9190614137565b60405180910390f35b34801561057457600080fd5b5061058f600480360381019061058a9190613dd5565b613058565b005b6105ab60048036038101906105a6919061361c565b6130de565b005b3480156105b957600080fd5b506105c2613397565b6040516105cf9190613fed565b60405180910390f35b3480156105e457600080fd5b506105ff60048036038101906105fa919061361c565b61339d565b60405161060c9190613fed565b60405180910390f35b600180600381111561062a5761062961373d565b5b600160003373ffffffffffffffffffffffffffffffffffffffff1673ffffffffffffffffffffffffffffffffffffffff16815260200190815260200160002060009054906101000a900460ff1660038111156106895761068861373d565b5b146106c9576040517f08c379a00000000000000000000000000000000000000000000000000000000081526004016106c0906141a5565b60405180910390fd5b8160038060068111156106df576106de61373d565b5b6003600084815260200190815260200160002060040160009054906101000a900460ff1660068111156107155761071461373d565b5b14610755576040517f08c379a000000000000000000000000000000000000000000000000000000000815260040161074c90614211565b60405180910390fd5b3373ffffffffffffffffffffffffffffffffffffffff166003600086815260200190815260200160002060010160009054906101000a900473ffffffffffffffffffffffffffffffffffffffff1673ffffffffffffffffffffffffffffffffffffffff16146107f9576040517f08c379a00000000000000000000000000000000000000000000000000000000081526004016107f09061427d565b60405180910390fd5b60046003600086815260200190815260200160002060040160006101000a81548160ff021916908360068111156108335761083261373d565b5b02179055506003600085815260200190815260200160002060020160009054906101000a900473ffffffffffffffffffffffffffffffffffffffff1673ffffffffffffffffffffffffffffffffffffffff166108fc60036000878152602001908152602001600020600301549081150290604051600060405180830381858888f193505050501580156108ca573d6000803e3d6000fd5b50837f7095a954dc58d088b11d7fadb23f8a211f4b0fa82210838ea4984cfc76a9286e60405160405180910390a250505050565b60038060038111156109135761091261373d565b5b600160003373ffffffffffffffffffffffffffffffffffffffff1673ffffffffffffffffffffffffffffffffffffffff16815260200190815260200160002060009054906101000a900460ff1660038111156109725761097161373d565b5b146109b2576040517f08c379a00000000000000000000000000000000000000000000000000000000081526004016109a9906141a5565b60405180910390fd5b8260058060068111156109c8576109c761373d565b5b6003600084815260200190815260200160002060040160009054906101000a900460ff1660068111156109fe576109fd61373d565b5b14610a3e576040517f08c379a0000000000000000000000000000000000000000000000000000000008152600401610a3590614211565b60405180910390fd5b8315610b1b5760046003600087815260200190815260200160002060040160006101000a81548160ff02191690836006811115610a7e57610a7d61373d565b5b02179055506003600086815260200190815260200160002060020160009054906101000a900473ffffffffffffffffffffffffffffffffffffffff1673ffffffffffffffffffffffffffffffffffffffff166108fc60036000888152602001908152602001600020600301549081150290604051600060405180830381858888f19350505050158015610b15573d6000803e3d6000fd5b50610bee565b60066003600087815260200190815260200160002060040160006101000a81548160ff02191690836006811115610b5557610b5461373d565b5b02179055506003600086815260200190815260200160002060010160009054906101000a900473ffffffffffffffffffffffffffffffffffffffff1673ffffffffffffffffffffffffffffffffffffffff166108fc60036000888152602001908152602001600020600301549081150290604051600060405180830381858888f19350505050158015610bec573d6000803e3d6000fd5b505b60005b600680549050811015610caf578560068281548110610c1357610c1261429d565b5b906000526020600020015403610ca25760066001600680549050610c3791906142fb565b81548110610c4857610c4761429d565b5b906000526020600020015460068281548110610c6757610c6661429d565b5b90600052602060002001819055506006805480610c8757610c8661432f565b5b60019003818190600052602060002001600090559055610caf565b8080600101915050610bf1565b50847ffb43a92744861f817ee428589229c8e92d505379ac1b4af5b7cdbc67be799f123386604051610ce292919061435e565b60405180910390a25050505050565b6060600060068054905067ffffffffffffffff811115610d1457610d136139a9565b5b604051908082528060200260200182016040528015610d4d57816020015b610d3a613510565b815260200190600190039081610d325790505b50905060005b600680549050811015610fe6576003600060068381548110610d7857610d7761429d565b5b906000526020600020015481526020019081526020016000206040518060e0016040529081600082015481526020016001820160009054906101000a900473ffffffffffffffffffffffffffffffffffffffff1673ffffffffffffffffffffffffffffffffffffffff1673ffffffffffffffffffffffffffffffffffffffff1681526020016002820160009054906101000a900473ffffffffffffffffffffffffffffffffffffffff1673ffffffffffffffffffffffffffffffffffffffff1673ffffffffffffffffffffffffffffffffffffffff168152602001600382015481526020016004820160009054906101000a900460ff166006811115610e8157610e8061373d565b5b6006811115610e9357610e9261373d565b5b8152602001600582018054610ea7906143b6565b80601f0160208091040260200160405190810160405280929190818152602001828054610ed3906143b6565b8015610f205780601f10610ef557610100808354040283529160200191610f20565b820191906000526020600020905b815481529060010190602001808311610f0357829003601f168201915b50505050508152602001600682018054610f39906143b6565b80601f0160208091040260200160405190810160405280929190818152602001828054610f65906143b6565b8015610fb25780601f10610f8757610100808354040283529160200191610fb2565b820191906000526020600020905b815481529060010190602001808311610f9557829003601f168201915b505050505081525050828281518110610fce57610fcd61429d565b5b60200260200101819052508080600101915050610d53565b508091505090565b6060600060025467ffffffffffffffff81111561100e5761100d6139a9565b5b60405190808252806020026020018201604052801561104757816020015b611034613510565b81526020019060019003908161102c5790505b5090506000805b60025481101561131e576002600681111561106c5761106b61373d565b5b6003600083815260200190815260200160002060040160009054906101000a900460ff1660068111156110a2576110a161373d565b5b0361131157600360008281526020019081526020016000206040518060e0016040529081600082015481526020016001820160009054906101000a900473ffffffffffffffffffffffffffffffffffffffff1673ffffffffffffffffffffffffffffffffffffffff1673ffffffffffffffffffffffffffffffffffffffff1681526020016002820160009054906101000a900473ffffffffffffffffffffffffffffffffffffffff1673ffffffffffffffffffffffffffffffffffffffff1673ffffffffffffffffffffffffffffffffffffffff168152602001600382015481526020016004820160009054906101000a900460ff1660068111156111aa576111a961373d565b5b60068111156111bc576111bb61373d565b5b81526020016005820180546111d0906143b6565b80601f01602080910402602001604051908101604052809291908181526020018280546111fc906143b6565b80156112495780601f1061121e57610100808354040283529160200191611249565b820191906000526020600020905b81548152906001019060200180831161122c57829003601f168201915b50505050508152602001600682018054611262906143b6565b80601f016020809104026020016040519081016040528092919081815260200182805461128e906143b6565b80156112db5780601f106112b0576101008083540402835291602001916112db565b820191906000526020600020905b8154815290600101906020018083116112be57829003601f168201915b5050505050815250508383815181106112f7576112f661429d565b5b6020026020010181905250818061130d906143e7565b9250505b808060010191505061104e565b50808252819250505090565b600180600381111561133f5761133e61373d565b5b600160003373ffffffffffffffffffffffffffffffffffffffff1673ffffffffffffffffffffffffffffffffffffffff16815260200190815260200160002060009054906101000a900460ff16600381111561139e5761139d61373d565b5b146113de576040517f08c379a00000000000000000000000000000000000000000000000000000000081526004016113d5906141a5565b60405180910390fd5b6040518060e0016040528060025481526020013373ffffffffffffffffffffffffffffffffffffffff168152602001600073ffffffffffffffffffffffffffffffffffffffff16815260200160008152602001600060068111156114455761144461373d565b5b8152602001838152602001604051806020016040528060008152508152506003600060025481526020019081526020016000206000820151816000015560208201518160010160006101000a81548173ffffffffffffffffffffffffffffffffffffffff021916908373ffffffffffffffffffffffffffffffffffffffff16021790555060408201518160020160006101000a81548173ffffffffffffffffffffffffffffffffffffffff021916908373ffffffffffffffffffffffffffffffffffffffff1602179055506060820151816003015560808201518160040160006101000a81548160ff021916908360068111156115455761154461373d565b5b021790555060a082015181600501908161155f91906145db565b5060c082015181600601908161157591906145db565b509050503373ffffffffffffffffffffffffffffffffffffffff166002547f4f61262ead34b30298acaceb42f0ef8c5d6fa3a7568847ea9ee1cc6d9fd1664f846040516115c291906146ad565b60405180910390a3600260008154809291906115dd906143e7565b91905055505050565b6115ee6133bd565b6115f6612687565b73ffffffffffffffffffffffffffffffffffffffff168273ffffffffffffffffffffffffffffffffffffffff16036116dc576000600381111561163c5761163b61373d565b5b600160008473ffffffffffffffffffffffffffffffffffffffff1673ffffffffffffffffffffffffffffffffffffffff16815260200190815260200160002060009054906101000a900460ff16600381111561169b5761169a61373d565b5b146116db576040517f08c379a00000000000000000000000000000000000000000000000000000000081526004016116d290614741565b60405180910390fd5b5b80600160008473ffffffffffffffffffffffffffffffffffffffff1673ffffffffffffffffffffffffffffffffffffffff16815260200190815260200160002060006101000a81548160ff0219169083600381111561173e5761173d61373d565b5b02179055505050565b61174f6133bd565b6117596000613444565b565b6060600060025467ffffffffffffffff81111561177b5761177a6139a9565b5b6040519080825280602002602001820160405280156117b457816020015b6117a1613510565b8152602001906001900390816117995790505b5090506000805b600254811015611a8b57600060068111156117d9576117d861373d565b5b6003600083815260200190815260200160002060040160009054906101000a900460ff16600681111561180f5761180e61373d565b5b03611a7e57600360008281526020019081526020016000206040518060e0016040529081600082015481526020016001820160009054906101000a900473ffffffffffffffffffffffffffffffffffffffff1673ffffffffffffffffffffffffffffffffffffffff1673ffffffffffffffffffffffffffffffffffffffff1681526020016002820160009054906101000a900473ffffffffffffffffffffffffffffffffffffffff1673ffffffffffffffffffffffffffffffffffffffff1673ffffffffffffffffffffffffffffffffffffffff168152602001600382015481526020016004820160009054906101000a900460ff1660068111156119175761191661373d565b5b60068111156119295761192861373d565b5b815260200160058201805461193d906143b6565b80601f0160208091040260200160405190810160405280929190818152602001828054611969906143b6565b80156119b65780601f1061198b576101008083540402835291602001916119b6565b820191906000526020600020905b81548152906001019060200180831161199957829003601f168201915b505050505081526020016006820180546119cf906143b6565b80601f01602080910402602001604051908101604052809291908181526020018280546119fb906143b6565b8015611a485780601f10611a1d57610100808354040283529160200191611a48565b820191906000526020600020905b815481529060010190602001808311611a2b57829003601f168201915b505050505081525050838381518110611a6457611a6361429d565b5b60200260200101819052508180611a7a906143e7565b9250505b80806001019150506117bb565b50808252819250505090565b60046020528160005260406000208181548110611ab357600080fd5b9060005260206000209060050201600091509150508060000160009054906101000a900473ffffffffffffffffffffffffffffffffffffffff1690806001015490806002018054611b03906143b6565b80601f0160208091040260200160405190810160405280929190818152602001828054611b2f906143b6565b8015611b7c5780601f10611b5157610100808354040283529160200191611b7c565b820191906000526020600020905b815481529060010190602001808311611b5f57829003601f168201915b5050505050908060030154908060040160009054906101000a900460ff16905085565b6002806003811115611bb457611bb361373d565b5b600160003373ffffffffffffffffffffffffffffffffffffffff1673ffffffffffffffffffffffffffffffffffffffff16815260200190815260200160002060009054906101000a900460ff166003811115611c1357611c1261373d565b5b14611c53576040517f08c379a0000000000000000000000000000000000000000000000000000000008152600401611c4a906141a5565b60405180910390fd5b836000806006811115611c6957611c6861373d565b5b6003600084815260200190815260200160002060040160009054906101000a900460ff166006811115611c9f57611c9e61373d565b5b14611cdf576040517f08c379a0000000000000000000000000000000000000000000000000000000008152600401611cd690614211565b60405180910390fd5b600460008781526020019081526020016000206040518060a001604052803373ffffffffffffffffffffffffffffffffffffffff16815260200188815260200187815260200186815260200160001515815250908060018154018082558091505060019003906000526020600020906005020160009091909190915060008201518160000160006101000a81548173ffffffffffffffffffffffffffffffffffffffff021916908373ffffffffffffffffffffffffffffffffffffffff160217905550602082015181600101556040820151816002019081611dc191906145db565b506060820151816003015560808201518160040160006101000a81548160ff0219169083151502179055505050600560003373ffffffffffffffffffffffffffffffffffffffff1673ffffffffffffffffffffffffffffffffffffffff1681526020019081526020016000208690806001815401808255809150506001900390600052602060002001600090919091909150553373ffffffffffffffffffffffffffffffffffffffff16867fe6179624bbd7a2bb80c50cd68c9df1503f275824d80100032264b5fab04f08cd8787604051611e9d929190614761565b60405180910390a3505050505050565b611eb561358b565b60046000848152602001908152602001600020805490508210611f0d576040517f08c379a0000000000000000000000000000000000000000000000000000000008152600401611f04906147dd565b60405180910390fd5b600460008481526020019081526020016000208281548110611f3257611f3161429d565b5b90600052602060002090600502016040518060a00160405290816000820160009054906101000a900473ffffffffffffffffffffffffffffffffffffffff1673ffffffffffffffffffffffffffffffffffffffff1673ffffffffffffffffffffffffffffffffffffffff16815260200160018201548152602001600282018054611fbb906143b6565b80601f0160208091040260200160405190810160405280929190818152602001828054611fe7906143b6565b80156120345780601f1061200957610100808354040283529160200191612034565b820191906000526020600020905b81548152906001019060200180831161201757829003601f168201915b50505050508152602001600382015481526020016004820160009054906101000a900460ff161515151581525050905092915050565b600180600381111561207f5761207e61373d565b5b600160003373ffffffffffffffffffffffffffffffffffffffff1673ffffffffffffffffffffffffffffffffffffffff16815260200190815260200160002060009054906101000a900460ff1660038111156120de576120dd61373d565b5b1461211e576040517f08c379a0000000000000000000000000000000000000000000000000000000008152600401612115906141a5565b60405180910390fd5b8260008060068111156121345761213361373d565b5b6003600084815260200190815260200160002060040160009054906101000a900460ff16600681111561216a5761216961373d565b5b146121aa576040517f08c379a00000000000000000000000000000000000000000000000000000000081526004016121a190614211565b60405180910390fd5b3373ffffffffffffffffffffffffffffffffffffffff166003600087815260200190815260200160002060010160009054906101000a900473ffffffffffffffffffffffffffffffffffffffff1673ffffffffffffffffffffffffffffffffffffffff161461224e576040517f08c379a000000000000000000000000000000000000000000000000000000000815260040161224590614849565b60405180910390fd5b600460008681526020019081526020016000208054905084106122a6576040517f08c379a000000000000000000000000000000000000000000000000000000000815260040161229d906148b5565b60405180910390fd5b60006004600087815260200190815260200160002085815481106122cd576122cc61429d565b5b906000526020600020906005020190508060040160009054906101000a900460ff161561232f576040517f08c379a000000000000000000000000000000000000000000000000000000000815260040161232690614921565b60405180910390fd5b600260038111156123435761234261373d565b5b600160008360000160009054906101000a900473ffffffffffffffffffffffffffffffffffffffff1673ffffffffffffffffffffffffffffffffffffffff1673ffffffffffffffffffffffffffffffffffffffff16815260200190815260200160002060009054906101000a900460ff1660038111156123c6576123c561373d565b5b14612406576040517f08c379a00000000000000000000000000000000000000000000000000000000081526004016123fd9061498d565b60405180910390fd5b60018160040160006101000a81548160ff0219169083151502179055508060000160009054906101000a900473ffffffffffffffffffffffffffffffffffffffff166003600088815260200190815260200160002060020160006101000a81548173ffffffffffffffffffffffffffffffffffffffff021916908373ffffffffffffffffffffffffffffffffffffffff1602179055508060030154600360008881526020019081526020016000206003018190555060016003600088815260200190815260200160002060040160006101000a81548160ff021916908360068111156124f5576124f461373d565b5b02179055508060000160009054906101000a900473ffffffffffffffffffffffffffffffffffffffff1673ffffffffffffffffffffffffffffffffffffffff16867fe32571039ef324a825426dd5cdeae5b999f541d42d305cff5d7aec821280d82b83600301546040516125699190613fed565b60405180910390a38060000160009054906101000a900473ffffffffffffffffffffffffffffffffffffffff1673ffffffffffffffffffffffffffffffffffffffff16867fdf8c2fe8b2695fafbafd0ef6c88254c7a9078aa98dad9a4b927d3d43c87260e983600301546040516125e09190613fed565b60405180910390a3505050505050565b6060600560008373ffffffffffffffffffffffffffffffffffffffff1673ffffffffffffffffffffffffffffffffffffffff16815260200190815260200160002080548060200260200160405190810160405280929190818152602001828054801561267b57602002820191906000526020600020905b815481526020019060010190808311612667575b50505050509050919050565b60008060009054906101000a900473ffffffffffffffffffffffffffffffffffffffff16905090565b60016020528060005260406000206000915054906101000a900460ff1681565b60028060038111156126e5576126e461373d565b5b600160003373ffffffffffffffffffffffffffffffffffffffff1673ffffffffffffffffffffffffffffffffffffffff16815260200190815260200160002060009054906101000a900460ff1660038111156127445761274361373d565b5b14612784576040517f08c379a000000000000000000000000000000000000000000000000000000000815260040161277b906141a5565b60405180910390fd5b82600280600681111561279a5761279961373d565b5b6003600084815260200190815260200160002060040160009054906101000a900460ff1660068111156127d0576127cf61373d565b5b14612810576040517f08c379a000000000000000000000000000000000000000000000000000000000815260040161280790614211565b60405180910390fd5b3373ffffffffffffffffffffffffffffffffffffffff166003600087815260200190815260200160002060020160009054906101000a900473ffffffffffffffffffffffffffffffffffffffff1673ffffffffffffffffffffffffffffffffffffffff16146128b4576040517f08c379a00000000000000000000000000000000000000000000000000000000081526004016128ab90614a1f565b60405180910390fd5b60008451116128f8576040517f08c379a00000000000000000000000000000000000000000000000000000000081526004016128ef90614a8b565b60405180910390fd5b600380600087815260200190815260200160002060040160006101000a81548160ff021916908360068111156129315761293061373d565b5b02179055508360036000878152602001908152602001600020600601908161295991906145db565b50847f30443d61e3d9136b806372371d8e23349b37e56f0bd984c55cc772e37d1ddf1d8560405161298a91906146ad565b60405180910390a25050505050565b600560205281600052604060002081815481106129b557600080fd5b90600052602060002001600091509150505481565b60036020528060005260406000206000915090508060000154908060010160009054906101000a900473ffffffffffffffffffffffffffffffffffffffff16908060020160009054906101000a900473ffffffffffffffffffffffffffffffffffffffff16908060030154908060040160009054906101000a900460ff1690806005018054612a58906143b6565b80601f0160208091040260200160405190810160405280929190818152602001828054612a84906143b6565b8015612ad15780601f10612aa657610100808354040283529160200191612ad1565b820191906000526020600020905b815481529060010190602001808311612ab457829003601f168201915b505050505090806006018054612ae6906143b6565b80601f0160208091040260200160405190810160405280929190818152602001828054612b12906143b6565b8015612b5f5780601f10612b3457610100808354040283529160200191612b5f565b820191906000526020600020905b815481529060010190602001808311612b4257829003601f168201915b5050505050905087565b6001806003811115612b7e57612b7d61373d565b5b600160003373ffffffffffffffffffffffffffffffffffffffff1673ffffffffffffffffffffffffffffffffffffffff16815260200190815260200160002060009054906101000a900460ff166003811115612bdd57612bdc61373d565b5b14612c1d576040517f08c379a0000000000000000000000000000000000000000000000000000000008152600401612c14906141a5565b60405180910390fd5b816003806006811115612c3357612c3261373d565b5b6003600084815260200190815260200160002060040160009054906101000a900460ff166006811115612c6957612c6861373d565b5b14612ca9576040517f08c379a0000000000000000000000000000000000000000000000000000000008152600401612ca090614211565b60405180910390fd5b3373ffffffffffffffffffffffffffffffffffffffff166003600086815260200190815260200160002060010160009054906101000a900473ffffffffffffffffffffffffffffffffffffffff1673ffffffffffffffffffffffffffffffffffffffff1614612d4d576040517f08c379a0000000000000000000000000000000000000000000000000000000008152600401612d449061427d565b60405180910390fd5b60056003600086815260200190815260200160002060040160006101000a81548160ff02191690836006811115612d8757612d8661373d565b5b02179055506006849080600181540180825580915050600190039060005260206000200160009091909190915055837ff0a617b1186156fdc2fde56d7cb28e70d80ff02648ba33a7690d4ab412cab8cd60405160405180910390a250505050565b60068181548110612df857600080fd5b906000526020600020016000915090505481565b612e14613510565b600360008381526020019081526020016000206040518060e0016040529081600082015481526020016001820160009054906101000a900473ffffffffffffffffffffffffffffffffffffffff1673ffffffffffffffffffffffffffffffffffffffff1673ffffffffffffffffffffffffffffffffffffffff1681526020016002820160009054906101000a900473ffffffffffffffffffffffffffffffffffffffff1673ffffffffffffffffffffffffffffffffffffffff1673ffffffffffffffffffffffffffffffffffffffff168152602001600382015481526020016004820160009054906101000a900460ff166006811115612f1757612f1661373d565b5b6006811115612f2957612f2861373d565b5b8152602001600582018054612f3d906143b6565b80601f0160208091040260200160405190810160405280929190818152602001828054612f69906143b6565b8015612fb65780601f10612f8b57610100808354040283529160200191612fb6565b820191906000526020600020905b815481529060010190602001808311612f9957829003601f168201915b50505050508152602001600682018054612fcf906143b6565b80601f0160208091040260200160405190810160405280929190818152602001828054612ffb906143b6565b80156130485780601f1061301d57610100808354040283529160200191613048565b820191906000526020600020905b81548152906001019060200180831161302b57829003601f168201915b5050505050815250509050919050565b6130606133bd565b600073ffffffffffffffffffffffffffffffffffffffff168173ffffffffffffffffffffffffffffffffffffffff16036130d25760006040517f1e4fbdf70000000000000000000000000000000000000000000000000000000081526004016130c99190613ed3565b60405180910390fd5b6130db81613444565b50565b60018060038111156130f3576130f261373d565b5b600160003373ffffffffffffffffffffffffffffffffffffffff1673ffffffffffffffffffffffffffffffffffffffff16815260200190815260200160002060009054906101000a900460ff1660038111156131525761315161373d565b5b14613192576040517f08c379a0000000000000000000000000000000000000000000000000000000008152600401613189906141a5565b60405180910390fd5b8160018060068111156131a8576131a761373d565b5b6003600084815260200190815260200160002060040160009054906101000a900460ff1660068111156131de576131dd61373d565b5b1461321e576040517f08c379a000000000000000000000000000000000000000000000000000000000815260040161321590614211565b60405180910390fd5b60036000858152602001908152602001600020600301543414613276576040517f08c379a000000000000000000000000000000000000000000000000000000000815260040161326d90614af7565b60405180910390fd5b3373ffffffffffffffffffffffffffffffffffffffff166003600086815260200190815260200160002060010160009054906101000a900473ffffffffffffffffffffffffffffffffffffffff1673ffffffffffffffffffffffffffffffffffffffff161461331a576040517f08c379a000000000000000000000000000000000000000000000000000000000815260040161331190614849565b60405180910390fd5b60026003600086815260200190815260200160002060040160006101000a81548160ff021916908360068111156133545761335361373d565b5b0217905550837f0c438ca092a105cef6f62094945dc7822277b3450b3ec1ab2a6fe1a680df8d8d346040516133899190613fed565b60405180910390a250505050565b60025481565b600060046000838152602001908152602001600020805490509050919050565b6133c5613508565b73ffffffffffffffffffffffffffffffffffffffff166133e3612687565b73ffffffffffffffffffffffffffffffffffffffff161461344257613406613508565b6040517f118cdaa70000000000000000000000000000000000000000000000000000000081526004016134399190613ed3565b60405180910390fd5b565b60008060009054906101000a900473ffffffffffffffffffffffffffffffffffffffff169050816000806101000a81548173ffffffffffffffffffffffffffffffffffffffff021916908373ffffffffffffffffffffffffffffffffffffffff1602179055508173ffffffffffffffffffffffffffffffffffffffff168173ffffffffffffffffffffffffffffffffffffffff167f8be0079c531659141344cd1fd0a4f28419497f9722a3daafe3b4186f6b6457e060405160405180910390a35050565b600033905090565b6040518060e0016040528060008152602001600073ffffffffffffffffffffffffffffffffffffffff168152602001600073ffffffffffffffffffffffffffffffffffffffff16815260200160008152602001600060068111156135775761357661373d565b5b815260200160608152602001606081525090565b6040518060a00160405280600073ffffffffffffffffffffffffffffffffffffffff1681526020016000815260200160608152602001600081526020016000151581525090565b6000604051905090565b600080fd5b600080fd5b6000819050919050565b6135f9816135e6565b811461360457600080fd5b50565b600081359050613616816135f0565b92915050565b600060208284031215613632576136316135dc565b5b600061364084828501613607565b91505092915050565b60008115159050919050565b61365e81613649565b811461366957600080fd5b50565b60008135905061367b81613655565b92915050565b60008060408385031215613698576136976135dc565b5b60006136a685828601613607565b92505060206136b78582860161366c565b9150509250929050565b600081519050919050565b600082825260208201905092915050565b6000819050602082019050919050565b6136f6816135e6565b82525050565b600073ffffffffffffffffffffffffffffffffffffffff82169050919050565b6000613727826136fc565b9050919050565b6137378161371c565b82525050565b7f4e487b7100000000000000000000000000000000000000000000000000000000600052602160045260246000fd5b6007811061377d5761377c61373d565b5b50565b600081905061378e8261376c565b919050565b600061379e82613780565b9050919050565b6137ae81613793565b82525050565b600081519050919050565b600082825260208201905092915050565b60005b838110156137ee5780820151818401526020810190506137d3565b60008484015250505050565b6000601f19601f8301169050919050565b6000613816826137b4565b61382081856137bf565b93506138308185602086016137d0565b613839816137fa565b840191505092915050565b600060e08301600083015161385c60008601826136ed565b50602083015161386f602086018261372e565b506040830151613882604086018261372e565b50606083015161389560608601826136ed565b5060808301516138a860808601826137a5565b5060a083015184820360a08601526138c0828261380b565b91505060c083015184820360c08601526138da828261380b565b9150508091505092915050565b60006138f38383613844565b905092915050565b6000602082019050919050565b6000613913826136c1565b61391d81856136cc565b93508360208202850161392f856136dd565b8060005b8581101561396b578484038952815161394c85826138e7565b9450613957836138fb565b925060208a01995050600181019050613933565b50829750879550505050505092915050565b600060208201905081810360008301526139978184613908565b905092915050565b600080fd5b600080fd5b7f4e487b7100000000000000000000000000000000000000000000000000000000600052604160045260246000fd5b6139e1826137fa565b810181811067ffffffffffffffff82111715613a00576139ff6139a9565b5b80604052505050565b6000613a136135d2565b9050613a1f82826139d8565b919050565b600067ffffffffffffffff821115613a3f57613a3e6139a9565b5b613a48826137fa565b9050602081019050919050565b82818337600083830152505050565b6000613a77613a7284613a24565b613a09565b905082815260208101848484011115613a9357613a926139a4565b5b613a9e848285613a55565b509392505050565b600082601f830112613abb57613aba61399f565b5b8135613acb848260208601613a64565b91505092915050565b600060208284031215613aea57613ae96135dc565b5b600082013567ffffffffffffffff811115613b0857613b076135e1565b5b613b1484828501613aa6565b91505092915050565b613b268161371c565b8114613b3157600080fd5b50565b600081359050613b4381613b1d565b92915050565b60048110613b5657600080fd5b50565b600081359050613b6881613b49565b92915050565b60008060408385031215613b8557613b846135dc565b5b6000613b9385828601613b34565b9250506020613ba485828601613b59565b9150509250929050565b60008060408385031215613bc557613bc46135dc565b5b6000613bd385828601613607565b9250506020613be485828601613607565b9150509250929050565b613bf78161371c565b82525050565b613c06816135e6565b82525050565b600082825260208201905092915050565b6000613c28826137b4565b613c328185613c0c565b9350613c428185602086016137d0565b613c4b816137fa565b840191505092915050565b613c5f81613649565b82525050565b600060a082019050613c7a6000830188613bee565b613c876020830187613bfd565b8181036040830152613c998186613c1d565b9050613ca86060830185613bfd565b613cb56080830184613c56565b9695505050505050565b600080600060608486031215613cd857613cd76135dc565b5b6000613ce686828701613607565b935050602084013567ffffffffffffffff811115613d0757613d066135e1565b5b613d1386828701613aa6565b9250506040613d2486828701613607565b9150509250925092565b613d3781613649565b82525050565b600060a083016000830151613d55600086018261372e565b506020830151613d6860208601826136ed565b5060408301518482036040860152613d80828261380b565b9150506060830151613d9560608601826136ed565b506080830151613da86080860182613d2e565b508091505092915050565b60006020820190508181036000830152613dcd8184613d3d565b905092915050565b600060208284031215613deb57613dea6135dc565b5b6000613df984828501613b34565b91505092915050565b600081519050919050565b600082825260208201905092915050565b6000819050602082019050919050565b6000613e3a83836136ed565b60208301905092915050565b6000602082019050919050565b6000613e5e82613e02565b613e688185613e0d565b9350613e7383613e1e565b8060005b83811015613ea4578151613e8b8882613e2e565b9750613e9683613e46565b925050600181019050613e77565b5085935050505092915050565b60006020820190508181036000830152613ecb8184613e53565b905092915050565b6000602082019050613ee86000830184613bee565b92915050565b60048110613eff57613efe61373d565b5b50565b6000819050613f1082613eee565b919050565b6000613f2082613f02565b9050919050565b613f3081613f15565b82525050565b6000602082019050613f4b6000830184613f27565b92915050565b60008060408385031215613f6857613f676135dc565b5b6000613f7685828601613607565b925050602083013567ffffffffffffffff811115613f9757613f966135e1565b5b613fa385828601613aa6565b9150509250929050565b60008060408385031215613fc457613fc36135dc565b5b6000613fd285828601613b34565b9250506020613fe385828601613607565b9150509250929050565b60006020820190506140026000830184613bfd565b92915050565b61401181613793565b82525050565b600060e08201905061402c600083018a613bfd565b6140396020830189613bee565b6140466040830188613bee565b6140536060830187613bfd565b6140606080830186614008565b81810360a08301526140728185613c1d565b905081810360c08301526140868184613c1d565b905098975050505050505050565b600060e0830160008301516140ac60008601826136ed565b5060208301516140bf602086018261372e565b5060408301516140d2604086018261372e565b5060608301516140e560608601826136ed565b5060808301516140f860808601826137a5565b5060a083015184820360a0860152614110828261380b565b91505060c083015184820360c086015261412a828261380b565b9150508091505092915050565b600060208201905081810360008301526141518184614094565b905092915050565b7f556e617574686f72697a656420726f6c65000000000000000000000000000000600082015250565b600061418f601183613c0c565b915061419a82614159565b602082019050919050565b600060208201905081810360008301526141be81614182565b9050919050565b7f496e76616c696420737461746520666f72207468697320616374696f6e000000600082015250565b60006141fb601d83613c0c565b9150614206826141c5565b602082019050919050565b6000602082019050818103600083015261422a816141ee565b9050919050565b7f596f7520617265206e6f742074686520636c69656e7400000000000000000000600082015250565b6000614267601683613c0c565b915061427282614231565b602082019050919050565b600060208201905081810360008301526142968161425a565b9050919050565b7f4e487b7100000000000000000000000000000000000000000000000000000000600052603260045260246000fd5b7f4e487b7100000000000000000000000000000000000000000000000000000000600052601160045260246000fd5b6000614306826135e6565b9150614311836135e6565b9250828203905081811115614329576143286142cc565b5b92915050565b7f4e487b7100000000000000000000000000000000000000000000000000000000600052603160045260246000fd5b60006040820190506143736000830185613bee565b6143806020830184613c56565b9392505050565b7f4e487b7100000000000000000000000000000000000000000000000000000000600052602260045260246000fd5b600060028204905060018216806143ce57607f821691505b6020821081036143e1576143e0614387565b5b50919050565b60006143f2826135e6565b91507fffffffffffffffffffffffffffffffffffffffffffffffffffffffffffffffff8203614424576144236142cc565b5b600182019050919050565b60008190508160005260206000209050919050565b60006020601f8301049050919050565b600082821b905092915050565b6000600883026144917fffffffffffffffffffffffffffffffffffffffffffffffffffffffffffffffff82614454565b61449b8683614454565b95508019841693508086168417925050509392505050565b6000819050919050565b60006144d86144d36144ce846135e6565b6144b3565b6135e6565b9050919050565b6000819050919050565b6144f2836144bd565b6145066144fe826144df565b848454614461565b825550505050565b600090565b61451b61450e565b6145268184846144e9565b505050565b5b8181101561454a5761453f600082614513565b60018101905061452c565b5050565b601f82111561458f576145608161442f565b61456984614444565b81016020851015614578578190505b61458c61458485614444565b83018261452b565b50505b505050565b600082821c905092915050565b60006145b260001984600802614594565b1980831691505092915050565b60006145cb83836145a1565b9150826002028217905092915050565b6145e4826137b4565b67ffffffffffffffff8111156145fd576145fc6139a9565b5b61460782546143b6565b61461282828561454e565b600060209050601f8311600181146146455760008415614633578287015190505b61463d85826145bf565b8655506146a5565b601f1984166146538661442f565b60005b8281101561467b57848901518255600182019150602085019450602081019050614656565b868310156146985784890151614694601f8916826145a1565b8355505b6001600288020188555050505b505050505050565b600060208201905081810360008301526146c78184613c1d565b905092915050565b7f43616e6e6f74206368616e676520726f6c65206f662074686520636f6e74726160008201527f6374206f776e6572000000000000000000000000000000000000000000000000602082015250565b600061472b602883613c0c565b9150614736826146cf565b604082019050919050565b6000602082019050818103600083015261475a8161471e565b9050919050565b6000604082019050818103600083015261477b8185613c1d565b905061478a6020830184613bfd565b9392505050565b7f496e76616c6964206170706c69636174696f6e20696e64657800000000000000600082015250565b60006147c7601983613c0c565b91506147d282614791565b602082019050919050565b600060208201905081810360008301526147f6816147ba565b9050919050565b7f4e6f7420746865207365727669636520636c69656e7400000000000000000000600082015250565b6000614833601683613c0c565b915061483e826147fd565b602082019050919050565b6000602082019050818103600083015261486281614826565b9050919050565b7f496e76616c6964206170706c69636174696f6e00000000000000000000000000600082015250565b600061489f601383613c0c565b91506148aa82614869565b602082019050919050565b600060208201905081810360008301526148ce81614892565b9050919050565b7f4170706c69636174696f6e20616c726561647920616363657074656400000000600082015250565b600061490b601c83613c0c565b9150614916826148d5565b602082019050919050565b6000602082019050818103600083015261493a816148fe565b9050919050565b7f4170706c6963616e74206973206e6f7420612070726f76696465720000000000600082015250565b6000614977601b83613c0c565b915061498282614941565b602082019050919050565b600060208201905081810360008301526149a68161496a565b9050919050565b7f596f7520617265206e6f742061737369676e656420746f20746869732073657260008201527f7669636500000000000000000000000000000000000000000000000000000000602082015250565b6000614a09602483613c0c565b9150614a14826149ad565b604082019050919050565b60006020820190508181036000830152614a38816149fc565b9050919050565b7f44656c6976657279206465736372697074696f6e207265717569726564000000600082015250565b6000614a75601d83613c0c565b9150614a8082614a3f565b602082019050919050565b60006020820190508181036000830152614aa481614a68565b9050919050565b7f496e636f72726563742045544820616d6f756e74000000000000000000000000600082015250565b6000614ae1601483613c0c565b9150614aec82614aab565b602082019050919050565b60006020820190508181036000830152614b1081614ad4565b905091905056fea264697066735822122027839cdf0361c036567406e4fda0a64c5c1d837f84967fe279ab1bf7da5a8d0264736f6c634300081c0033",
  "linkReferences": {},
  "deployedLinkReferences": {}
}