{
  "_format": "hh-sol-artifact-1",
  "contractName": "Marketplace",
  "sourceName": "contracts/Marketplace.sol",
  "abi": [
    {
      "inputs": [],
      "stateMutability": "nonpayable",
      "type": "constructor"
    },
    {
      "inputs": [
        {
          "internalType": "address",
          "name": "owner",
          "type": "address"
        }
      ],
      "name": "OwnableInvalidOwner",
      "type": "error"
    },
    {
      "inputs": [
        {
          "internalType": "address",
          "name": "account",
          "type": "address"
        }
      ],
      "name": "OwnableUnauthorizedAccount",
      "type": "error"
    },
    {
      "anonymous": false,
      "inputs": [
        {
          "indexed": true,
          "internalType": "uint256",
          "name": "serviceId",
          "type": "uint256"
        },
        {
          "indexed": true,
          "internalType": "address",
          "name": "provider",
          "type": "address"
        }
      ],
      "name": "ApplicationAccepted",
      "type": "event"
    },
    {
      "anonymous": false,
      "inputs": [
        {
          "indexed": true,
          "internalType": "uint256",
          "name": "serviceId",
          "type": "uint256"
        },
        {
          "indexed": true,
          "internalType": "address",
          "name": "provider",
          "type": "address"
        },
        {
          "indexed": false,
          "internalType": "string",
          "name": "proposal",
          "type": "string"
        }
      ],
      "name": "ApplicationCreated",
      "type": "event"
    },
    {
      "anonymous": false,
      "inputs": [
        {
          "indexed": true,
          "internalType": "address",
          "name": "previousOwner",
          "type": "address"
        },
        {
          "indexed": true,
          "internalType": "address",
          "name": "newOwner",
          "type": "address"
        }
      ],
      "name": "OwnershipTransferred",
      "type": "event"
    },
    {
      "anonymous": false,
      "inputs": [
        {
          "indexed": true,
          "internalType": "uint256",
          "name": "serviceId",
          "type": "uint256"
        },
        {
          "indexed": true,
          "internalType": "address",
          "name": "provider",
          "type": "address"
        }
      ],
      "name": "ProviderAssigned",
      "type": "event"
    },
    {
      "anonymous": false,
      "inputs": [
        {
          "indexed": true,
          "internalType": "uint256",
          "name": "serviceId",
          "type": "uint256"
        }
      ],
      "name": "ServiceApproved",
      "type": "event"
    },
    {
      "anonymous": false,
      "inputs": [
        {
          "indexed": true,
          "internalType": "uint256",
          "name": "serviceId",
          "type": "uint256"
        },
        {
          "indexed": true,
          "internalType": "address",
          "name": "client",
          "type": "address"
        },
        {
          "indexed": false,
          "internalType": "string",
          "name": "description",
          "type": "string"
        }
      ],
      "name": "ServiceCreated",
      "type": "event"
    },
    {
      "anonymous": false,
      "inputs": [
        {
          "indexed": true,
          "internalType": "uint256",
          "name": "serviceId",
          "type": "uint256"
        }
      ],
      "name": "ServiceDelivered",
      "type": "event"
    },
    {
      "anonymous": false,
      "inputs": [
        {
          "indexed": true,
          "internalType": "uint256",
          "name": "serviceId",
          "type": "uint256"
        }
      ],
      "name": "ServiceDisputed",
      "type": "event"
    },
    {
      "anonymous": false,
      "inputs": [
        {
          "indexed": true,
          "internalType": "uint256",
          "name": "serviceId",
          "type": "uint256"
        },
        {
          "indexed": false,
          "internalType": "uint256",
          "name": "amount",
          "type": "uint256"
        }
      ],
      "name": "ServiceFunded",
      "type": "event"
    },
    {
      "anonymous": false,
      "inputs": [
        {
          "indexed": true,
          "internalType": "uint256",
          "name": "serviceId",
          "type": "uint256"
        },
        {
          "indexed": false,
          "internalType": "address",
          "name": "resolver",
          "type": "address"
        },
        {
          "indexed": false,
          "internalType": "bool",
          "name": "approved",
          "type": "bool"
        }
      ],
      "name": "ServiceResolved",
      "type": "event"
    },
    {
      "inputs": [
        {
          "internalType": "uint256",
          "name": "_serviceId",
          "type": "uint256"
        },
        {
          "internalType": "uint256",
          "name": "_applicationIndex",
          "type": "uint256"
        }
      ],
      "name": "acceptApplication",
      "outputs": [],
      "stateMutability": "nonpayable",
      "type": "function"
    },
    {
      "inputs": [
        {
          "internalType": "uint256",
          "name": "",
          "type": "uint256"
        },
        {
          "internalType": "uint256",
          "name": "",
          "type": "uint256"
        }
      ],
      "name": "applications",
      "outputs": [
        {
          "internalType": "address",
          "name": "provider",
          "type": "address"
        },
        {
          "internalType": "uint256",
          "name": "serviceId",
          "type": "uint256"
        },
        {
          "internalType": "string",
          "name": "proposal",
          "type": "string"
        },
        {
          "internalType": "bool",
          "name": "accepted",
          "type": "bool"
        }
      ],
      "stateMutability": "view",
      "type": "function"
    },
    {
      "inputs": [
        {
          "internalType": "uint256",
          "name": "_serviceId",
          "type": "uint256"
        },
        {
          "internalType": "string",
          "name": "_proposal",
          "type": "string"
        }
      ],
      "name": "applyForService",
      "outputs": [],
      "stateMutability": "nonpayable",
      "type": "function"
    },
    {
      "inputs": [
        {
          "internalType": "uint256",
          "name": "_serviceId",
          "type": "uint256"
        }
      ],
      "name": "approveService",
      "outputs": [],
      "stateMutability": "nonpayable",
      "type": "function"
    },
    {
      "inputs": [
        {
          "internalType": "string",
          "name": "_description",
          "type": "string"
        },
        {
          "internalType": "uint256",
          "name": "_price",
          "type": "uint256"
        }
      ],
      "name": "createService",
      "outputs": [],
      "stateMutability": "nonpayable",
      "type": "function"
    },
    {
      "inputs": [
        {
          "internalType": "uint256",
          "name": "_serviceId",
          "type": "uint256"
        }
      ],
      "name": "deliverService",
      "outputs": [],
      "stateMutability": "nonpayable",
      "type": "function"
    },
    {
      "inputs": [
        {
          "internalType": "uint256",
          "name": "_serviceId",
          "type": "uint256"
        }
      ],
      "name": "disputeService",
      "outputs": [],
      "stateMutability": "nonpayable",
      "type": "function"
    },
    {
      "inputs": [
        {
          "internalType": "uint256",
          "name": "_serviceId",
          "type": "uint256"
        }
      ],
      "name": "fundService",
      "outputs": [],
      "stateMutability": "payable",
      "type": "function"
    },
    {
      "inputs": [
        {
          "internalType": "uint256",
          "name": "_serviceId",
          "type": "uint256"
        },
        {
          "internalType": "uint256",
          "name": "_index",
          "type": "uint256"
        }
      ],
      "name": "getApplication",
      "outputs": [
        {
          "components": [
            {
              "internalType": "address",
              "name": "provider",
              "type": "address"
            },
            {
              "internalType": "uint256",
              "name": "serviceId",
              "type": "uint256"
            },
            {
              "internalType": "string",
              "name": "proposal",
              "type": "string"
            },
            {
              "internalType": "bool",
              "name": "accepted",
              "type": "bool"
            }
          ],
          "internalType": "struct Marketplace.Application",
          "name": "",
          "type": "tuple"
        }
      ],
      "stateMutability": "view",
      "type": "function"
    },
    {
      "inputs": [
        {
          "internalType": "uint256",
          "name": "_serviceId",
          "type": "uint256"
        }
      ],
      "name": "getApplicationCount",
      "outputs": [
        {
          "internalType": "uint256",
          "name": "",
          "type": "uint256"
        }
      ],
      "stateMutability": "view",
      "type": "function"
    },
    {
      "inputs": [],
      "name": "getFundedServices",
      "outputs": [
        {
          "components": [
            {
              "internalType": "uint256",
              "name": "id",
              "type": "uint256"
            },
            {
              "internalType": "address",
              "name": "client",
              "type": "address"
            },
            {
              "internalType": "address",
              "name": "provider",
              "type": "address"
            },
            {
              "internalType": "uint256",
              "name": "price",
              "type": "uint256"
            },
            {
              "internalType": "enum Marketplace.ServiceState",
              "name": "state",
              "type": "uint8"
            },
            {
              "internalType": "string",
              "name": "description",
              "type": "string"
            }
          ],
          "internalType": "struct Marketplace.Service[]",
          "name": "",
          "type": "tuple[]"
        }
      ],
      "stateMutability": "view",
      "type": "function"
    },
    {
      "inputs": [],
      "name": "getOpenServices",
      "outputs": [
        {
          "components": [
            {
              "internalType": "uint256",
              "name": "id",
              "type": "uint256"
            },
            {
              "internalType": "address",
              "name": "client",
              "type": "address"
            },
            {
              "internalType": "address",
              "name": "provider",
              "type": "address"
            },
            {
              "internalType": "uint256",
              "name": "price",
              "type": "uint256"
            },
            {
              "internalType": "enum Marketplace.ServiceState",
              "name": "state",
              "type": "uint8"
            },
            {
              "internalType": "string",
              "name": "description",
              "type": "string"
            }
          ],
          "internalType": "struct Marketplace.Service[]",
          "name": "",
          "type": "tuple[]"
        }
      ],
      "stateMutability": "view",
      "type": "function"
    },
    {
      "inputs": [
        {
          "internalType": "address",
          "name": "_provider",
          "type": "address"
        }
      ],
      "name": "getProviderApplications",
      "outputs": [
        {
          "internalType": "uint256[]",
          "name": "",
          "type": "uint256[]"
        }
      ],
      "stateMutability": "view",
      "type": "function"
    },
    {
      "inputs": [
        {
          "internalType": "uint256",
          "name": "_serviceId",
          "type": "uint256"
        }
      ],
      "name": "getService",
      "outputs": [
        {
          "components": [
            {
              "internalType": "uint256",
              "name": "id",
              "type": "uint256"
            },
            {
              "internalType": "address",
              "name": "client",
              "type": "address"
            },
            {
              "internalType": "address",
              "name": "provider",
              "type": "address"
            },
            {
              "internalType": "uint256",
              "name": "price",
              "type": "uint256"
            },
            {
              "internalType": "enum Marketplace.ServiceState",
              "name": "state",
              "type": "uint8"
            },
            {
              "internalType": "string",
              "name": "description",
              "type": "string"
            }
          ],
          "internalType": "struct Marketplace.Service",
          "name": "",
          "type": "tuple"
        }
      ],
      "stateMutability": "view",
      "type": "function"
    },
    {
      "inputs": [],
      "name": "nextServiceId",
      "outputs": [
        {
          "internalType": "uint256",
          "name": "",
          "type": "uint256"
        }
      ],
      "stateMutability": "view",
      "type": "function"
    },
    {
      "inputs": [],
      "name": "owner",
      "outputs": [
        {
          "internalType": "address",
          "name": "",
          "type": "address"
        }
      ],
      "stateMutability": "view",
      "type": "function"
    },
    {
      "inputs": [
        {
          "internalType": "address",
          "name": "",
          "type": "address"
        },
        {
          "internalType": "uint256",
          "name": "",
          "type": "uint256"
        }
      ],
      "name": "providerApplications",
      "outputs": [
        {
          "internalType": "uint256",
          "name": "",
          "type": "uint256"
        }
      ],
      "stateMutability": "view",
      "type": "function"
    },
    {
      "inputs": [],
      "name": "renounceOwnership",
      "outputs": [],
      "stateMutability": "nonpayable",
      "type": "function"
    },
    {
      "inputs": [
        {
          "internalType": "uint256",
          "name": "_serviceId",
          "type": "uint256"
        },
        {
          "internalType": "bool",
          "name": "_approve",
          "type": "bool"
        }
      ],
      "name": "resolveDispute",
      "outputs": [],
      "stateMutability": "nonpayable",
      "type": "function"
    },
    {
      "inputs": [
        {
          "internalType": "address",
          "name": "",
          "type": "address"
        }
      ],
      "name": "roles",
      "outputs": [
        {
          "internalType": "enum Marketplace.Role",
          "name": "",
          "type": "uint8"
        }
      ],
      "stateMutability": "view",
      "type": "function"
    },
    {
      "inputs": [
        {
          "internalType": "uint256",
          "name": "",
          "type": "uint256"
        }
      ],
      "name": "services",
      "outputs": [
        {
          "internalType": "uint256",
          "name": "id",
          "type": "uint256"
        },
        {
          "internalType": "address",
          "name": "client",
          "type": "address"
        },
        {
          "internalType": "address",
          "name": "provider",
          "type": "address"
        },
        {
          "internalType": "uint256",
          "name": "price",
          "type": "uint256"
        },
        {
          "internalType": "enum Marketplace.ServiceState",
          "name": "state",
          "type": "uint8"
        },
        {
          "internalType": "string",
          "name": "description",
          "type": "string"
        }
      ],
      "stateMutability": "view",
      "type": "function"
    },
    {
      "inputs": [
        {
          "internalType": "address",
          "name": "user",
          "type": "address"
        },
        {
          "internalType": "enum Marketplace.Role",
          "name": "role",
          "type": "uint8"
        }
      ],
      "name": "setRole",
      "outputs": [],
      "stateMutability": "nonpayable",
      "type": "function"
    },
    {
      "inputs": [
        {
          "internalType": "address",
          "name": "newOwner",
          "type": "address"
        }
      ],
      "name": "transferOwnership",
      "outputs": [],
      "stateMutability": "nonpayable",
      "type": "function"
    }
  ],
  "bytecode": "0x608060405234801561001057600080fd5b5033600073ffffffffffffffffffffffffffffffffffffffff168173ffffffffffffffffffffffffffffffffffffffff16036100845760006040517f1e4fbdf700000000000000000000000000000000000000000000000000000000815260040161007b919061019e565b60405180910390fd5b6100938161009960201b60201c565b506101b9565b60008060009054906101000a900473ffffffffffffffffffffffffffffffffffffffff169050816000806101000a81548173ffffffffffffffffffffffffffffffffffffffff021916908373ffffffffffffffffffffffffffffffffffffffff1602179055508173ffffffffffffffffffffffffffffffffffffffff168173ffffffffffffffffffffffffffffffffffffffff167f8be0079c531659141344cd1fd0a4f28419497f9722a3daafe3b4186f6b6457e060405160405180910390a35050565b600073ffffffffffffffffffffffffffffffffffffffff82169050919050565b60006101888261015d565b9050919050565b6101988161017d565b82525050565b60006020820190506101b3600083018461018f565b92915050565b61401b806101c86000396000f3fe6080604052600436106101405760003560e01c80638af9f5b9116100b6578063de43790f1161006f578063de43790f14610472578063ef0e239b1461049b578063f2fde38b146104d8578063f5673c8c14610501578063f6c53d9b1461051d578063fadd2b691461054857610140565b80638af9f5b9146103255780638cfccfea146103625780638da5cb5b1461038b57806399374642146103b6578063acc16db5146103f3578063c22c4f431461043057610140565b8063571c3e6011610108578063571c3e6014610214578063715018a61461023d5780637602578d146102545780637a870b631461027f578063832a05b7146102bf57806383f67f6e146102fc57610140565b80630cc41e87146101455780631cf82bd21461016e57806321c8bafe1461019757806334b25ee2146101c05780633b4b8bad146101e9575b600080fd5b34801561015157600080fd5b5061016c60048036038101906101679190612d41565b610585565b005b34801561017a57600080fd5b5061019560048036038101906101909190612eb4565b6107da565b005b3480156101a357600080fd5b506101be60048036038101906101b99190612d41565b610a6b565b005b3480156101cc57600080fd5b506101e760048036038101906101e29190612f48565b610d54565b005b3480156101f557600080fd5b506101fe611085565b60405161020b9190613219565b60405180910390f35b34801561022057600080fd5b5061023b6004803603810190610236919061328c565b61132f565b005b34801561024957600080fd5b506102526113a2565b005b34801561026057600080fd5b506102696113b6565b6040516102769190613219565b60405180910390f35b34801561028b57600080fd5b506102a660048036038101906102a191906132cc565b611660565b6040516102b69493929190613383565b60405180910390f35b3480156102cb57600080fd5b506102e660048036038101906102e191906132cc565b611762565b6040516102f39190613441565b60405180910390f35b34801561030857600080fd5b50610323600480360381019061031e91906132cc565b611915565b005b34801561033157600080fd5b5061034c60048036038101906103479190613463565b611e5e565b604051610359919061353f565b60405180910390f35b34801561036e57600080fd5b5061038960048036038101906103849190613561565b611ef5565b005b34801561039757600080fd5b506103a06121f0565b6040516103ad91906135bd565b60405180910390f35b3480156103c257600080fd5b506103dd60048036038101906103d89190613463565b612219565b6040516103ea9190613620565b60405180910390f35b3480156103ff57600080fd5b5061041a6004803603810190610415919061363b565b612239565b604051610427919061367b565b60405180910390f35b34801561043c57600080fd5b5061045760048036038101906104529190612d41565b61226a565b604051610469969594939291906136a5565b60405180910390f35b34801561047e57600080fd5b5061049960048036038101906104949190612d41565b61237b565b005b3480156104a757600080fd5b506104c260048036038101906104bd9190612d41565b6125d1565b6040516104cf9190613796565b60405180910390f35b3480156104e457600080fd5b506104ff60048036038101906104fa9190613463565b61278b565b005b61051b60048036038101906105169190612d41565b612811565b005b34801561052957600080fd5b50610532612aca565b60405161053f919061367b565b60405180910390f35b34801561055457600080fd5b5061056f600480360381019061056a9190612d41565b612ad0565b60405161057c919061367b565b60405180910390f35b600280600381111561059a57610599613004565b5b600160003373ffffffffffffffffffffffffffffffffffffffff1673ffffffffffffffffffffffffffffffffffffffff16815260200190815260200160002060009054906101000a900460ff1660038111156105f9576105f8613004565b5b14610639576040517f08c379a000000000000000000000000000000000000000000000000000000000815260040161063090613804565b60405180910390fd5b81600180600681111561064f5761064e613004565b5b6003600084815260200190815260200160002060040160009054906101000a900460ff16600681111561068557610684613004565b5b146106c5576040517f08c379a00000000000000000000000000000000000000000000000000000000081526004016106bc90613870565b60405180910390fd5b3373ffffffffffffffffffffffffffffffffffffffff166003600086815260200190815260200160002060020160009054906101000a900473ffffffffffffffffffffffffffffffffffffffff1673ffffffffffffffffffffffffffffffffffffffff1614610769576040517f08c379a000000000000000000000000000000000000000000000000000000000815260040161076090613902565b60405180910390fd5b600380600086815260200190815260200160002060040160006101000a81548160ff021916908360068111156107a2576107a1613004565b5b0217905550837fd29ce5f095d5f3c26a962bb3d1fb4fde5340fa5cae3da360236dd700ca46ce8a60405160405180910390a250505050565b60018060038111156107ef576107ee613004565b5b600160003373ffffffffffffffffffffffffffffffffffffffff1673ffffffffffffffffffffffffffffffffffffffff16815260200190815260200160002060009054906101000a900460ff16600381111561084e5761084d613004565b5b1461088e576040517f08c379a000000000000000000000000000000000000000000000000000000000815260040161088590613804565b60405180910390fd5b6040518060c0016040528060025481526020013373ffffffffffffffffffffffffffffffffffffffff168152602001600073ffffffffffffffffffffffffffffffffffffffff168152602001838152602001600060068111156108f4576108f3613004565b5b8152602001848152506003600060025481526020019081526020016000206000820151816000015560208201518160010160006101000a81548173ffffffffffffffffffffffffffffffffffffffff021916908373ffffffffffffffffffffffffffffffffffffffff16021790555060408201518160020160006101000a81548173ffffffffffffffffffffffffffffffffffffffff021916908373ffffffffffffffffffffffffffffffffffffffff1602179055506060820151816003015560808201518160040160006101000a81548160ff021916908360068111156109df576109de613004565b5b021790555060a08201518160050190816109f99190613b2e565b509050503373ffffffffffffffffffffffffffffffffffffffff166002547f4f61262ead34b30298acaceb42f0ef8c5d6fa3a7568847ea9ee1cc6d9fd1664f85604051610a469190613c00565b60405180910390a360026000815480929190610a6190613c51565b9190505550505050565b6001806003811115610a8057610a7f613004565b5b600160003373ffffffffffffffffffffffffffffffffffffffff1673ffffffffffffffffffffffffffffffffffffffff16815260200190815260200160002060009054906101000a900460ff166003811115610adf57610ade613004565b5b14610b1f576040517f08c379a0000000000000000000000000000000000000000000000000000000008152600401610b1690613804565b60405180910390fd5b816003806006811115610b3557610b34613004565b5b6003600084815260200190815260200160002060040160009054906101000a900460ff166006811115610b6b57610b6a613004565b5b14610bab576040517f08c379a0000000000000000000000000000000000000000000000000000000008152600401610ba290613870565b60405180910390fd5b3373ffffffffffffffffffffffffffffffffffffffff166003600086815260200190815260200160002060010160009054906101000a900473ffffffffffffffffffffffffffffffffffffffff1673ffffffffffffffffffffffffffffffffffffffff1614610c4f576040517f08c379a0000000000000000000000000000000000000000000000000000000008152600401610c4690613ce5565b60405180910390fd5b60046003600086815260200190815260200160002060040160006101000a81548160ff02191690836006811115610c8957610c88613004565b5b02179055506003600085815260200190815260200160002060020160009054906101000a900473ffffffffffffffffffffffffffffffffffffffff1673ffffffffffffffffffffffffffffffffffffffff166108fc60036000878152602001908152602001600020600301549081150290604051600060405180830381858888f19350505050158015610d20573d6000803e3d6000fd5b50837f7095a954dc58d088b11d7fadb23f8a211f4b0fa82210838ea4984cfc76a9286e60405160405180910390a250505050565b6003806003811115610d6957610d68613004565b5b600160003373ffffffffffffffffffffffffffffffffffffffff1673ffffffffffffffffffffffffffffffffffffffff16815260200190815260200160002060009054906101000a900460ff166003811115610dc857610dc7613004565b5b14610e08576040517f08c379a0000000000000000000000000000000000000000000000000000000008152600401610dff90613804565b60405180910390fd5b826005806006811115610e1e57610e1d613004565b5b6003600084815260200190815260200160002060040160009054906101000a900460ff166006811115610e5457610e53613004565b5b14610e94576040517f08c379a0000000000000000000000000000000000000000000000000000000008152600401610e8b90613870565b60405180910390fd5b8315610f715760046003600087815260200190815260200160002060040160006101000a81548160ff02191690836006811115610ed457610ed3613004565b5b02179055506003600086815260200190815260200160002060020160009054906101000a900473ffffffffffffffffffffffffffffffffffffffff1673ffffffffffffffffffffffffffffffffffffffff166108fc60036000888152602001908152602001600020600301549081150290604051600060405180830381858888f19350505050158015610f6b573d6000803e3d6000fd5b50611044565b60066003600087815260200190815260200160002060040160006101000a81548160ff02191690836006811115610fab57610faa613004565b5b02179055506003600086815260200190815260200160002060010160009054906101000a900473ffffffffffffffffffffffffffffffffffffffff1673ffffffffffffffffffffffffffffffffffffffff166108fc60036000888152602001908152602001600020600301549081150290604051600060405180830381858888f19350505050158015611042573d6000803e3d6000fd5b505b847ffb43a92744861f817ee428589229c8e92d505379ac1b4af5b7cdbc67be799f123386604051611076929190613d05565b60405180910390a25050505050565b6060600060025467ffffffffffffffff8111156110a5576110a4612d89565b5b6040519080825280602002602001820160405280156110de57816020015b6110cb612c43565b8152602001906001900390816110c35790505b5090506000805b600254811015611323576001600681111561110357611102613004565b5b6003600083815260200190815260200160002060040160009054906101000a900460ff16600681111561113957611138613004565b5b0361131657600360008281526020019081526020016000206040518060c0016040529081600082015481526020016001820160009054906101000a900473ffffffffffffffffffffffffffffffffffffffff1673ffffffffffffffffffffffffffffffffffffffff1673ffffffffffffffffffffffffffffffffffffffff1681526020016002820160009054906101000a900473ffffffffffffffffffffffffffffffffffffffff1673ffffffffffffffffffffffffffffffffffffffff1673ffffffffffffffffffffffffffffffffffffffff168152602001600382015481526020016004820160009054906101000a900460ff16600681111561124157611240613004565b5b600681111561125357611252613004565b5b815260200160058201805461126790613951565b80601f016020809104026020016040519081016040528092919081815260200182805461129390613951565b80156112e05780601f106112b5576101008083540402835291602001916112e0565b820191906000526020600020905b8154815290600101906020018083116112c357829003601f168201915b5050505050815250508383815181106112fc576112fb613d2e565b5b6020026020010181905250818061131290613c51565b9250505b80806001019150506110e5565b50808252819250505090565b611337612af0565b80600160008473ffffffffffffffffffffffffffffffffffffffff1673ffffffffffffffffffffffffffffffffffffffff16815260200190815260200160002060006101000a81548160ff0219169083600381111561139957611398613004565b5b02179055505050565b6113aa612af0565b6113b46000612b77565b565b6060600060025467ffffffffffffffff8111156113d6576113d5612d89565b5b60405190808252806020026020018201604052801561140f57816020015b6113fc612c43565b8152602001906001900390816113f45790505b5090506000805b600254811015611654576000600681111561143457611433613004565b5b6003600083815260200190815260200160002060040160009054906101000a900460ff16600681111561146a57611469613004565b5b0361164757600360008281526020019081526020016000206040518060c0016040529081600082015481526020016001820160009054906101000a900473ffffffffffffffffffffffffffffffffffffffff1673ffffffffffffffffffffffffffffffffffffffff1673ffffffffffffffffffffffffffffffffffffffff1681526020016002820160009054906101000a900473ffffffffffffffffffffffffffffffffffffffff1673ffffffffffffffffffffffffffffffffffffffff1673ffffffffffffffffffffffffffffffffffffffff168152602001600382015481526020016004820160009054906101000a900460ff16600681111561157257611571613004565b5b600681111561158457611583613004565b5b815260200160058201805461159890613951565b80601f01602080910402602001604051908101604052809291908181526020018280546115c490613951565b80156116115780601f106115e657610100808354040283529160200191611611565b820191906000526020600020905b8154815290600101906020018083116115f457829003601f168201915b50505050508152505083838151811061162d5761162c613d2e565b5b6020026020010181905250818061164390613c51565b9250505b8080600101915050611416565b50808252819250505090565b6004602052816000526040600020818154811061167c57600080fd5b9060005260206000209060040201600091509150508060000160009054906101000a900473ffffffffffffffffffffffffffffffffffffffff16908060010154908060020180546116cc90613951565b80601f01602080910402602001604051908101604052809291908181526020018280546116f890613951565b80156117455780601f1061171a57610100808354040283529160200191611745565b820191906000526020600020905b81548152906001019060200180831161172857829003601f168201915b5050505050908060030160009054906101000a900460ff16905084565b61176a612cb7565b600460008481526020019081526020016000208054905082106117c2576040517f08c379a00000000000000000000000000000000000000000000000000000000081526004016117b990613da9565b60405180910390fd5b6004600084815260200190815260200160002082815481106117e7576117e6613d2e565b5b90600052602060002090600402016040518060800160405290816000820160009054906101000a900473ffffffffffffffffffffffffffffffffffffffff1673ffffffffffffffffffffffffffffffffffffffff1673ffffffffffffffffffffffffffffffffffffffff1681526020016001820154815260200160028201805461187090613951565b80601f016020809104026020016040519081016040528092919081815260200182805461189c90613951565b80156118e95780601f106118be576101008083540402835291602001916118e9565b820191906000526020600020905b8154815290600101906020018083116118cc57829003601f168201915b505050505081526020016003820160009054906101000a900460ff161515151581525050905092915050565b600180600381111561192a57611929613004565b5b600160003373ffffffffffffffffffffffffffffffffffffffff1673ffffffffffffffffffffffffffffffffffffffff16815260200190815260200160002060009054906101000a900460ff16600381111561198957611988613004565b5b146119c9576040517f08c379a00000000000000000000000000000000000000000000000000000000081526004016119c090613804565b60405180910390fd5b8260008060068111156119df576119de613004565b5b6003600084815260200190815260200160002060040160009054906101000a900460ff166006811115611a1557611a14613004565b5b14611a55576040517f08c379a0000000000000000000000000000000000000000000000000000000008152600401611a4c90613870565b60405180910390fd5b3373ffffffffffffffffffffffffffffffffffffffff166003600087815260200190815260200160002060010160009054906101000a900473ffffffffffffffffffffffffffffffffffffffff1673ffffffffffffffffffffffffffffffffffffffff1614611af9576040517f08c379a0000000000000000000000000000000000000000000000000000000008152600401611af090613e15565b60405180910390fd5b60046000868152602001908152602001600020805490508410611b51576040517f08c379a0000000000000000000000000000000000000000000000000000000008152600401611b4890613e81565b60405180910390fd5b6000600460008781526020019081526020016000208581548110611b7857611b77613d2e565b5b906000526020600020906004020190508060030160009054906101000a900460ff1615611bda576040517f08c379a0000000000000000000000000000000000000000000000000000000008152600401611bd190613eed565b60405180910390fd5b60026003811115611bee57611bed613004565b5b600160008360000160009054906101000a900473ffffffffffffffffffffffffffffffffffffffff1673ffffffffffffffffffffffffffffffffffffffff1673ffffffffffffffffffffffffffffffffffffffff16815260200190815260200160002060009054906101000a900460ff166003811115611c7157611c70613004565b5b14611cb1576040517f08c379a0000000000000000000000000000000000000000000000000000000008152600401611ca890613f59565b60405180910390fd5b60018160030160006101000a81548160ff0219169083151502179055508060000160009054906101000a900473ffffffffffffffffffffffffffffffffffffffff166003600088815260200190815260200160002060020160006101000a81548173ffffffffffffffffffffffffffffffffffffffff021916908373ffffffffffffffffffffffffffffffffffffffff16021790555060026003600088815260200190815260200160002060040160006101000a81548160ff02191690836006811115611d8157611d80613004565b5b02179055508060000160009054906101000a900473ffffffffffffffffffffffffffffffffffffffff1673ffffffffffffffffffffffffffffffffffffffff16867f7ac6f8ad3a8d0f5e51f7d46371ddeb6e2d196578f72b4bb2d7b0884a420d509c60405160405180910390a38060000160009054906101000a900473ffffffffffffffffffffffffffffffffffffffff1673ffffffffffffffffffffffffffffffffffffffff16867f87347dee4386ac44f2c0bf5d058de67e2a08f526794bd25a6a73f159c82718ab60405160405180910390a3505050505050565b6060600560008373ffffffffffffffffffffffffffffffffffffffff1673ffffffffffffffffffffffffffffffffffffffff168152602001908152602001600020805480602002602001604051908101604052809291908181526020018280548015611ee957602002820191906000526020600020905b815481526020019060010190808311611ed5575b50505050509050919050565b6002806003811115611f0a57611f09613004565b5b600160003373ffffffffffffffffffffffffffffffffffffffff1673ffffffffffffffffffffffffffffffffffffffff16815260200190815260200160002060009054906101000a900460ff166003811115611f6957611f68613004565b5b14611fa9576040517f08c379a0000000000000000000000000000000000000000000000000000000008152600401611fa090613804565b60405180910390fd5b826000806006811115611fbf57611fbe613004565b5b6003600084815260200190815260200160002060040160009054906101000a900460ff166006811115611ff557611ff4613004565b5b14612035576040517f08c379a000000000000000000000000000000000000000000000000000000000815260040161202c90613870565b60405180910390fd5b6004600086815260200190815260200160002060405180608001604052803373ffffffffffffffffffffffffffffffffffffffff16815260200187815260200186815260200160001515815250908060018154018082558091505060019003906000526020600020906004020160009091909190915060008201518160000160006101000a81548173ffffffffffffffffffffffffffffffffffffffff021916908373ffffffffffffffffffffffffffffffffffffffff1602179055506020820151816001015560408201518160020190816121119190613b2e565b5060608201518160030160006101000a81548160ff0219169083151502179055505050600560003373ffffffffffffffffffffffffffffffffffffffff1673ffffffffffffffffffffffffffffffffffffffff1681526020019081526020016000208590806001815401808255809150506001900390600052602060002001600090919091909150553373ffffffffffffffffffffffffffffffffffffffff16857f5bed6f3428867dfbf9b66698abdcc0fefdb151634690b1b6e56cfb434fa80679866040516121e19190613c00565b60405180910390a35050505050565b60008060009054906101000a900473ffffffffffffffffffffffffffffffffffffffff16905090565b60016020528060005260406000206000915054906101000a900460ff1681565b6005602052816000526040600020818154811061225557600080fd5b90600052602060002001600091509150505481565b60036020528060005260406000206000915090508060000154908060010160009054906101000a900473ffffffffffffffffffffffffffffffffffffffff16908060020160009054906101000a900473ffffffffffffffffffffffffffffffffffffffff16908060030154908060040160009054906101000a900460ff16908060050180546122f890613951565b80601f016020809104026020016040519081016040528092919081815260200182805461232490613951565b80156123715780601f1061234657610100808354040283529160200191612371565b820191906000526020600020905b81548152906001019060200180831161235457829003601f168201915b5050505050905086565b60018060038111156123905761238f613004565b5b600160003373ffffffffffffffffffffffffffffffffffffffff1673ffffffffffffffffffffffffffffffffffffffff16815260200190815260200160002060009054906101000a900460ff1660038111156123ef576123ee613004565b5b1461242f576040517f08c379a000000000000000000000000000000000000000000000000000000000815260040161242690613804565b60405180910390fd5b81600380600681111561244557612444613004565b5b6003600084815260200190815260200160002060040160009054906101000a900460ff16600681111561247b5761247a613004565b5b146124bb576040517f08c379a00000000000000000000000000000000000000000000000000000000081526004016124b290613870565b60405180910390fd5b3373ffffffffffffffffffffffffffffffffffffffff166003600086815260200190815260200160002060010160009054906101000a900473ffffffffffffffffffffffffffffffffffffffff1673ffffffffffffffffffffffffffffffffffffffff161461255f576040517f08c379a000000000000000000000000000000000000000000000000000000000815260040161255690613ce5565b60405180910390fd5b60056003600086815260200190815260200160002060040160006101000a81548160ff0219169083600681111561259957612598613004565b5b0217905550837ff0a617b1186156fdc2fde56d7cb28e70d80ff02648ba33a7690d4ab412cab8cd60405160405180910390a250505050565b6125d9612c43565b600360008381526020019081526020016000206040518060c0016040529081600082015481526020016001820160009054906101000a900473ffffffffffffffffffffffffffffffffffffffff1673ffffffffffffffffffffffffffffffffffffffff1673ffffffffffffffffffffffffffffffffffffffff1681526020016002820160009054906101000a900473ffffffffffffffffffffffffffffffffffffffff1673ffffffffffffffffffffffffffffffffffffffff1673ffffffffffffffffffffffffffffffffffffffff168152602001600382015481526020016004820160009054906101000a900460ff1660068111156126dc576126db613004565b5b60068111156126ee576126ed613004565b5b815260200160058201805461270290613951565b80601f016020809104026020016040519081016040528092919081815260200182805461272e90613951565b801561277b5780601f106127505761010080835404028352916020019161277b565b820191906000526020600020905b81548152906001019060200180831161275e57829003601f168201915b5050505050815250509050919050565b612793612af0565b600073ffffffffffffffffffffffffffffffffffffffff168173ffffffffffffffffffffffffffffffffffffffff16036128055760006040517f1e4fbdf70000000000000000000000000000000000000000000000000000000081526004016127fc91906135bd565b60405180910390fd5b61280e81612b77565b50565b600180600381111561282657612825613004565b5b600160003373ffffffffffffffffffffffffffffffffffffffff1673ffffffffffffffffffffffffffffffffffffffff16815260200190815260200160002060009054906101000a900460ff16600381111561288557612884613004565b5b146128c5576040517f08c379a00000000000000000000000000000000000000000000000000000000081526004016128bc90613804565b60405180910390fd5b8160028060068111156128db576128da613004565b5b6003600084815260200190815260200160002060040160009054906101000a900460ff16600681111561291157612910613004565b5b14612951576040517f08c379a000000000000000000000000000000000000000000000000000000000815260040161294890613870565b60405180910390fd5b600360008581526020019081526020016000206003015434146129a9576040517f08c379a00000000000000000000000000000000000000000000000000000000081526004016129a090613fc5565b60405180910390fd5b3373ffffffffffffffffffffffffffffffffffffffff166003600086815260200190815260200160002060010160009054906101000a900473ffffffffffffffffffffffffffffffffffffffff1673ffffffffffffffffffffffffffffffffffffffff1614612a4d576040517f08c379a0000000000000000000000000000000000000000000000000000000008152600401612a4490613e15565b60405180910390fd5b60016003600086815260200190815260200160002060040160006101000a81548160ff02191690836006811115612a8757612a86613004565b5b0217905550837f0c438ca092a105cef6f62094945dc7822277b3450b3ec1ab2a6fe1a680df8d8d34604051612abc919061367b565b60405180910390a250505050565b60025481565b600060046000838152602001908152602001600020805490509050919050565b612af8612c3b565b73ffffffffffffffffffffffffffffffffffffffff16612b166121f0565b73ffffffffffffffffffffffffffffffffffffffff1614612b7557612b39612c3b565b6040517f118cdaa7000000000000000000000000000000000000000000000000000000008152600401612b6c91906135bd565b60405180910390fd5b565b60008060009054906101000a900473ffffffffffffffffffffffffffffffffffffffff169050816000806101000a81548173ffffffffffffffffffffffffffffffffffffffff021916908373ffffffffffffffffffffffffffffffffffffffff1602179055508173ffffffffffffffffffffffffffffffffffffffff168173ffffffffffffffffffffffffffffffffffffffff167f8be0079c531659141344cd1fd0a4f28419497f9722a3daafe3b4186f6b6457e060405160405180910390a35050565b600033905090565b6040518060c0016040528060008152602001600073ffffffffffffffffffffffffffffffffffffffff168152602001600073ffffffffffffffffffffffffffffffffffffffff1681526020016000815260200160006006811115612caa57612ca9613004565b5b8152602001606081525090565b6040518060800160405280600073ffffffffffffffffffffffffffffffffffffffff16815260200160008152602001606081526020016000151581525090565b6000604051905090565b600080fd5b600080fd5b6000819050919050565b612d1e81612d0b565b8114612d2957600080fd5b50565b600081359050612d3b81612d15565b92915050565b600060208284031215612d5757612d56612d01565b5b6000612d6584828501612d2c565b91505092915050565b600080fd5b600080fd5b6000601f19601f8301169050919050565b7f4e487b7100000000000000000000000000000000000000000000000000000000600052604160045260246000fd5b612dc182612d78565b810181811067ffffffffffffffff82111715612de057612ddf612d89565b5b80604052505050565b6000612df3612cf7565b9050612dff8282612db8565b919050565b600067ffffffffffffffff821115612e1f57612e1e612d89565b5b612e2882612d78565b9050602081019050919050565b82818337600083830152505050565b6000612e57612e5284612e04565b612de9565b905082815260208101848484011115612e7357612e72612d73565b5b612e7e848285612e35565b509392505050565b600082601f830112612e9b57612e9a612d6e565b5b8135612eab848260208601612e44565b91505092915050565b60008060408385031215612ecb57612eca612d01565b5b600083013567ffffffffffffffff811115612ee957612ee8612d06565b5b612ef585828601612e86565b9250506020612f0685828601612d2c565b9150509250929050565b60008115159050919050565b612f2581612f10565b8114612f3057600080fd5b50565b600081359050612f4281612f1c565b92915050565b60008060408385031215612f5f57612f5e612d01565b5b6000612f6d85828601612d2c565b9250506020612f7e85828601612f33565b9150509250929050565b600081519050919050565b600082825260208201905092915050565b6000819050602082019050919050565b612fbd81612d0b565b82525050565b600073ffffffffffffffffffffffffffffffffffffffff82169050919050565b6000612fee82612fc3565b9050919050565b612ffe81612fe3565b82525050565b7f4e487b7100000000000000000000000000000000000000000000000000000000600052602160045260246000fd5b6007811061304457613043613004565b5b50565b600081905061305582613033565b919050565b600061306582613047565b9050919050565b6130758161305a565b82525050565b600081519050919050565b600082825260208201905092915050565b60005b838110156130b557808201518184015260208101905061309a565b60008484015250505050565b60006130cc8261307b565b6130d68185613086565b93506130e6818560208601613097565b6130ef81612d78565b840191505092915050565b600060c0830160008301516131126000860182612fb4565b5060208301516131256020860182612ff5565b5060408301516131386040860182612ff5565b50606083015161314b6060860182612fb4565b50608083015161315e608086018261306c565b5060a083015184820360a086015261317682826130c1565b9150508091505092915050565b600061318f83836130fa565b905092915050565b6000602082019050919050565b60006131af82612f88565b6131b98185612f93565b9350836020820285016131cb85612fa4565b8060005b8581101561320757848403895281516131e88582613183565b94506131f383613197565b925060208a019950506001810190506131cf565b50829750879550505050505092915050565b6000602082019050818103600083015261323381846131a4565b905092915050565b61324481612fe3565b811461324f57600080fd5b50565b6000813590506132618161323b565b92915050565b6004811061327457600080fd5b50565b60008135905061328681613267565b92915050565b600080604083850312156132a3576132a2612d01565b5b60006132b185828601613252565b92505060206132c285828601613277565b9150509250929050565b600080604083850312156132e3576132e2612d01565b5b60006132f185828601612d2c565b925050602061330285828601612d2c565b9150509250929050565b61331581612fe3565b82525050565b61332481612d0b565b82525050565b600082825260208201905092915050565b60006133468261307b565b613350818561332a565b9350613360818560208601613097565b61336981612d78565b840191505092915050565b61337d81612f10565b82525050565b6000608082019050613398600083018761330c565b6133a5602083018661331b565b81810360408301526133b7818561333b565b90506133c66060830184613374565b95945050505050565b6133d881612f10565b82525050565b60006080830160008301516133f66000860182612ff5565b5060208301516134096020860182612fb4565b506040830151848203604086015261342182826130c1565b915050606083015161343660608601826133cf565b508091505092915050565b6000602082019050818103600083015261345b81846133de565b905092915050565b60006020828403121561347957613478612d01565b5b600061348784828501613252565b91505092915050565b600081519050919050565b600082825260208201905092915050565b6000819050602082019050919050565b60006134c88383612fb4565b60208301905092915050565b6000602082019050919050565b60006134ec82613490565b6134f6818561349b565b9350613501836134ac565b8060005b8381101561353257815161351988826134bc565b9750613524836134d4565b925050600181019050613505565b5085935050505092915050565b6000602082019050818103600083015261355981846134e1565b905092915050565b6000806040838503121561357857613577612d01565b5b600061358685828601612d2c565b925050602083013567ffffffffffffffff8111156135a7576135a6612d06565b5b6135b385828601612e86565b9150509250929050565b60006020820190506135d2600083018461330c565b92915050565b600481106135e9576135e8613004565b5b50565b60008190506135fa826135d8565b919050565b600061360a826135ec565b9050919050565b61361a816135ff565b82525050565b60006020820190506136356000830184613611565b92915050565b6000806040838503121561365257613651612d01565b5b600061366085828601613252565b925050602061367185828601612d2c565b9150509250929050565b6000602082019050613690600083018461331b565b92915050565b61369f8161305a565b82525050565b600060c0820190506136ba600083018961331b565b6136c7602083018861330c565b6136d4604083018761330c565b6136e1606083018661331b565b6136ee6080830185613696565b81810360a0830152613700818461333b565b9050979650505050505050565b600060c0830160008301516137256000860182612fb4565b5060208301516137386020860182612ff5565b50604083015161374b6040860182612ff5565b50606083015161375e6060860182612fb4565b506080830151613771608086018261306c565b5060a083015184820360a086015261378982826130c1565b9150508091505092915050565b600060208201905081810360008301526137b0818461370d565b905092915050565b7f556e617574686f72697a656420726f6c65000000000000000000000000000000600082015250565b60006137ee60118361332a565b91506137f9826137b8565b602082019050919050565b6000602082019050818103600083015261381d816137e1565b9050919050565b7f496e76616c696420737461746520666f72207468697320616374696f6e000000600082015250565b600061385a601d8361332a565b915061386582613824565b602082019050919050565b600060208201905081810360008301526138898161384d565b9050919050565b7f596f7520617265206e6f742061737369676e656420746f20746869732073657260008201527f7669636500000000000000000000000000000000000000000000000000000000602082015250565b60006138ec60248361332a565b91506138f782613890565b604082019050919050565b6000602082019050818103600083015261391b816138df565b9050919050565b7f4e487b7100000000000000000000000000000000000000000000000000000000600052602260045260246000fd5b6000600282049050600182168061396957607f821691505b60208210810361397c5761397b613922565b5b50919050565b60008190508160005260206000209050919050565b60006020601f8301049050919050565b600082821b905092915050565b6000600883026139e47fffffffffffffffffffffffffffffffffffffffffffffffffffffffffffffffff826139a7565b6139ee86836139a7565b95508019841693508086168417925050509392505050565b6000819050919050565b6000613a2b613a26613a2184612d0b565b613a06565b612d0b565b9050919050565b6000819050919050565b613a4583613a10565b613a59613a5182613a32565b8484546139b4565b825550505050565b600090565b613a6e613a61565b613a79818484613a3c565b505050565b5b81811015613a9d57613a92600082613a66565b600181019050613a7f565b5050565b601f821115613ae257613ab381613982565b613abc84613997565b81016020851015613acb578190505b613adf613ad785613997565b830182613a7e565b50505b505050565b600082821c905092915050565b6000613b0560001984600802613ae7565b1980831691505092915050565b6000613b1e8383613af4565b9150826002028217905092915050565b613b378261307b565b67ffffffffffffffff811115613b5057613b4f612d89565b5b613b5a8254613951565b613b65828285613aa1565b600060209050601f831160018114613b985760008415613b86578287015190505b613b908582613b12565b865550613bf8565b601f198416613ba686613982565b60005b82811015613bce57848901518255600182019150602085019450602081019050613ba9565b86831015613beb5784890151613be7601f891682613af4565b8355505b6001600288020188555050505b505050505050565b60006020820190508181036000830152613c1a818461333b565b905092915050565b7f4e487b7100000000000000000000000000000000000000000000000000000000600052601160045260246000fd5b6000613c5c82612d0b565b91507fffffffffffffffffffffffffffffffffffffffffffffffffffffffffffffffff8203613c8e57613c8d613c22565b5b600182019050919050565b7f596f7520617265206e6f742074686520636c69656e7400000000000000000000600082015250565b6000613ccf60168361332a565b9150613cda82613c99565b602082019050919050565b60006020820190508181036000830152613cfe81613cc2565b9050919050565b6000604082019050613d1a600083018561330c565b613d276020830184613374565b9392505050565b7f4e487b7100000000000000000000000000000000000000000000000000000000600052603260045260246000fd5b7f496e76616c6964206170706c69636174696f6e20696e64657800000000000000600082015250565b6000613d9360198361332a565b9150613d9e82613d5d565b602082019050919050565b60006020820190508181036000830152613dc281613d86565b9050919050565b7f4e6f7420746865207365727669636520636c69656e7400000000000000000000600082015250565b6000613dff60168361332a565b9150613e0a82613dc9565b602082019050919050565b60006020820190508181036000830152613e2e81613df2565b9050919050565b7f496e76616c6964206170706c69636174696f6e00000000000000000000000000600082015250565b6000613e6b60138361332a565b9150613e7682613e35565b602082019050919050565b60006020820190508181036000830152613e9a81613e5e565b9050919050565b7f4170706c69636174696f6e20616c726561647920616363657074656400000000600082015250565b6000613ed7601c8361332a565b9150613ee282613ea1565b602082019050919050565b60006020820190508181036000830152613f0681613eca565b9050919050565b7f4170706c6963616e74206973206e6f7420612070726f76696465720000000000600082015250565b6000613f43601b8361332a565b9150613f4e82613f0d565b602082019050919050565b60006020820190508181036000830152613f7281613f36565b9050919050565b7f496e636f72726563742045544820616d6f756e74000000000000000000000000600082015250565b6000613faf60148361332a565b9150613fba82613f79565b602082019050919050565b60006020820190508181036000830152613fde81613fa2565b905091905056fea2646970667358221220440e007db31a2d7f11b51c2ae0df352663bd6fedeabee9ca402cc75d01119cc864736f6c634300081c0033",
  "linkReferences": {},
  "deployedLinkReferences": {}
}