{
  "_format": "hh-sol-artifact-1",
  "contractName": "Marketplace",
  "sourceName": "contracts/Marketplace.sol",
  "abi": [
    {
      "inputs": [],
      "stateMutability": "nonpayable",
      "type": "constructor"
    },
    {
      "inputs": [
        {
          "internalType": "address",
          "name": "owner",
          "type": "address"
        }
      ],
      "name": "OwnableInvalidOwner",
      "type": "error"
    },
    {
      "inputs": [
        {
          "internalType": "address",
          "name": "account",
          "type": "address"
        }
      ],
      "name": "OwnableUnauthorizedAccount",
      "type": "error"
    },
    {
      "anonymous": false,
      "inputs": [
        {
          "indexed": true,
          "internalType": "uint256",
          "name": "serviceId",
          "type": "uint256"
        },
        {
          "indexed": true,
          "internalType": "address",
          "name": "provider",
          "type": "address"
        },
        {
          "indexed": false,
          "internalType": "uint256",
          "name": "price",
          "type": "uint256"
        }
      ],
      "name": "ApplicationAccepted",
      "type": "event"
    },
    {
      "anonymous": false,
      "inputs": [
        {
          "indexed": true,
          "internalType": "uint256",
          "name": "serviceId",
          "type": "uint256"
        },
        {
          "indexed": true,
          "internalType": "address",
          "name": "provider",
          "type": "address"
        },
        {
          "indexed": false,
          "internalType": "string",
          "name": "proposal",
          "type": "string"
        },
        {
          "indexed": false,
          "internalType": "uint256",
          "name": "price",
          "type": "uint256"
        }
      ],
      "name": "ApplicationCreated",
      "type": "event"
    },
    {
      "anonymous": false,
      "inputs": [
        {
          "indexed": true,
          "internalType": "address",
          "name": "previousOwner",
          "type": "address"
        },
        {
          "indexed": true,
          "internalType": "address",
          "name": "newOwner",
          "type": "address"
        }
      ],
      "name": "OwnershipTransferred",
      "type": "event"
    },
    {
      "anonymous": false,
      "inputs": [
        {
          "indexed": true,
          "internalType": "uint256",
          "name": "serviceId",
          "type": "uint256"
        },
        {
          "indexed": true,
          "internalType": "address",
          "name": "provider",
          "type": "address"
        },
        {
          "indexed": false,
          "internalType": "uint256",
          "name": "price",
          "type": "uint256"
        }
      ],
      "name": "ProviderAssigned",
      "type": "event"
    },
    {
      "anonymous": false,
      "inputs": [
        {
          "indexed": true,
          "internalType": "uint256",
          "name": "serviceId",
          "type": "uint256"
        }
      ],
      "name": "ServiceApproved",
      "type": "event"
    },
    {
      "anonymous": false,
      "inputs": [
        {
          "indexed": true,
          "internalType": "uint256",
          "name": "serviceId",
          "type": "uint256"
        },
        {
          "indexed": true,
          "internalType": "address",
          "name": "client",
          "type": "address"
        },
        {
          "indexed": false,
          "internalType": "string",
          "name": "description",
          "type": "string"
        }
      ],
      "name": "ServiceCreated",
      "type": "event"
    },
    {
      "anonymous": false,
      "inputs": [
        {
          "indexed": true,
          "internalType": "uint256",
          "name": "serviceId",
          "type": "uint256"
        },
        {
          "indexed": false,
          "internalType": "string",
          "name": "deliveryDescription",
          "type": "string"
        }
      ],
      "name": "ServiceDelivered",
      "type": "event"
    },
    {
      "anonymous": false,
      "inputs": [
        {
          "indexed": true,
          "internalType": "uint256",
          "name": "serviceId",
          "type": "uint256"
        }
      ],
      "name": "ServiceDisputed",
      "type": "event"
    },
    {
      "anonymous": false,
      "inputs": [
        {
          "indexed": true,
          "internalType": "uint256",
          "name": "serviceId",
          "type": "uint256"
        },
        {
          "indexed": false,
          "internalType": "uint256",
          "name": "amount",
          "type": "uint256"
        }
      ],
      "name": "ServiceFunded",
      "type": "event"
    },
    {
      "anonymous": false,
      "inputs": [
        {
          "indexed": true,
          "internalType": "uint256",
          "name": "serviceId",
          "type": "uint256"
        },
        {
          "indexed": false,
          "internalType": "address",
          "name": "resolver",
          "type": "address"
        },
        {
          "indexed": false,
          "internalType": "bool",
          "name": "approved",
          "type": "bool"
        }
      ],
      "name": "ServiceResolved",
      "type": "event"
    },
    {
      "inputs": [
        {
          "internalType": "uint256",
          "name": "_serviceId",
          "type": "uint256"
        },
        {
          "internalType": "uint256",
          "name": "_applicationIndex",
          "type": "uint256"
        }
      ],
      "name": "acceptApplication",
      "outputs": [],
      "stateMutability": "nonpayable",
      "type": "function"
    },
    {
      "inputs": [
        {
          "internalType": "uint256",
          "name": "",
          "type": "uint256"
        },
        {
          "internalType": "uint256",
          "name": "",
          "type": "uint256"
        }
      ],
      "name": "applications",
      "outputs": [
        {
          "internalType": "address",
          "name": "provider",
          "type": "address"
        },
        {
          "internalType": "uint256",
          "name": "serviceId",
          "type": "uint256"
        },
        {
          "internalType": "string",
          "name": "proposal",
          "type": "string"
        },
        {
          "internalType": "uint256",
          "name": "price",
          "type": "uint256"
        },
        {
          "internalType": "bool",
          "name": "accepted",
          "type": "bool"
        }
      ],
      "stateMutability": "view",
      "type": "function"
    },
    {
      "inputs": [
        {
          "internalType": "uint256",
          "name": "_serviceId",
          "type": "uint256"
        },
        {
          "internalType": "string",
          "name": "_proposal",
          "type": "string"
        },
        {
          "internalType": "uint256",
          "name": "_price",
          "type": "uint256"
        }
      ],
      "name": "applyForService",
      "outputs": [],
      "stateMutability": "nonpayable",
      "type": "function"
    },
    {
      "inputs": [
        {
          "internalType": "uint256",
          "name": "_serviceId",
          "type": "uint256"
        }
      ],
      "name": "approveService",
      "outputs": [],
      "stateMutability": "nonpayable",
      "type": "function"
    },
    {
      "inputs": [
        {
          "internalType": "string",
          "name": "_description",
          "type": "string"
        }
      ],
      "name": "createService",
      "outputs": [],
      "stateMutability": "nonpayable",
      "type": "function"
    },
    {
      "inputs": [
        {
          "internalType": "uint256",
          "name": "_serviceId",
          "type": "uint256"
        },
        {
          "internalType": "string",
          "name": "_deliveryDescription",
          "type": "string"
        }
      ],
      "name": "deliverService",
      "outputs": [],
      "stateMutability": "nonpayable",
      "type": "function"
    },
    {
      "inputs": [
        {
          "internalType": "uint256",
          "name": "_serviceId",
          "type": "uint256"
        }
      ],
      "name": "disputeService",
      "outputs": [],
      "stateMutability": "nonpayable",
      "type": "function"
    },
    {
      "inputs": [
        {
          "internalType": "uint256",
          "name": "",
          "type": "uint256"
        }
      ],
      "name": "disputedServiceIds",
      "outputs": [
        {
          "internalType": "uint256",
          "name": "",
          "type": "uint256"
        }
      ],
      "stateMutability": "view",
      "type": "function"
    },
    {
      "inputs": [
        {
          "internalType": "uint256",
          "name": "_serviceId",
          "type": "uint256"
        }
      ],
      "name": "fundService",
      "outputs": [],
      "stateMutability": "payable",
      "type": "function"
    },
    {
      "inputs": [
        {
          "internalType": "uint256",
          "name": "_serviceId",
          "type": "uint256"
        },
        {
          "internalType": "uint256",
          "name": "_index",
          "type": "uint256"
        }
      ],
      "name": "getApplication",
      "outputs": [
        {
          "components": [
            {
              "internalType": "address",
              "name": "provider",
              "type": "address"
            },
            {
              "internalType": "uint256",
              "name": "serviceId",
              "type": "uint256"
            },
            {
              "internalType": "string",
              "name": "proposal",
              "type": "string"
            },
            {
              "internalType": "uint256",
              "name": "price",
              "type": "uint256"
            },
            {
              "internalType": "bool",
              "name": "accepted",
              "type": "bool"
            }
          ],
          "internalType": "struct Marketplace.Application",
          "name": "",
          "type": "tuple"
        }
      ],
      "stateMutability": "view",
      "type": "function"
    },
    {
      "inputs": [
        {
          "internalType": "uint256",
          "name": "_serviceId",
          "type": "uint256"
        }
      ],
      "name": "getApplicationCount",
      "outputs": [
        {
          "internalType": "uint256",
          "name": "",
          "type": "uint256"
        }
      ],
      "stateMutability": "view",
      "type": "function"
    },
    {
      "inputs": [],
      "name": "getDisputedServices",
      "outputs": [
        {
          "components": [
            {
              "internalType": "uint256",
              "name": "id",
              "type": "uint256"
            },
            {
              "internalType": "address",
              "name": "client",
              "type": "address"
            },
            {
              "internalType": "address",
              "name": "provider",
              "type": "address"
            },
            {
              "internalType": "uint256",
              "name": "price",
              "type": "uint256"
            },
            {
              "internalType": "enum Marketplace.ServiceState",
              "name": "state",
              "type": "uint8"
            },
            {
              "internalType": "string",
              "name": "description",
              "type": "string"
            },
            {
              "internalType": "string",
              "name": "deliveryDescription",
              "type": "string"
            }
          ],
          "internalType": "struct Marketplace.Service[]",
          "name": "",
          "type": "tuple[]"
        }
      ],
      "stateMutability": "view",
      "type": "function"
    },
    {
      "inputs": [],
      "name": "getFundedServices",
      "outputs": [
        {
          "components": [
            {
              "internalType": "uint256",
              "name": "id",
              "type": "uint256"
            },
            {
              "internalType": "address",
              "name": "client",
              "type": "address"
            },
            {
              "internalType": "address",
              "name": "provider",
              "type": "address"
            },
            {
              "internalType": "uint256",
              "name": "price",
              "type": "uint256"
            },
            {
              "internalType": "enum Marketplace.ServiceState",
              "name": "state",
              "type": "uint8"
            },
            {
              "internalType": "string",
              "name": "description",
              "type": "string"
            },
            {
              "internalType": "string",
              "name": "deliveryDescription",
              "type": "string"
            }
          ],
          "internalType": "struct Marketplace.Service[]",
          "name": "",
          "type": "tuple[]"
        }
      ],
      "stateMutability": "view",
      "type": "function"
    },
    {
      "inputs": [],
      "name": "getOpenServices",
      "outputs": [
        {
          "components": [
            {
              "internalType": "uint256",
              "name": "id",
              "type": "uint256"
            },
            {
              "internalType": "address",
              "name": "client",
              "type": "address"
            },
            {
              "internalType": "address",
              "name": "provider",
              "type": "address"
            },
            {
              "internalType": "uint256",
              "name": "price",
              "type": "uint256"
            },
            {
              "internalType": "enum Marketplace.ServiceState",
              "name": "state",
              "type": "uint8"
            },
            {
              "internalType": "string",
              "name": "description",
              "type": "string"
            },
            {
              "internalType": "string",
              "name": "deliveryDescription",
              "type": "string"
            }
          ],
          "internalType": "struct Marketplace.Service[]",
          "name": "",
          "type": "tuple[]"
        }
      ],
      "stateMutability": "view",
      "type": "function"
    },
    {
      "inputs": [
        {
          "internalType": "address",
          "name": "_provider",
          "type": "address"
        }
      ],
      "name": "getProviderApplications",
      "outputs": [
        {
          "internalType": "uint256[]",
          "name": "",
          "type": "uint256[]"
        }
      ],
      "stateMutability": "view",
      "type": "function"
    },
    {
      "inputs": [
        {
          "internalType": "uint256",
          "name": "_serviceId",
          "type": "uint256"
        }
      ],
      "name": "getService",
      "outputs": [
        {
          "components": [
            {
              "internalType": "uint256",
              "name": "id",
              "type": "uint256"
            },
            {
              "internalType": "address",
              "name": "client",
              "type": "address"
            },
            {
              "internalType": "address",
              "name": "provider",
              "type": "address"
            },
            {
              "internalType": "uint256",
              "name": "price",
              "type": "uint256"
            },
            {
              "internalType": "enum Marketplace.ServiceState",
              "name": "state",
              "type": "uint8"
            },
            {
              "internalType": "string",
              "name": "description",
              "type": "string"
            },
            {
              "internalType": "string",
              "name": "deliveryDescription",
              "type": "string"
            }
          ],
          "internalType": "struct Marketplace.Service",
          "name": "",
          "type": "tuple"
        }
      ],
      "stateMutability": "view",
      "type": "function"
    },
    {
      "inputs": [],
      "name": "nextServiceId",
      "outputs": [
        {
          "internalType": "uint256",
          "name": "",
          "type": "uint256"
        }
      ],
      "stateMutability": "view",
      "type": "function"
    },
    {
      "inputs": [],
      "name": "owner",
      "outputs": [
        {
          "internalType": "address",
          "name": "",
          "type": "address"
        }
      ],
      "stateMutability": "view",
      "type": "function"
    },
    {
      "inputs": [
        {
          "internalType": "address",
          "name": "",
          "type": "address"
        },
        {
          "internalType": "uint256",
          "name": "",
          "type": "uint256"
        }
      ],
      "name": "providerApplications",
      "outputs": [
        {
          "internalType": "uint256",
          "name": "",
          "type": "uint256"
        }
      ],
      "stateMutability": "view",
      "type": "function"
    },
    {
      "inputs": [],
      "name": "renounceOwnership",
      "outputs": [],
      "stateMutability": "nonpayable",
      "type": "function"
    },
    {
      "inputs": [
        {
          "internalType": "uint256",
          "name": "_serviceId",
          "type": "uint256"
        },
        {
          "internalType": "bool",
          "name": "_approve",
          "type": "bool"
        }
      ],
      "name": "resolveDispute",
      "outputs": [],
      "stateMutability": "nonpayable",
      "type": "function"
    },
    {
      "inputs": [
        {
          "internalType": "address",
          "name": "",
          "type": "address"
        }
      ],
      "name": "roles",
      "outputs": [
        {
          "internalType": "enum Marketplace.Role",
          "name": "",
          "type": "uint8"
        }
      ],
      "stateMutability": "view",
      "type": "function"
    },
    {
      "inputs": [
        {
          "internalType": "uint256",
          "name": "",
          "type": "uint256"
        }
      ],
      "name": "services",
      "outputs": [
        {
          "internalType": "uint256",
          "name": "id",
          "type": "uint256"
        },
        {
          "internalType": "address",
          "name": "client",
          "type": "address"
        },
        {
          "internalType": "address",
          "name": "provider",
          "type": "address"
        },
        {
          "internalType": "uint256",
          "name": "price",
          "type": "uint256"
        },
        {
          "internalType": "enum Marketplace.ServiceState",
          "name": "state",
          "type": "uint8"
        },
        {
          "internalType": "string",
          "name": "description",
          "type": "string"
        },
        {
          "internalType": "string",
          "name": "deliveryDescription",
          "type": "string"
        }
      ],
      "stateMutability": "view",
      "type": "function"
    },
    {
      "inputs": [
        {
          "internalType": "address",
          "name": "user",
          "type": "address"
        },
        {
          "internalType": "enum Marketplace.Role",
          "name": "role",
          "type": "uint8"
        }
      ],
      "name": "setRole",
      "outputs": [],
      "stateMutability": "nonpayable",
      "type": "function"
    },
    {
      "inputs": [
        {
          "internalType": "address",
          "name": "newOwner",
          "type": "address"
        }
      ],
      "name": "transferOwnership",
      "outputs": [],
      "stateMutability": "nonpayable",
      "type": "function"
    }
  ],
  "bytecode": "0x608060405234801561001057600080fd5b5033600073ffffffffffffffffffffffffffffffffffffffff168173ffffffffffffffffffffffffffffffffffffffff16036100845760006040517f1e4fbdf700000000000000000000000000000000000000000000000000000000815260040161007b919061019e565b60405180910390fd5b6100938161009960201b60201c565b506101b9565b60008060009054906101000a900473ffffffffffffffffffffffffffffffffffffffff169050816000806101000a81548173ffffffffffffffffffffffffffffffffffffffff021916908373ffffffffffffffffffffffffffffffffffffffff1602179055508173ffffffffffffffffffffffffffffffffffffffff168173ffffffffffffffffffffffffffffffffffffffff167f8be0079c531659141344cd1fd0a4f28419497f9722a3daafe3b4186f6b6457e060405160405180910390a35050565b600073ffffffffffffffffffffffffffffffffffffffff82169050919050565b60006101888261015d565b9050919050565b6101988161017d565b82525050565b60006020820190506101b3600083018461018f565b92915050565b6149cd806101c86000396000f3fe6080604052600436106101665760003560e01c80638af9f5b9116100d1578063de43790f1161008a578063f2fde38b11610064578063f2fde38b14610568578063f5673c8c14610591578063f6c53d9b146105ad578063fadd2b69146105d857610166565b8063de43790f146104c5578063dfa52b66146104ee578063ef0e239b1461052b57610166565b80638af9f5b9146103775780638da5cb5b146103b457806399374642146103df578063a3d2392c1461041c578063acc16db514610445578063c22c4f431461048257610166565b8063715018a611610123578063715018a6146102655780637602578d1461027c5780637a870b63146102a75780637c7ca621146102e8578063832a05b71461031157806383f67f6e1461034e57610166565b806321c8bafe1461016b57806334b25ee21461019457806339d61bd8146101bd5780633b4b8bad146101e85780635257801214610213578063571c3e601461023c575b600080fd5b34801561017757600080fd5b50610192600480360381019061018d919061352e565b610615565b005b3480156101a057600080fd5b506101bb60048036038101906101b69190613593565b6108fe565b005b3480156101c957600080fd5b506101d2610cf1565b6040516101df919061388f565b60405180910390f35b3480156101f457600080fd5b506101fd610fee565b60405161020a919061388f565b60405180910390f35b34801561021f57600080fd5b5061023a600480360381019061023591906139e6565b61132a565b005b34801561024857600080fd5b50610263600480360381019061025e9190613a80565b6115e6565b005b34801561027157600080fd5b5061027a611659565b005b34801561028857600080fd5b5061029161166d565b60405161029e919061388f565b60405180910390f35b3480156102b357600080fd5b506102ce60048036038101906102c99190613ac0565b6119a9565b6040516102df959493929190613b77565b60405180910390f35b3480156102f457600080fd5b5061030f600480360381019061030a9190613bd1565b611ab1565b005b34801561031d57600080fd5b5061033860048036038101906103339190613ac0565b611dbf565b6040516103459190613cc5565b60405180910390f35b34801561035a57600080fd5b5061037560048036038101906103709190613ac0565b611f7c565b005b34801561038357600080fd5b5061039e60048036038101906103999190613ce7565b612502565b6040516103ab9190613dc3565b60405180910390f35b3480156103c057600080fd5b506103c9612599565b6040516103d69190613de5565b60405180910390f35b3480156103eb57600080fd5b5061040660048036038101906104019190613ce7565b6125c2565b6040516104139190613e48565b60405180910390f35b34801561042857600080fd5b50610443600480360381019061043e9190613e63565b6125e2565b005b34801561045157600080fd5b5061046c60048036038101906104679190613ebf565b6128ab565b6040516104799190613eff565b60405180910390f35b34801561048e57600080fd5b506104a960048036038101906104a4919061352e565b6128dc565b6040516104bc9796959493929190613f29565b60405180910390f35b3480156104d157600080fd5b506104ec60048036038101906104e7919061352e565b612a7b565b005b3480156104fa57600080fd5b506105156004803603810190610510919061352e565b612cfa565b6040516105229190613eff565b60405180910390f35b34801561053757600080fd5b50610552600480360381019061054d919061352e565b612d1e565b60405161055f9190614049565b60405180910390f35b34801561057457600080fd5b5061058f600480360381019061058a9190613ce7565b612f6a565b005b6105ab60048036038101906105a6919061352e565b612ff0565b005b3480156105b957600080fd5b506105c26132a9565b6040516105cf9190613eff565b60405180910390f35b3480156105e457600080fd5b506105ff60048036038101906105fa919061352e565b6132af565b60405161060c9190613eff565b60405180910390f35b600180600381111561062a5761062961364f565b5b600160003373ffffffffffffffffffffffffffffffffffffffff1673ffffffffffffffffffffffffffffffffffffffff16815260200190815260200160002060009054906101000a900460ff1660038111156106895761068861364f565b5b146106c9576040517f08c379a00000000000000000000000000000000000000000000000000000000081526004016106c0906140b7565b60405180910390fd5b8160038060068111156106df576106de61364f565b5b6003600084815260200190815260200160002060040160009054906101000a900460ff1660068111156107155761071461364f565b5b14610755576040517f08c379a000000000000000000000000000000000000000000000000000000000815260040161074c90614123565b60405180910390fd5b3373ffffffffffffffffffffffffffffffffffffffff166003600086815260200190815260200160002060010160009054906101000a900473ffffffffffffffffffffffffffffffffffffffff1673ffffffffffffffffffffffffffffffffffffffff16146107f9576040517f08c379a00000000000000000000000000000000000000000000000000000000081526004016107f09061418f565b60405180910390fd5b60046003600086815260200190815260200160002060040160006101000a81548160ff021916908360068111156108335761083261364f565b5b02179055506003600085815260200190815260200160002060020160009054906101000a900473ffffffffffffffffffffffffffffffffffffffff1673ffffffffffffffffffffffffffffffffffffffff166108fc60036000878152602001908152602001600020600301549081150290604051600060405180830381858888f193505050501580156108ca573d6000803e3d6000fd5b50837f7095a954dc58d088b11d7fadb23f8a211f4b0fa82210838ea4984cfc76a9286e60405160405180910390a250505050565b60038060038111156109135761091261364f565b5b600160003373ffffffffffffffffffffffffffffffffffffffff1673ffffffffffffffffffffffffffffffffffffffff16815260200190815260200160002060009054906101000a900460ff1660038111156109725761097161364f565b5b146109b2576040517f08c379a00000000000000000000000000000000000000000000000000000000081526004016109a9906140b7565b60405180910390fd5b8260058060068111156109c8576109c761364f565b5b6003600084815260200190815260200160002060040160009054906101000a900460ff1660068111156109fe576109fd61364f565b5b14610a3e576040517f08c379a0000000000000000000000000000000000000000000000000000000008152600401610a3590614123565b60405180910390fd5b8315610b1b5760046003600087815260200190815260200160002060040160006101000a81548160ff02191690836006811115610a7e57610a7d61364f565b5b02179055506003600086815260200190815260200160002060020160009054906101000a900473ffffffffffffffffffffffffffffffffffffffff1673ffffffffffffffffffffffffffffffffffffffff166108fc60036000888152602001908152602001600020600301549081150290604051600060405180830381858888f19350505050158015610b15573d6000803e3d6000fd5b50610bee565b60066003600087815260200190815260200160002060040160006101000a81548160ff02191690836006811115610b5557610b5461364f565b5b02179055506003600086815260200190815260200160002060010160009054906101000a900473ffffffffffffffffffffffffffffffffffffffff1673ffffffffffffffffffffffffffffffffffffffff166108fc60036000888152602001908152602001600020600301549081150290604051600060405180830381858888f19350505050158015610bec573d6000803e3d6000fd5b505b60005b600680549050811015610caf578560068281548110610c1357610c126141af565b5b906000526020600020015403610ca25760066001600680549050610c37919061420d565b81548110610c4857610c476141af565b5b906000526020600020015460068281548110610c6757610c666141af565b5b90600052602060002001819055506006805480610c8757610c86614241565b5b60019003818190600052602060002001600090559055610caf565b8080600101915050610bf1565b50847ffb43a92744861f817ee428589229c8e92d505379ac1b4af5b7cdbc67be799f123386604051610ce2929190614270565b60405180910390a25050505050565b6060600060068054905067ffffffffffffffff811115610d1457610d136138bb565b5b604051908082528060200260200182016040528015610d4d57816020015b610d3a613422565b815260200190600190039081610d325790505b50905060005b600680549050811015610fe6576003600060068381548110610d7857610d776141af565b5b906000526020600020015481526020019081526020016000206040518060e0016040529081600082015481526020016001820160009054906101000a900473ffffffffffffffffffffffffffffffffffffffff1673ffffffffffffffffffffffffffffffffffffffff1673ffffffffffffffffffffffffffffffffffffffff1681526020016002820160009054906101000a900473ffffffffffffffffffffffffffffffffffffffff1673ffffffffffffffffffffffffffffffffffffffff1673ffffffffffffffffffffffffffffffffffffffff168152602001600382015481526020016004820160009054906101000a900460ff166006811115610e8157610e8061364f565b5b6006811115610e9357610e9261364f565b5b8152602001600582018054610ea7906142c8565b80601f0160208091040260200160405190810160405280929190818152602001828054610ed3906142c8565b8015610f205780601f10610ef557610100808354040283529160200191610f20565b820191906000526020600020905b815481529060010190602001808311610f0357829003601f168201915b50505050508152602001600682018054610f39906142c8565b80601f0160208091040260200160405190810160405280929190818152602001828054610f65906142c8565b8015610fb25780601f10610f8757610100808354040283529160200191610fb2565b820191906000526020600020905b815481529060010190602001808311610f9557829003601f168201915b505050505081525050828281518110610fce57610fcd6141af565b5b60200260200101819052508080600101915050610d53565b508091505090565b6060600060025467ffffffffffffffff81111561100e5761100d6138bb565b5b60405190808252806020026020018201604052801561104757816020015b611034613422565b81526020019060019003908161102c5790505b5090506000805b60025481101561131e576002600681111561106c5761106b61364f565b5b6003600083815260200190815260200160002060040160009054906101000a900460ff1660068111156110a2576110a161364f565b5b0361131157600360008281526020019081526020016000206040518060e0016040529081600082015481526020016001820160009054906101000a900473ffffffffffffffffffffffffffffffffffffffff1673ffffffffffffffffffffffffffffffffffffffff1673ffffffffffffffffffffffffffffffffffffffff1681526020016002820160009054906101000a900473ffffffffffffffffffffffffffffffffffffffff1673ffffffffffffffffffffffffffffffffffffffff1673ffffffffffffffffffffffffffffffffffffffff168152602001600382015481526020016004820160009054906101000a900460ff1660068111156111aa576111a961364f565b5b60068111156111bc576111bb61364f565b5b81526020016005820180546111d0906142c8565b80601f01602080910402602001604051908101604052809291908181526020018280546111fc906142c8565b80156112495780601f1061121e57610100808354040283529160200191611249565b820191906000526020600020905b81548152906001019060200180831161122c57829003601f168201915b50505050508152602001600682018054611262906142c8565b80601f016020809104026020016040519081016040528092919081815260200182805461128e906142c8565b80156112db5780601f106112b0576101008083540402835291602001916112db565b820191906000526020600020905b8154815290600101906020018083116112be57829003601f168201915b5050505050815250508383815181106112f7576112f66141af565b5b6020026020010181905250818061130d906142f9565b9250505b808060010191505061104e565b50808252819250505090565b600180600381111561133f5761133e61364f565b5b600160003373ffffffffffffffffffffffffffffffffffffffff1673ffffffffffffffffffffffffffffffffffffffff16815260200190815260200160002060009054906101000a900460ff16600381111561139e5761139d61364f565b5b146113de576040517f08c379a00000000000000000000000000000000000000000000000000000000081526004016113d5906140b7565b60405180910390fd5b6040518060e0016040528060025481526020013373ffffffffffffffffffffffffffffffffffffffff168152602001600073ffffffffffffffffffffffffffffffffffffffff16815260200160008152602001600060068111156114455761144461364f565b5b8152602001838152602001604051806020016040528060008152508152506003600060025481526020019081526020016000206000820151816000015560208201518160010160006101000a81548173ffffffffffffffffffffffffffffffffffffffff021916908373ffffffffffffffffffffffffffffffffffffffff16021790555060408201518160020160006101000a81548173ffffffffffffffffffffffffffffffffffffffff021916908373ffffffffffffffffffffffffffffffffffffffff1602179055506060820151816003015560808201518160040160006101000a81548160ff021916908360068111156115455761154461364f565b5b021790555060a082015181600501908161155f91906144ed565b5060c082015181600601908161157591906144ed565b509050503373ffffffffffffffffffffffffffffffffffffffff166002547f4f61262ead34b30298acaceb42f0ef8c5d6fa3a7568847ea9ee1cc6d9fd1664f846040516115c291906145bf565b60405180910390a3600260008154809291906115dd906142f9565b91905055505050565b6115ee6132cf565b80600160008473ffffffffffffffffffffffffffffffffffffffff1673ffffffffffffffffffffffffffffffffffffffff16815260200190815260200160002060006101000a81548160ff021916908360038111156116505761164f61364f565b5b02179055505050565b6116616132cf565b61166b6000613356565b565b6060600060025467ffffffffffffffff81111561168d5761168c6138bb565b5b6040519080825280602002602001820160405280156116c657816020015b6116b3613422565b8152602001906001900390816116ab5790505b5090506000805b60025481101561199d57600060068111156116eb576116ea61364f565b5b6003600083815260200190815260200160002060040160009054906101000a900460ff1660068111156117215761172061364f565b5b0361199057600360008281526020019081526020016000206040518060e0016040529081600082015481526020016001820160009054906101000a900473ffffffffffffffffffffffffffffffffffffffff1673ffffffffffffffffffffffffffffffffffffffff1673ffffffffffffffffffffffffffffffffffffffff1681526020016002820160009054906101000a900473ffffffffffffffffffffffffffffffffffffffff1673ffffffffffffffffffffffffffffffffffffffff1673ffffffffffffffffffffffffffffffffffffffff168152602001600382015481526020016004820160009054906101000a900460ff1660068111156118295761182861364f565b5b600681111561183b5761183a61364f565b5b815260200160058201805461184f906142c8565b80601f016020809104026020016040519081016040528092919081815260200182805461187b906142c8565b80156118c85780601f1061189d576101008083540402835291602001916118c8565b820191906000526020600020905b8154815290600101906020018083116118ab57829003601f168201915b505050505081526020016006820180546118e1906142c8565b80601f016020809104026020016040519081016040528092919081815260200182805461190d906142c8565b801561195a5780601f1061192f5761010080835404028352916020019161195a565b820191906000526020600020905b81548152906001019060200180831161193d57829003601f168201915b505050505081525050838381518110611976576119756141af565b5b6020026020010181905250818061198c906142f9565b9250505b80806001019150506116cd565b50808252819250505090565b600460205281600052604060002081815481106119c557600080fd5b9060005260206000209060050201600091509150508060000160009054906101000a900473ffffffffffffffffffffffffffffffffffffffff1690806001015490806002018054611a15906142c8565b80601f0160208091040260200160405190810160405280929190818152602001828054611a41906142c8565b8015611a8e5780601f10611a6357610100808354040283529160200191611a8e565b820191906000526020600020905b815481529060010190602001808311611a7157829003601f168201915b5050505050908060030154908060040160009054906101000a900460ff16905085565b6002806003811115611ac657611ac561364f565b5b600160003373ffffffffffffffffffffffffffffffffffffffff1673ffffffffffffffffffffffffffffffffffffffff16815260200190815260200160002060009054906101000a900460ff166003811115611b2557611b2461364f565b5b14611b65576040517f08c379a0000000000000000000000000000000000000000000000000000000008152600401611b5c906140b7565b60405180910390fd5b836000806006811115611b7b57611b7a61364f565b5b6003600084815260200190815260200160002060040160009054906101000a900460ff166006811115611bb157611bb061364f565b5b14611bf1576040517f08c379a0000000000000000000000000000000000000000000000000000000008152600401611be890614123565b60405180910390fd5b600460008781526020019081526020016000206040518060a001604052803373ffffffffffffffffffffffffffffffffffffffff16815260200188815260200187815260200186815260200160001515815250908060018154018082558091505060019003906000526020600020906005020160009091909190915060008201518160000160006101000a81548173ffffffffffffffffffffffffffffffffffffffff021916908373ffffffffffffffffffffffffffffffffffffffff160217905550602082015181600101556040820151816002019081611cd391906144ed565b506060820151816003015560808201518160040160006101000a81548160ff0219169083151502179055505050600560003373ffffffffffffffffffffffffffffffffffffffff1673ffffffffffffffffffffffffffffffffffffffff1681526020019081526020016000208690806001815401808255809150506001900390600052602060002001600090919091909150553373ffffffffffffffffffffffffffffffffffffffff16867fe6179624bbd7a2bb80c50cd68c9df1503f275824d80100032264b5fab04f08cd8787604051611daf9291906145e1565b60405180910390a3505050505050565b611dc761349d565b60046000848152602001908152602001600020805490508210611e1f576040517f08c379a0000000000000000000000000000000000000000000000000000000008152600401611e169061465d565b60405180910390fd5b600460008481526020019081526020016000208281548110611e4457611e436141af565b5b90600052602060002090600502016040518060a00160405290816000820160009054906101000a900473ffffffffffffffffffffffffffffffffffffffff1673ffffffffffffffffffffffffffffffffffffffff1673ffffffffffffffffffffffffffffffffffffffff16815260200160018201548152602001600282018054611ecd906142c8565b80601f0160208091040260200160405190810160405280929190818152602001828054611ef9906142c8565b8015611f465780601f10611f1b57610100808354040283529160200191611f46565b820191906000526020600020905b815481529060010190602001808311611f2957829003601f168201915b50505050508152602001600382015481526020016004820160009054906101000a900460ff161515151581525050905092915050565b6001806003811115611f9157611f9061364f565b5b600160003373ffffffffffffffffffffffffffffffffffffffff1673ffffffffffffffffffffffffffffffffffffffff16815260200190815260200160002060009054906101000a900460ff166003811115611ff057611fef61364f565b5b14612030576040517f08c379a0000000000000000000000000000000000000000000000000000000008152600401612027906140b7565b60405180910390fd5b8260008060068111156120465761204561364f565b5b6003600084815260200190815260200160002060040160009054906101000a900460ff16600681111561207c5761207b61364f565b5b146120bc576040517f08c379a00000000000000000000000000000000000000000000000000000000081526004016120b390614123565b60405180910390fd5b3373ffffffffffffffffffffffffffffffffffffffff166003600087815260200190815260200160002060010160009054906101000a900473ffffffffffffffffffffffffffffffffffffffff1673ffffffffffffffffffffffffffffffffffffffff1614612160576040517f08c379a0000000000000000000000000000000000000000000000000000000008152600401612157906146c9565b60405180910390fd5b600460008681526020019081526020016000208054905084106121b8576040517f08c379a00000000000000000000000000000000000000000000000000000000081526004016121af90614735565b60405180910390fd5b60006004600087815260200190815260200160002085815481106121df576121de6141af565b5b906000526020600020906005020190508060040160009054906101000a900460ff1615612241576040517f08c379a0000000000000000000000000000000000000000000000000000000008152600401612238906147a1565b60405180910390fd5b600260038111156122555761225461364f565b5b600160008360000160009054906101000a900473ffffffffffffffffffffffffffffffffffffffff1673ffffffffffffffffffffffffffffffffffffffff1673ffffffffffffffffffffffffffffffffffffffff16815260200190815260200160002060009054906101000a900460ff1660038111156122d8576122d761364f565b5b14612318576040517f08c379a000000000000000000000000000000000000000000000000000000000815260040161230f9061480d565b60405180910390fd5b60018160040160006101000a81548160ff0219169083151502179055508060000160009054906101000a900473ffffffffffffffffffffffffffffffffffffffff166003600088815260200190815260200160002060020160006101000a81548173ffffffffffffffffffffffffffffffffffffffff021916908373ffffffffffffffffffffffffffffffffffffffff1602179055508060030154600360008881526020019081526020016000206003018190555060016003600088815260200190815260200160002060040160006101000a81548160ff021916908360068111156124075761240661364f565b5b02179055508060000160009054906101000a900473ffffffffffffffffffffffffffffffffffffffff1673ffffffffffffffffffffffffffffffffffffffff16867fe32571039ef324a825426dd5cdeae5b999f541d42d305cff5d7aec821280d82b836003015460405161247b9190613eff565b60405180910390a38060000160009054906101000a900473ffffffffffffffffffffffffffffffffffffffff1673ffffffffffffffffffffffffffffffffffffffff16867fdf8c2fe8b2695fafbafd0ef6c88254c7a9078aa98dad9a4b927d3d43c87260e983600301546040516124f29190613eff565b60405180910390a3505050505050565b6060600560008373ffffffffffffffffffffffffffffffffffffffff1673ffffffffffffffffffffffffffffffffffffffff16815260200190815260200160002080548060200260200160405190810160405280929190818152602001828054801561258d57602002820191906000526020600020905b815481526020019060010190808311612579575b50505050509050919050565b60008060009054906101000a900473ffffffffffffffffffffffffffffffffffffffff16905090565b60016020528060005260406000206000915054906101000a900460ff1681565b60028060038111156125f7576125f661364f565b5b600160003373ffffffffffffffffffffffffffffffffffffffff1673ffffffffffffffffffffffffffffffffffffffff16815260200190815260200160002060009054906101000a900460ff1660038111156126565761265561364f565b5b14612696576040517f08c379a000000000000000000000000000000000000000000000000000000000815260040161268d906140b7565b60405180910390fd5b8260028060068111156126ac576126ab61364f565b5b6003600084815260200190815260200160002060040160009054906101000a900460ff1660068111156126e2576126e161364f565b5b14612722576040517f08c379a000000000000000000000000000000000000000000000000000000000815260040161271990614123565b60405180910390fd5b3373ffffffffffffffffffffffffffffffffffffffff166003600087815260200190815260200160002060020160009054906101000a900473ffffffffffffffffffffffffffffffffffffffff1673ffffffffffffffffffffffffffffffffffffffff16146127c6576040517f08c379a00000000000000000000000000000000000000000000000000000000081526004016127bd9061489f565b60405180910390fd5b600084511161280a576040517f08c379a00000000000000000000000000000000000000000000000000000000081526004016128019061490b565b60405180910390fd5b600380600087815260200190815260200160002060040160006101000a81548160ff021916908360068111156128435761284261364f565b5b02179055508360036000878152602001908152602001600020600601908161286b91906144ed565b50847f30443d61e3d9136b806372371d8e23349b37e56f0bd984c55cc772e37d1ddf1d8560405161289c91906145bf565b60405180910390a25050505050565b600560205281600052604060002081815481106128c757600080fd5b90600052602060002001600091509150505481565b60036020528060005260406000206000915090508060000154908060010160009054906101000a900473ffffffffffffffffffffffffffffffffffffffff16908060020160009054906101000a900473ffffffffffffffffffffffffffffffffffffffff16908060030154908060040160009054906101000a900460ff169080600501805461296a906142c8565b80601f0160208091040260200160405190810160405280929190818152602001828054612996906142c8565b80156129e35780601f106129b8576101008083540402835291602001916129e3565b820191906000526020600020905b8154815290600101906020018083116129c657829003601f168201915b5050505050908060060180546129f8906142c8565b80601f0160208091040260200160405190810160405280929190818152602001828054612a24906142c8565b8015612a715780601f10612a4657610100808354040283529160200191612a71565b820191906000526020600020905b815481529060010190602001808311612a5457829003601f168201915b5050505050905087565b6001806003811115612a9057612a8f61364f565b5b600160003373ffffffffffffffffffffffffffffffffffffffff1673ffffffffffffffffffffffffffffffffffffffff16815260200190815260200160002060009054906101000a900460ff166003811115612aef57612aee61364f565b5b14612b2f576040517f08c379a0000000000000000000000000000000000000000000000000000000008152600401612b26906140b7565b60405180910390fd5b816003806006811115612b4557612b4461364f565b5b6003600084815260200190815260200160002060040160009054906101000a900460ff166006811115612b7b57612b7a61364f565b5b14612bbb576040517f08c379a0000000000000000000000000000000000000000000000000000000008152600401612bb290614123565b60405180910390fd5b3373ffffffffffffffffffffffffffffffffffffffff166003600086815260200190815260200160002060010160009054906101000a900473ffffffffffffffffffffffffffffffffffffffff1673ffffffffffffffffffffffffffffffffffffffff1614612c5f576040517f08c379a0000000000000000000000000000000000000000000000000000000008152600401612c569061418f565b60405180910390fd5b60056003600086815260200190815260200160002060040160006101000a81548160ff02191690836006811115612c9957612c9861364f565b5b02179055506006849080600181540180825580915050600190039060005260206000200160009091909190915055837ff0a617b1186156fdc2fde56d7cb28e70d80ff02648ba33a7690d4ab412cab8cd60405160405180910390a250505050565b60068181548110612d0a57600080fd5b906000526020600020016000915090505481565b612d26613422565b600360008381526020019081526020016000206040518060e0016040529081600082015481526020016001820160009054906101000a900473ffffffffffffffffffffffffffffffffffffffff1673ffffffffffffffffffffffffffffffffffffffff1673ffffffffffffffffffffffffffffffffffffffff1681526020016002820160009054906101000a900473ffffffffffffffffffffffffffffffffffffffff1673ffffffffffffffffffffffffffffffffffffffff1673ffffffffffffffffffffffffffffffffffffffff168152602001600382015481526020016004820160009054906101000a900460ff166006811115612e2957612e2861364f565b5b6006811115612e3b57612e3a61364f565b5b8152602001600582018054612e4f906142c8565b80601f0160208091040260200160405190810160405280929190818152602001828054612e7b906142c8565b8015612ec85780601f10612e9d57610100808354040283529160200191612ec8565b820191906000526020600020905b815481529060010190602001808311612eab57829003601f168201915b50505050508152602001600682018054612ee1906142c8565b80601f0160208091040260200160405190810160405280929190818152602001828054612f0d906142c8565b8015612f5a5780601f10612f2f57610100808354040283529160200191612f5a565b820191906000526020600020905b815481529060010190602001808311612f3d57829003601f168201915b5050505050815250509050919050565b612f726132cf565b600073ffffffffffffffffffffffffffffffffffffffff168173ffffffffffffffffffffffffffffffffffffffff1603612fe45760006040517f1e4fbdf7000000000000000000000000000000000000000000000000000000008152600401612fdb9190613de5565b60405180910390fd5b612fed81613356565b50565b60018060038111156130055761300461364f565b5b600160003373ffffffffffffffffffffffffffffffffffffffff1673ffffffffffffffffffffffffffffffffffffffff16815260200190815260200160002060009054906101000a900460ff1660038111156130645761306361364f565b5b146130a4576040517f08c379a000000000000000000000000000000000000000000000000000000000815260040161309b906140b7565b60405180910390fd5b8160018060068111156130ba576130b961364f565b5b6003600084815260200190815260200160002060040160009054906101000a900460ff1660068111156130f0576130ef61364f565b5b14613130576040517f08c379a000000000000000000000000000000000000000000000000000000000815260040161312790614123565b60405180910390fd5b60036000858152602001908152602001600020600301543414613188576040517f08c379a000000000000000000000000000000000000000000000000000000000815260040161317f90614977565b60405180910390fd5b3373ffffffffffffffffffffffffffffffffffffffff166003600086815260200190815260200160002060010160009054906101000a900473ffffffffffffffffffffffffffffffffffffffff1673ffffffffffffffffffffffffffffffffffffffff161461322c576040517f08c379a0000000000000000000000000000000000000000000000000000000008152600401613223906146c9565b60405180910390fd5b60026003600086815260200190815260200160002060040160006101000a81548160ff021916908360068111156132665761326561364f565b5b0217905550837f0c438ca092a105cef6f62094945dc7822277b3450b3ec1ab2a6fe1a680df8d8d3460405161329b9190613eff565b60405180910390a250505050565b60025481565b600060046000838152602001908152602001600020805490509050919050565b6132d761341a565b73ffffffffffffffffffffffffffffffffffffffff166132f5612599565b73ffffffffffffffffffffffffffffffffffffffff16146133545761331861341a565b6040517f118cdaa700000000000000000000000000000000000000000000000000000000815260040161334b9190613de5565b60405180910390fd5b565b60008060009054906101000a900473ffffffffffffffffffffffffffffffffffffffff169050816000806101000a81548173ffffffffffffffffffffffffffffffffffffffff021916908373ffffffffffffffffffffffffffffffffffffffff1602179055508173ffffffffffffffffffffffffffffffffffffffff168173ffffffffffffffffffffffffffffffffffffffff167f8be0079c531659141344cd1fd0a4f28419497f9722a3daafe3b4186f6b6457e060405160405180910390a35050565b600033905090565b6040518060e0016040528060008152602001600073ffffffffffffffffffffffffffffffffffffffff168152602001600073ffffffffffffffffffffffffffffffffffffffff16815260200160008152602001600060068111156134895761348861364f565b5b815260200160608152602001606081525090565b6040518060a00160405280600073ffffffffffffffffffffffffffffffffffffffff1681526020016000815260200160608152602001600081526020016000151581525090565b6000604051905090565b600080fd5b600080fd5b6000819050919050565b61350b816134f8565b811461351657600080fd5b50565b60008135905061352881613502565b92915050565b600060208284031215613544576135436134ee565b5b600061355284828501613519565b91505092915050565b60008115159050919050565b6135708161355b565b811461357b57600080fd5b50565b60008135905061358d81613567565b92915050565b600080604083850312156135aa576135a96134ee565b5b60006135b885828601613519565b92505060206135c98582860161357e565b9150509250929050565b600081519050919050565b600082825260208201905092915050565b6000819050602082019050919050565b613608816134f8565b82525050565b600073ffffffffffffffffffffffffffffffffffffffff82169050919050565b60006136398261360e565b9050919050565b6136498161362e565b82525050565b7f4e487b7100000000000000000000000000000000000000000000000000000000600052602160045260246000fd5b6007811061368f5761368e61364f565b5b50565b60008190506136a08261367e565b919050565b60006136b082613692565b9050919050565b6136c0816136a5565b82525050565b600081519050919050565b600082825260208201905092915050565b60005b838110156137005780820151818401526020810190506136e5565b60008484015250505050565b6000601f19601f8301169050919050565b6000613728826136c6565b61373281856136d1565b93506137428185602086016136e2565b61374b8161370c565b840191505092915050565b600060e08301600083015161376e60008601826135ff565b5060208301516137816020860182613640565b5060408301516137946040860182613640565b5060608301516137a760608601826135ff565b5060808301516137ba60808601826136b7565b5060a083015184820360a08601526137d2828261371d565b91505060c083015184820360c08601526137ec828261371d565b9150508091505092915050565b60006138058383613756565b905092915050565b6000602082019050919050565b6000613825826135d3565b61382f81856135de565b935083602082028501613841856135ef565b8060005b8581101561387d578484038952815161385e85826137f9565b94506138698361380d565b925060208a01995050600181019050613845565b50829750879550505050505092915050565b600060208201905081810360008301526138a9818461381a565b905092915050565b600080fd5b600080fd5b7f4e487b7100000000000000000000000000000000000000000000000000000000600052604160045260246000fd5b6138f38261370c565b810181811067ffffffffffffffff82111715613912576139116138bb565b5b80604052505050565b60006139256134e4565b905061393182826138ea565b919050565b600067ffffffffffffffff821115613951576139506138bb565b5b61395a8261370c565b9050602081019050919050565b82818337600083830152505050565b600061398961398484613936565b61391b565b9050828152602081018484840111156139a5576139a46138b6565b5b6139b0848285613967565b509392505050565b600082601f8301126139cd576139cc6138b1565b5b81356139dd848260208601613976565b91505092915050565b6000602082840312156139fc576139fb6134ee565b5b600082013567ffffffffffffffff811115613a1a57613a196134f3565b5b613a26848285016139b8565b91505092915050565b613a388161362e565b8114613a4357600080fd5b50565b600081359050613a5581613a2f565b92915050565b60048110613a6857600080fd5b50565b600081359050613a7a81613a5b565b92915050565b60008060408385031215613a9757613a966134ee565b5b6000613aa585828601613a46565b9250506020613ab685828601613a6b565b9150509250929050565b60008060408385031215613ad757613ad66134ee565b5b6000613ae585828601613519565b9250506020613af685828601613519565b9150509250929050565b613b098161362e565b82525050565b613b18816134f8565b82525050565b600082825260208201905092915050565b6000613b3a826136c6565b613b448185613b1e565b9350613b548185602086016136e2565b613b5d8161370c565b840191505092915050565b613b718161355b565b82525050565b600060a082019050613b8c6000830188613b00565b613b996020830187613b0f565b8181036040830152613bab8186613b2f565b9050613bba6060830185613b0f565b613bc76080830184613b68565b9695505050505050565b600080600060608486031215613bea57613be96134ee565b5b6000613bf886828701613519565b935050602084013567ffffffffffffffff811115613c1957613c186134f3565b5b613c25868287016139b8565b9250506040613c3686828701613519565b9150509250925092565b613c498161355b565b82525050565b600060a083016000830151613c676000860182613640565b506020830151613c7a60208601826135ff565b5060408301518482036040860152613c92828261371d565b9150506060830151613ca760608601826135ff565b506080830151613cba6080860182613c40565b508091505092915050565b60006020820190508181036000830152613cdf8184613c4f565b905092915050565b600060208284031215613cfd57613cfc6134ee565b5b6000613d0b84828501613a46565b91505092915050565b600081519050919050565b600082825260208201905092915050565b6000819050602082019050919050565b6000613d4c83836135ff565b60208301905092915050565b6000602082019050919050565b6000613d7082613d14565b613d7a8185613d1f565b9350613d8583613d30565b8060005b83811015613db6578151613d9d8882613d40565b9750613da883613d58565b925050600181019050613d89565b5085935050505092915050565b60006020820190508181036000830152613ddd8184613d65565b905092915050565b6000602082019050613dfa6000830184613b00565b92915050565b60048110613e1157613e1061364f565b5b50565b6000819050613e2282613e00565b919050565b6000613e3282613e14565b9050919050565b613e4281613e27565b82525050565b6000602082019050613e5d6000830184613e39565b92915050565b60008060408385031215613e7a57613e796134ee565b5b6000613e8885828601613519565b925050602083013567ffffffffffffffff811115613ea957613ea86134f3565b5b613eb5858286016139b8565b9150509250929050565b60008060408385031215613ed657613ed56134ee565b5b6000613ee485828601613a46565b9250506020613ef585828601613519565b9150509250929050565b6000602082019050613f146000830184613b0f565b92915050565b613f23816136a5565b82525050565b600060e082019050613f3e600083018a613b0f565b613f4b6020830189613b00565b613f586040830188613b00565b613f656060830187613b0f565b613f726080830186613f1a565b81810360a0830152613f848185613b2f565b905081810360c0830152613f988184613b2f565b905098975050505050505050565b600060e083016000830151613fbe60008601826135ff565b506020830151613fd16020860182613640565b506040830151613fe46040860182613640565b506060830151613ff760608601826135ff565b50608083015161400a60808601826136b7565b5060a083015184820360a0860152614022828261371d565b91505060c083015184820360c086015261403c828261371d565b9150508091505092915050565b600060208201905081810360008301526140638184613fa6565b905092915050565b7f556e617574686f72697a656420726f6c65000000000000000000000000000000600082015250565b60006140a1601183613b1e565b91506140ac8261406b565b602082019050919050565b600060208201905081810360008301526140d081614094565b9050919050565b7f496e76616c696420737461746520666f72207468697320616374696f6e000000600082015250565b600061410d601d83613b1e565b9150614118826140d7565b602082019050919050565b6000602082019050818103600083015261413c81614100565b9050919050565b7f596f7520617265206e6f742074686520636c69656e7400000000000000000000600082015250565b6000614179601683613b1e565b915061418482614143565b602082019050919050565b600060208201905081810360008301526141a88161416c565b9050919050565b7f4e487b7100000000000000000000000000000000000000000000000000000000600052603260045260246000fd5b7f4e487b7100000000000000000000000000000000000000000000000000000000600052601160045260246000fd5b6000614218826134f8565b9150614223836134f8565b925082820390508181111561423b5761423a6141de565b5b92915050565b7f4e487b7100000000000000000000000000000000000000000000000000000000600052603160045260246000fd5b60006040820190506142856000830185613b00565b6142926020830184613b68565b9392505050565b7f4e487b7100000000000000000000000000000000000000000000000000000000600052602260045260246000fd5b600060028204905060018216806142e057607f821691505b6020821081036142f3576142f2614299565b5b50919050565b6000614304826134f8565b91507fffffffffffffffffffffffffffffffffffffffffffffffffffffffffffffffff8203614336576143356141de565b5b600182019050919050565b60008190508160005260206000209050919050565b60006020601f8301049050919050565b600082821b905092915050565b6000600883026143a37fffffffffffffffffffffffffffffffffffffffffffffffffffffffffffffffff82614366565b6143ad8683614366565b95508019841693508086168417925050509392505050565b6000819050919050565b60006143ea6143e56143e0846134f8565b6143c5565b6134f8565b9050919050565b6000819050919050565b614404836143cf565b614418614410826143f1565b848454614373565b825550505050565b600090565b61442d614420565b6144388184846143fb565b505050565b5b8181101561445c57614451600082614425565b60018101905061443e565b5050565b601f8211156144a15761447281614341565b61447b84614356565b8101602085101561448a578190505b61449e61449685614356565b83018261443d565b50505b505050565b600082821c905092915050565b60006144c4600019846008026144a6565b1980831691505092915050565b60006144dd83836144b3565b9150826002028217905092915050565b6144f6826136c6565b67ffffffffffffffff81111561450f5761450e6138bb565b5b61451982546142c8565b614524828285614460565b600060209050601f8311600181146145575760008415614545578287015190505b61454f85826144d1565b8655506145b7565b601f19841661456586614341565b60005b8281101561458d57848901518255600182019150602085019450602081019050614568565b868310156145aa57848901516145a6601f8916826144b3565b8355505b6001600288020188555050505b505050505050565b600060208201905081810360008301526145d98184613b2f565b905092915050565b600060408201905081810360008301526145fb8185613b2f565b905061460a6020830184613b0f565b9392505050565b7f496e76616c6964206170706c69636174696f6e20696e64657800000000000000600082015250565b6000614647601983613b1e565b915061465282614611565b602082019050919050565b600060208201905081810360008301526146768161463a565b9050919050565b7f4e6f7420746865207365727669636520636c69656e7400000000000000000000600082015250565b60006146b3601683613b1e565b91506146be8261467d565b602082019050919050565b600060208201905081810360008301526146e2816146a6565b9050919050565b7f496e76616c6964206170706c69636174696f6e00000000000000000000000000600082015250565b600061471f601383613b1e565b915061472a826146e9565b602082019050919050565b6000602082019050818103600083015261474e81614712565b9050919050565b7f4170706c69636174696f6e20616c726561647920616363657074656400000000600082015250565b600061478b601c83613b1e565b915061479682614755565b602082019050919050565b600060208201905081810360008301526147ba8161477e565b9050919050565b7f4170706c6963616e74206973206e6f7420612070726f76696465720000000000600082015250565b60006147f7601b83613b1e565b9150614802826147c1565b602082019050919050565b60006020820190508181036000830152614826816147ea565b9050919050565b7f596f7520617265206e6f742061737369676e656420746f20746869732073657260008201527f7669636500000000000000000000000000000000000000000000000000000000602082015250565b6000614889602483613b1e565b91506148948261482d565b604082019050919050565b600060208201905081810360008301526148b88161487c565b9050919050565b7f44656c6976657279206465736372697074696f6e207265717569726564000000600082015250565b60006148f5601d83613b1e565b9150614900826148bf565b602082019050919050565b60006020820190508181036000830152614924816148e8565b9050919050565b7f496e636f72726563742045544820616d6f756e74000000000000000000000000600082015250565b6000614961601483613b1e565b915061496c8261492b565b602082019050919050565b6000602082019050818103600083015261499081614954565b905091905056fea26469706673582212203b3c6c9a39f336b481bf2e617e65d458e3193a81649734e179998c59f8159f7b64736f6c634300081c0033",
  "linkReferences": {},
  "deployedLinkReferences": {}
}