{
  "_format": "hh-sol-artifact-1",
  "contractName": "Marketplace",
  "sourceName": "contracts/Marketplace.sol",
  "abi": [
    {
      "inputs": [],
      "stateMutability": "nonpayable",
      "type": "constructor"
    },
    {
      "inputs": [
        {
          "internalType": "address",
          "name": "owner",
          "type": "address"
        }
      ],
      "name": "OwnableInvalidOwner",
      "type": "error"
    },
    {
      "inputs": [
        {
          "internalType": "address",
          "name": "account",
          "type": "address"
        }
      ],
      "name": "OwnableUnauthorizedAccount",
      "type": "error"
    },
    {
      "anonymous": false,
      "inputs": [
        {
          "indexed": true,
          "internalType": "address",
          "name": "previousOwner",
          "type": "address"
        },
        {
          "indexed": true,
          "internalType": "address",
          "name": "newOwner",
          "type": "address"
        }
      ],
      "name": "OwnershipTransferred",
      "type": "event"
    },
    {
      "anonymous": false,
      "inputs": [
        {
          "indexed": true,
          "internalType": "uint256",
          "name": "serviceId",
          "type": "uint256"
        },
        {
          "indexed": true,
          "internalType": "address",
          "name": "provider",
          "type": "address"
        }
      ],
      "name": "ProviderAssigned",
      "type": "event"
    },
    {
      "anonymous": false,
      "inputs": [
        {
          "indexed": true,
          "internalType": "uint256",
          "name": "serviceId",
          "type": "uint256"
        }
      ],
      "name": "ServiceApproved",
      "type": "event"
    },
    {
      "anonymous": false,
      "inputs": [
        {
          "indexed": true,
          "internalType": "uint256",
          "name": "serviceId",
          "type": "uint256"
        },
        {
          "indexed": true,
          "internalType": "address",
          "name": "client",
          "type": "address"
        },
        {
          "indexed": false,
          "internalType": "string",
          "name": "description",
          "type": "string"
        }
      ],
      "name": "ServiceCreated",
      "type": "event"
    },
    {
      "anonymous": false,
      "inputs": [
        {
          "indexed": true,
          "internalType": "uint256",
          "name": "serviceId",
          "type": "uint256"
        }
      ],
      "name": "ServiceDelivered",
      "type": "event"
    },
    {
      "anonymous": false,
      "inputs": [
        {
          "indexed": true,
          "internalType": "uint256",
          "name": "serviceId",
          "type": "uint256"
        }
      ],
      "name": "ServiceDisputed",
      "type": "event"
    },
    {
      "anonymous": false,
      "inputs": [
        {
          "indexed": true,
          "internalType": "uint256",
          "name": "serviceId",
          "type": "uint256"
        },
        {
          "indexed": false,
          "internalType": "uint256",
          "name": "amount",
          "type": "uint256"
        }
      ],
      "name": "ServiceFunded",
      "type": "event"
    },
    {
      "anonymous": false,
      "inputs": [
        {
          "indexed": true,
          "internalType": "uint256",
          "name": "serviceId",
          "type": "uint256"
        },
        {
          "indexed": false,
          "internalType": "address",
          "name": "resolver",
          "type": "address"
        },
        {
          "indexed": false,
          "internalType": "bool",
          "name": "approved",
          "type": "bool"
        }
      ],
      "name": "ServiceResolved",
      "type": "event"
    },
    {
      "inputs": [
        {
          "internalType": "uint256",
          "name": "_serviceId",
          "type": "uint256"
        }
      ],
      "name": "approveService",
      "outputs": [],
      "stateMutability": "nonpayable",
      "type": "function"
    },
    {
      "inputs": [
        {
          "internalType": "uint256",
          "name": "_serviceId",
          "type": "uint256"
        },
        {
          "internalType": "address",
          "name": "_provider",
          "type": "address"
        }
      ],
      "name": "assignProvider",
      "outputs": [],
      "stateMutability": "nonpayable",
      "type": "function"
    },
    {
      "inputs": [
        {
          "internalType": "string",
          "name": "_description",
          "type": "string"
        },
        {
          "internalType": "uint256",
          "name": "_price",
          "type": "uint256"
        }
      ],
      "name": "createService",
      "outputs": [],
      "stateMutability": "nonpayable",
      "type": "function"
    },
    {
      "inputs": [
        {
          "internalType": "uint256",
          "name": "_serviceId",
          "type": "uint256"
        }
      ],
      "name": "deliverService",
      "outputs": [],
      "stateMutability": "nonpayable",
      "type": "function"
    },
    {
      "inputs": [
        {
          "internalType": "uint256",
          "name": "_serviceId",
          "type": "uint256"
        }
      ],
      "name": "disputeService",
      "outputs": [],
      "stateMutability": "nonpayable",
      "type": "function"
    },
    {
      "inputs": [
        {
          "internalType": "uint256",
          "name": "_serviceId",
          "type": "uint256"
        }
      ],
      "name": "fundService",
      "outputs": [],
      "stateMutability": "payable",
      "type": "function"
    },
    {
      "inputs": [
        {
          "internalType": "uint256",
          "name": "_serviceId",
          "type": "uint256"
        }
      ],
      "name": "getService",
      "outputs": [
        {
          "components": [
            {
              "internalType": "uint256",
              "name": "id",
              "type": "uint256"
            },
            {
              "internalType": "address",
              "name": "client",
              "type": "address"
            },
            {
              "internalType": "address",
              "name": "provider",
              "type": "address"
            },
            {
              "internalType": "uint256",
              "name": "price",
              "type": "uint256"
            },
            {
              "internalType": "enum Marketplace.ServiceState",
              "name": "state",
              "type": "uint8"
            },
            {
              "internalType": "string",
              "name": "description",
              "type": "string"
            }
          ],
          "internalType": "struct Marketplace.Service",
          "name": "",
          "type": "tuple"
        }
      ],
      "stateMutability": "view",
      "type": "function"
    },
    {
      "inputs": [],
      "name": "nextServiceId",
      "outputs": [
        {
          "internalType": "uint256",
          "name": "",
          "type": "uint256"
        }
      ],
      "stateMutability": "view",
      "type": "function"
    },
    {
      "inputs": [],
      "name": "owner",
      "outputs": [
        {
          "internalType": "address",
          "name": "",
          "type": "address"
        }
      ],
      "stateMutability": "view",
      "type": "function"
    },
    {
      "inputs": [],
      "name": "renounceOwnership",
      "outputs": [],
      "stateMutability": "nonpayable",
      "type": "function"
    },
    {
      "inputs": [
        {
          "internalType": "uint256",
          "name": "_serviceId",
          "type": "uint256"
        },
        {
          "internalType": "bool",
          "name": "_approve",
          "type": "bool"
        }
      ],
      "name": "resolveDispute",
      "outputs": [],
      "stateMutability": "nonpayable",
      "type": "function"
    },
    {
      "inputs": [
        {
          "internalType": "address",
          "name": "",
          "type": "address"
        }
      ],
      "name": "roles",
      "outputs": [
        {
          "internalType": "enum Marketplace.Role",
          "name": "",
          "type": "uint8"
        }
      ],
      "stateMutability": "view",
      "type": "function"
    },
    {
      "inputs": [
        {
          "internalType": "uint256",
          "name": "",
          "type": "uint256"
        }
      ],
      "name": "services",
      "outputs": [
        {
          "internalType": "uint256",
          "name": "id",
          "type": "uint256"
        },
        {
          "internalType": "address",
          "name": "client",
          "type": "address"
        },
        {
          "internalType": "address",
          "name": "provider",
          "type": "address"
        },
        {
          "internalType": "uint256",
          "name": "price",
          "type": "uint256"
        },
        {
          "internalType": "enum Marketplace.ServiceState",
          "name": "state",
          "type": "uint8"
        },
        {
          "internalType": "string",
          "name": "description",
          "type": "string"
        }
      ],
      "stateMutability": "view",
      "type": "function"
    },
    {
      "inputs": [
        {
          "internalType": "address",
          "name": "user",
          "type": "address"
        },
        {
          "internalType": "enum Marketplace.Role",
          "name": "role",
          "type": "uint8"
        }
      ],
      "name": "setRole",
      "outputs": [],
      "stateMutability": "nonpayable",
      "type": "function"
    },
    {
      "inputs": [
        {
          "internalType": "address",
          "name": "newOwner",
          "type": "address"
        }
      ],
      "name": "transferOwnership",
      "outputs": [],
      "stateMutability": "nonpayable",
      "type": "function"
    }
  ],
  "bytecode": "0x608060405234801561001057600080fd5b5033600073ffffffffffffffffffffffffffffffffffffffff168173ffffffffffffffffffffffffffffffffffffffff16036100845760006040517f1e4fbdf700000000000000000000000000000000000000000000000000000000815260040161007b919061019e565b60405180910390fd5b6100938161009960201b60201c565b506101b9565b60008060009054906101000a900473ffffffffffffffffffffffffffffffffffffffff169050816000806101000a81548173ffffffffffffffffffffffffffffffffffffffff021916908373ffffffffffffffffffffffffffffffffffffffff1602179055508173ffffffffffffffffffffffffffffffffffffffff168173ffffffffffffffffffffffffffffffffffffffff167f8be0079c531659141344cd1fd0a4f28419497f9722a3daafe3b4186f6b6457e060405160405180910390a35050565b600073ffffffffffffffffffffffffffffffffffffffff82169050919050565b60006101888261015d565b9050919050565b6101988161017d565b82525050565b60006020820190506101b3600083018461018f565b92915050565b612956806101c86000396000f3fe6080604052600436106100e85760003560e01c8063993746421161008a578063ef0e239b11610059578063ef0e239b146102cd578063f2fde38b1461030a578063f5673c8c14610333578063f6c53d9b1461034f576100e8565b806399374642146101fc578063c22c4f4314610239578063c641fc1d1461027b578063de43790f146102a4576100e8565b806334b25ee2116100c657806334b25ee214610168578063571c3e6014610191578063715018a6146101ba5780638da5cb5b146101d1576100e8565b80630cc41e87146100ed5780631cf82bd21461011657806321c8bafe1461013f575b600080fd5b3480156100f957600080fd5b50610114600480360381019061010f9190611bef565b61037a565b005b34801561012257600080fd5b5061013d60048036038101906101389190611d62565b6105cf565b005b34801561014b57600080fd5b5061016660048036038101906101619190611bef565b610860565b005b34801561017457600080fd5b5061018f600480360381019061018a9190611df6565b610b49565b005b34801561019d57600080fd5b506101b860048036038101906101b39190611eb9565b610e7a565b005b3480156101c657600080fd5b506101cf610eed565b005b3480156101dd57600080fd5b506101e6610f01565b6040516101f39190611f08565b60405180910390f35b34801561020857600080fd5b50610223600480360381019061021e9190611f23565b610f2a565b6040516102309190611fc7565b60405180910390f35b34801561024557600080fd5b50610260600480360381019061025b9190611bef565b610f4a565b604051610272969594939291906120b8565b60405180910390f35b34801561028757600080fd5b506102a2600480360381019061029d9190612120565b61105b565b005b3480156102b057600080fd5b506102cb60048036038101906102c69190611bef565b61132d565b005b3480156102d957600080fd5b506102f460048036038101906102ef9190611bef565b611583565b6040516103019190612260565b60405180910390f35b34801561031657600080fd5b50610331600480360381019061032c9190611f23565b61173d565b005b61034d60048036038101906103489190611bef565b6117c3565b005b34801561035b57600080fd5b506103646119d8565b6040516103719190612282565b60405180910390f35b600280600381111561038f5761038e611f50565b5b600160003373ffffffffffffffffffffffffffffffffffffffff1673ffffffffffffffffffffffffffffffffffffffff16815260200190815260200160002060009054906101000a900460ff1660038111156103ee576103ed611f50565b5b1461042e576040517f08c379a0000000000000000000000000000000000000000000000000000000008152600401610425906122e9565b60405180910390fd5b81600280600681111561044457610443611f50565b5b6003600084815260200190815260200160002060040160009054906101000a900460ff16600681111561047a57610479611f50565b5b146104ba576040517f08c379a00000000000000000000000000000000000000000000000000000000081526004016104b190612355565b60405180910390fd5b3373ffffffffffffffffffffffffffffffffffffffff166003600086815260200190815260200160002060020160009054906101000a900473ffffffffffffffffffffffffffffffffffffffff1673ffffffffffffffffffffffffffffffffffffffff161461055e576040517f08c379a0000000000000000000000000000000000000000000000000000000008152600401610555906123e7565b60405180910390fd5b600380600086815260200190815260200160002060040160006101000a81548160ff0219169083600681111561059757610596611f50565b5b0217905550837fd29ce5f095d5f3c26a962bb3d1fb4fde5340fa5cae3da360236dd700ca46ce8a60405160405180910390a250505050565b60018060038111156105e4576105e3611f50565b5b600160003373ffffffffffffffffffffffffffffffffffffffff1673ffffffffffffffffffffffffffffffffffffffff16815260200190815260200160002060009054906101000a900460ff16600381111561064357610642611f50565b5b14610683576040517f08c379a000000000000000000000000000000000000000000000000000000000815260040161067a906122e9565b60405180910390fd5b6040518060c0016040528060025481526020013373ffffffffffffffffffffffffffffffffffffffff168152602001600073ffffffffffffffffffffffffffffffffffffffff168152602001838152602001600060068111156106e9576106e8611f50565b5b8152602001848152506003600060025481526020019081526020016000206000820151816000015560208201518160010160006101000a81548173ffffffffffffffffffffffffffffffffffffffff021916908373ffffffffffffffffffffffffffffffffffffffff16021790555060408201518160020160006101000a81548173ffffffffffffffffffffffffffffffffffffffff021916908373ffffffffffffffffffffffffffffffffffffffff1602179055506060820151816003015560808201518160040160006101000a81548160ff021916908360068111156107d4576107d3611f50565b5b021790555060a08201518160050190816107ee9190612613565b509050503373ffffffffffffffffffffffffffffffffffffffff166002547f4f61262ead34b30298acaceb42f0ef8c5d6fa3a7568847ea9ee1cc6d9fd1664f8560405161083b91906126e5565b60405180910390a36002600081548092919061085690612736565b9190505550505050565b600180600381111561087557610874611f50565b5b600160003373ffffffffffffffffffffffffffffffffffffffff1673ffffffffffffffffffffffffffffffffffffffff16815260200190815260200160002060009054906101000a900460ff1660038111156108d4576108d3611f50565b5b14610914576040517f08c379a000000000000000000000000000000000000000000000000000000000815260040161090b906122e9565b60405180910390fd5b81600380600681111561092a57610929611f50565b5b6003600084815260200190815260200160002060040160009054906101000a900460ff1660068111156109605761095f611f50565b5b146109a0576040517f08c379a000000000000000000000000000000000000000000000000000000000815260040161099790612355565b60405180910390fd5b3373ffffffffffffffffffffffffffffffffffffffff166003600086815260200190815260200160002060010160009054906101000a900473ffffffffffffffffffffffffffffffffffffffff1673ffffffffffffffffffffffffffffffffffffffff1614610a44576040517f08c379a0000000000000000000000000000000000000000000000000000000008152600401610a3b906127ca565b60405180910390fd5b60046003600086815260200190815260200160002060040160006101000a81548160ff02191690836006811115610a7e57610a7d611f50565b5b02179055506003600085815260200190815260200160002060020160009054906101000a900473ffffffffffffffffffffffffffffffffffffffff1673ffffffffffffffffffffffffffffffffffffffff166108fc60036000878152602001908152602001600020600301549081150290604051600060405180830381858888f19350505050158015610b15573d6000803e3d6000fd5b50837f7095a954dc58d088b11d7fadb23f8a211f4b0fa82210838ea4984cfc76a9286e60405160405180910390a250505050565b6003806003811115610b5e57610b5d611f50565b5b600160003373ffffffffffffffffffffffffffffffffffffffff1673ffffffffffffffffffffffffffffffffffffffff16815260200190815260200160002060009054906101000a900460ff166003811115610bbd57610bbc611f50565b5b14610bfd576040517f08c379a0000000000000000000000000000000000000000000000000000000008152600401610bf4906122e9565b60405180910390fd5b826005806006811115610c1357610c12611f50565b5b6003600084815260200190815260200160002060040160009054906101000a900460ff166006811115610c4957610c48611f50565b5b14610c89576040517f08c379a0000000000000000000000000000000000000000000000000000000008152600401610c8090612355565b60405180910390fd5b8315610d665760046003600087815260200190815260200160002060040160006101000a81548160ff02191690836006811115610cc957610cc8611f50565b5b02179055506003600086815260200190815260200160002060020160009054906101000a900473ffffffffffffffffffffffffffffffffffffffff1673ffffffffffffffffffffffffffffffffffffffff166108fc60036000888152602001908152602001600020600301549081150290604051600060405180830381858888f19350505050158015610d60573d6000803e3d6000fd5b50610e39565b60066003600087815260200190815260200160002060040160006101000a81548160ff02191690836006811115610da057610d9f611f50565b5b02179055506003600086815260200190815260200160002060010160009054906101000a900473ffffffffffffffffffffffffffffffffffffffff1673ffffffffffffffffffffffffffffffffffffffff166108fc60036000888152602001908152602001600020600301549081150290604051600060405180830381858888f19350505050158015610e37573d6000803e3d6000fd5b505b847ffb43a92744861f817ee428589229c8e92d505379ac1b4af5b7cdbc67be799f123386604051610e6b9291906127f9565b60405180910390a25050505050565b610e826119de565b80600160008473ffffffffffffffffffffffffffffffffffffffff1673ffffffffffffffffffffffffffffffffffffffff16815260200190815260200160002060006101000a81548160ff02191690836003811115610ee457610ee3611f50565b5b02179055505050565b610ef56119de565b610eff6000611a65565b565b60008060009054906101000a900473ffffffffffffffffffffffffffffffffffffffff16905090565b60016020528060005260406000206000915054906101000a900460ff1681565b60036020528060005260406000206000915090508060000154908060010160009054906101000a900473ffffffffffffffffffffffffffffffffffffffff16908060020160009054906101000a900473ffffffffffffffffffffffffffffffffffffffff16908060030154908060040160009054906101000a900460ff1690806005018054610fd890612436565b80601f016020809104026020016040519081016040528092919081815260200182805461100490612436565b80156110515780601f1061102657610100808354040283529160200191611051565b820191906000526020600020905b81548152906001019060200180831161103457829003601f168201915b5050505050905086565b60018060038111156110705761106f611f50565b5b600160003373ffffffffffffffffffffffffffffffffffffffff1673ffffffffffffffffffffffffffffffffffffffff16815260200190815260200160002060009054906101000a900460ff1660038111156110cf576110ce611f50565b5b1461110f576040517f08c379a0000000000000000000000000000000000000000000000000000000008152600401611106906122e9565b60405180910390fd5b82600180600681111561112557611124611f50565b5b6003600084815260200190815260200160002060040160009054906101000a900460ff16600681111561115b5761115a611f50565b5b1461119b576040517f08c379a000000000000000000000000000000000000000000000000000000000815260040161119290612355565b60405180910390fd5b600260038111156111af576111ae611f50565b5b600160008673ffffffffffffffffffffffffffffffffffffffff1673ffffffffffffffffffffffffffffffffffffffff16815260200190815260200160002060009054906101000a900460ff16600381111561120e5761120d611f50565b5b1461124e576040517f08c379a000000000000000000000000000000000000000000000000000000000815260040161124590612894565b60405180910390fd5b836003600087815260200190815260200160002060020160006101000a81548173ffffffffffffffffffffffffffffffffffffffff021916908373ffffffffffffffffffffffffffffffffffffffff16021790555060026003600087815260200190815260200160002060040160006101000a81548160ff021916908360068111156112dd576112dc611f50565b5b02179055508373ffffffffffffffffffffffffffffffffffffffff16857f87347dee4386ac44f2c0bf5d058de67e2a08f526794bd25a6a73f159c82718ab60405160405180910390a35050505050565b600180600381111561134257611341611f50565b5b600160003373ffffffffffffffffffffffffffffffffffffffff1673ffffffffffffffffffffffffffffffffffffffff16815260200190815260200160002060009054906101000a900460ff1660038111156113a1576113a0611f50565b5b146113e1576040517f08c379a00000000000000000000000000000000000000000000000000000000081526004016113d8906122e9565b60405180910390fd5b8160038060068111156113f7576113f6611f50565b5b6003600084815260200190815260200160002060040160009054906101000a900460ff16600681111561142d5761142c611f50565b5b1461146d576040517f08c379a000000000000000000000000000000000000000000000000000000000815260040161146490612355565b60405180910390fd5b3373ffffffffffffffffffffffffffffffffffffffff166003600086815260200190815260200160002060010160009054906101000a900473ffffffffffffffffffffffffffffffffffffffff1673ffffffffffffffffffffffffffffffffffffffff1614611511576040517f08c379a0000000000000000000000000000000000000000000000000000000008152600401611508906127ca565b60405180910390fd5b60056003600086815260200190815260200160002060040160006101000a81548160ff0219169083600681111561154b5761154a611f50565b5b0217905550837ff0a617b1186156fdc2fde56d7cb28e70d80ff02648ba33a7690d4ab412cab8cd60405160405180910390a250505050565b61158b611b31565b600360008381526020019081526020016000206040518060c0016040529081600082015481526020016001820160009054906101000a900473ffffffffffffffffffffffffffffffffffffffff1673ffffffffffffffffffffffffffffffffffffffff1673ffffffffffffffffffffffffffffffffffffffff1681526020016002820160009054906101000a900473ffffffffffffffffffffffffffffffffffffffff1673ffffffffffffffffffffffffffffffffffffffff1673ffffffffffffffffffffffffffffffffffffffff168152602001600382015481526020016004820160009054906101000a900460ff16600681111561168e5761168d611f50565b5b60068111156116a05761169f611f50565b5b81526020016005820180546116b490612436565b80601f01602080910402602001604051908101604052809291908181526020018280546116e090612436565b801561172d5780601f106117025761010080835404028352916020019161172d565b820191906000526020600020905b81548152906001019060200180831161171057829003601f168201915b5050505050815250509050919050565b6117456119de565b600073ffffffffffffffffffffffffffffffffffffffff168173ffffffffffffffffffffffffffffffffffffffff16036117b75760006040517f1e4fbdf70000000000000000000000000000000000000000000000000000000081526004016117ae9190611f08565b60405180910390fd5b6117c081611a65565b50565b60018060038111156117d8576117d7611f50565b5b600160003373ffffffffffffffffffffffffffffffffffffffff1673ffffffffffffffffffffffffffffffffffffffff16815260200190815260200160002060009054906101000a900460ff16600381111561183757611836611f50565b5b14611877576040517f08c379a000000000000000000000000000000000000000000000000000000000815260040161186e906122e9565b60405180910390fd5b81600080600681111561188d5761188c611f50565b5b6003600084815260200190815260200160002060040160009054906101000a900460ff1660068111156118c3576118c2611f50565b5b14611903576040517f08c379a00000000000000000000000000000000000000000000000000000000081526004016118fa90612355565b60405180910390fd5b6003600085815260200190815260200160002060030154341461195b576040517f08c379a000000000000000000000000000000000000000000000000000000000815260040161195290612900565b60405180910390fd5b60016003600086815260200190815260200160002060040160006101000a81548160ff0219169083600681111561199557611994611f50565b5b0217905550837f0c438ca092a105cef6f62094945dc7822277b3450b3ec1ab2a6fe1a680df8d8d346040516119ca9190612282565b60405180910390a250505050565b60025481565b6119e6611b29565b73ffffffffffffffffffffffffffffffffffffffff16611a04610f01565b73ffffffffffffffffffffffffffffffffffffffff1614611a6357611a27611b29565b6040517f118cdaa7000000000000000000000000000000000000000000000000000000008152600401611a5a9190611f08565b60405180910390fd5b565b60008060009054906101000a900473ffffffffffffffffffffffffffffffffffffffff169050816000806101000a81548173ffffffffffffffffffffffffffffffffffffffff021916908373ffffffffffffffffffffffffffffffffffffffff1602179055508173ffffffffffffffffffffffffffffffffffffffff168173ffffffffffffffffffffffffffffffffffffffff167f8be0079c531659141344cd1fd0a4f28419497f9722a3daafe3b4186f6b6457e060405160405180910390a35050565b600033905090565b6040518060c0016040528060008152602001600073ffffffffffffffffffffffffffffffffffffffff168152602001600073ffffffffffffffffffffffffffffffffffffffff1681526020016000815260200160006006811115611b9857611b97611f50565b5b8152602001606081525090565b6000604051905090565b600080fd5b600080fd5b6000819050919050565b611bcc81611bb9565b8114611bd757600080fd5b50565b600081359050611be981611bc3565b92915050565b600060208284031215611c0557611c04611baf565b5b6000611c1384828501611bda565b91505092915050565b600080fd5b600080fd5b6000601f19601f8301169050919050565b7f4e487b7100000000000000000000000000000000000000000000000000000000600052604160045260246000fd5b611c6f82611c26565b810181811067ffffffffffffffff82111715611c8e57611c8d611c37565b5b80604052505050565b6000611ca1611ba5565b9050611cad8282611c66565b919050565b600067ffffffffffffffff821115611ccd57611ccc611c37565b5b611cd682611c26565b9050602081019050919050565b82818337600083830152505050565b6000611d05611d0084611cb2565b611c97565b905082815260208101848484011115611d2157611d20611c21565b5b611d2c848285611ce3565b509392505050565b600082601f830112611d4957611d48611c1c565b5b8135611d59848260208601611cf2565b91505092915050565b60008060408385031215611d7957611d78611baf565b5b600083013567ffffffffffffffff811115611d9757611d96611bb4565b5b611da385828601611d34565b9250506020611db485828601611bda565b9150509250929050565b60008115159050919050565b611dd381611dbe565b8114611dde57600080fd5b50565b600081359050611df081611dca565b92915050565b60008060408385031215611e0d57611e0c611baf565b5b6000611e1b85828601611bda565b9250506020611e2c85828601611de1565b9150509250929050565b600073ffffffffffffffffffffffffffffffffffffffff82169050919050565b6000611e6182611e36565b9050919050565b611e7181611e56565b8114611e7c57600080fd5b50565b600081359050611e8e81611e68565b92915050565b60048110611ea157600080fd5b50565b600081359050611eb381611e94565b92915050565b60008060408385031215611ed057611ecf611baf565b5b6000611ede85828601611e7f565b9250506020611eef85828601611ea4565b9150509250929050565b611f0281611e56565b82525050565b6000602082019050611f1d6000830184611ef9565b92915050565b600060208284031215611f3957611f38611baf565b5b6000611f4784828501611e7f565b91505092915050565b7f4e487b7100000000000000000000000000000000000000000000000000000000600052602160045260246000fd5b60048110611f9057611f8f611f50565b5b50565b6000819050611fa182611f7f565b919050565b6000611fb182611f93565b9050919050565b611fc181611fa6565b82525050565b6000602082019050611fdc6000830184611fb8565b92915050565b611feb81611bb9565b82525050565b6007811061200257612001611f50565b5b50565b600081905061201382611ff1565b919050565b600061202382612005565b9050919050565b61203381612018565b82525050565b600081519050919050565b600082825260208201905092915050565b60005b83811015612073578082015181840152602081019050612058565b60008484015250505050565b600061208a82612039565b6120948185612044565b93506120a4818560208601612055565b6120ad81611c26565b840191505092915050565b600060c0820190506120cd6000830189611fe2565b6120da6020830188611ef9565b6120e76040830187611ef9565b6120f46060830186611fe2565b612101608083018561202a565b81810360a0830152612113818461207f565b9050979650505050505050565b6000806040838503121561213757612136611baf565b5b600061214585828601611bda565b925050602061215685828601611e7f565b9150509250929050565b61216981611bb9565b82525050565b61217881611e56565b82525050565b61218781612018565b82525050565b600082825260208201905092915050565b60006121a982612039565b6121b3818561218d565b93506121c3818560208601612055565b6121cc81611c26565b840191505092915050565b600060c0830160008301516121ef6000860182612160565b506020830151612202602086018261216f565b506040830151612215604086018261216f565b5060608301516122286060860182612160565b50608083015161223b608086018261217e565b5060a083015184820360a0860152612253828261219e565b9150508091505092915050565b6000602082019050818103600083015261227a81846121d7565b905092915050565b60006020820190506122976000830184611fe2565b92915050565b7f556e617574686f72697a656420726f6c65000000000000000000000000000000600082015250565b60006122d3601183612044565b91506122de8261229d565b602082019050919050565b60006020820190508181036000830152612302816122c6565b9050919050565b7f496e76616c696420737461746520666f72207468697320616374696f6e000000600082015250565b600061233f601d83612044565b915061234a82612309565b602082019050919050565b6000602082019050818103600083015261236e81612332565b9050919050565b7f596f7520617265206e6f742061737369676e656420746f20746869732073657260008201527f7669636500000000000000000000000000000000000000000000000000000000602082015250565b60006123d1602483612044565b91506123dc82612375565b604082019050919050565b60006020820190508181036000830152612400816123c4565b9050919050565b7f4e487b7100000000000000000000000000000000000000000000000000000000600052602260045260246000fd5b6000600282049050600182168061244e57607f821691505b60208210810361246157612460612407565b5b50919050565b60008190508160005260206000209050919050565b60006020601f8301049050919050565b600082821b905092915050565b6000600883026124c97fffffffffffffffffffffffffffffffffffffffffffffffffffffffffffffffff8261248c565b6124d3868361248c565b95508019841693508086168417925050509392505050565b6000819050919050565b600061251061250b61250684611bb9565b6124eb565b611bb9565b9050919050565b6000819050919050565b61252a836124f5565b61253e61253682612517565b848454612499565b825550505050565b600090565b612553612546565b61255e818484612521565b505050565b5b818110156125825761257760008261254b565b600181019050612564565b5050565b601f8211156125c75761259881612467565b6125a18461247c565b810160208510156125b0578190505b6125c46125bc8561247c565b830182612563565b50505b505050565b600082821c905092915050565b60006125ea600019846008026125cc565b1980831691505092915050565b600061260383836125d9565b9150826002028217905092915050565b61261c82612039565b67ffffffffffffffff81111561263557612634611c37565b5b61263f8254612436565b61264a828285612586565b600060209050601f83116001811461267d576000841561266b578287015190505b61267585826125f7565b8655506126dd565b601f19841661268b86612467565b60005b828110156126b35784890151825560018201915060208501945060208101905061268e565b868310156126d057848901516126cc601f8916826125d9565b8355505b6001600288020188555050505b505050505050565b600060208201905081810360008301526126ff818461207f565b905092915050565b7f4e487b7100000000000000000000000000000000000000000000000000000000600052601160045260246000fd5b600061274182611bb9565b91507fffffffffffffffffffffffffffffffffffffffffffffffffffffffffffffffff820361277357612772612707565b5b600182019050919050565b7f596f7520617265206e6f742074686520636c69656e7400000000000000000000600082015250565b60006127b4601683612044565b91506127bf8261277e565b602082019050919050565b600060208201905081810360008301526127e3816127a7565b9050919050565b6127f381611dbe565b82525050565b600060408201905061280e6000830185611ef9565b61281b60208301846127ea565b9392505050565b7f41737369676e65642061646472657373206973206e6f7420612070726f76696460008201527f6572000000000000000000000000000000000000000000000000000000000000602082015250565b600061287e602283612044565b915061288982612822565b604082019050919050565b600060208201905081810360008301526128ad81612871565b9050919050565b7f496e636f72726563742045544820616d6f756e74000000000000000000000000600082015250565b60006128ea601483612044565b91506128f5826128b4565b602082019050919050565b60006020820190508181036000830152612919816128dd565b905091905056fea2646970667358221220a634d2045295bb1afd76f224a01bbb441444883682e6e445d9d82707a66dc9f964736f6c634300081c0033",
  "linkReferences": {},
  "deployedLinkReferences": {}
}